{
  "contracts/Hero.sol": {
    "Hero": {
      "abi": [
        {
          "inputs": [
            {
              "internalType": "address",
              "name": "_owner",
              "type": "address"
            },
            {
              "internalType": "contract IBEP20",
              "name": "_HBG",
              "type": "address"
            }
          ],
          "stateMutability": "nonpayable",
          "type": "constructor"
        },
        {
          "anonymous": false,
          "inputs": [
            {
              "indexed": true,
              "internalType": "address",
              "name": "owner",
              "type": "address"
            },
            {
              "indexed": true,
              "internalType": "address",
              "name": "approved",
              "type": "address"
            },
            {
              "indexed": true,
              "internalType": "uint256",
              "name": "tokenId",
              "type": "uint256"
            }
          ],
          "name": "Approval",
          "type": "event"
        },
        {
          "anonymous": false,
          "inputs": [
            {
              "indexed": true,
              "internalType": "address",
              "name": "owner",
              "type": "address"
            },
            {
              "indexed": true,
              "internalType": "address",
              "name": "operator",
              "type": "address"
            },
            {
              "indexed": false,
              "internalType": "bool",
              "name": "approved",
              "type": "bool"
            }
          ],
          "name": "ApprovalForAll",
          "type": "event"
        },
        {
          "anonymous": false,
          "inputs": [
            {
              "indexed": true,
              "internalType": "address",
              "name": "from",
              "type": "address"
            },
            {
              "indexed": true,
              "internalType": "address",
              "name": "to",
              "type": "address"
            },
            {
              "indexed": true,
              "internalType": "uint256",
              "name": "tokenId",
              "type": "uint256"
            }
          ],
          "name": "Transfer",
          "type": "event"
        },
        {
          "anonymous": false,
          "inputs": [
            {
              "indexed": false,
              "internalType": "address",
              "name": "user",
              "type": "address"
            },
            {
              "indexed": false,
              "internalType": "string",
              "name": "boxType",
              "type": "string"
            }
          ],
          "name": "buyNewBox",
          "type": "event"
        },
        {
          "inputs": [
            {
              "internalType": "uint256",
              "name": "token_No",
              "type": "uint256"
            }
          ],
          "name": "BurnNFT",
          "outputs": [],
          "stateMutability": "nonpayable",
          "type": "function"
        },
        {
          "inputs": [
            {
              "internalType": "address",
              "name": "_owner",
              "type": "address"
            }
          ],
          "name": "ChangeOwner",
          "outputs": [],
          "stateMutability": "nonpayable",
          "type": "function"
        },
        {
          "inputs": [],
          "name": "HBG",
          "outputs": [
            {
              "internalType": "contract IBEP20",
              "name": "",
              "type": "address"
            }
          ],
          "stateMutability": "view",
          "type": "function"
        },
        {
          "inputs": [
            {
              "internalType": "uint256",
              "name": "_silver",
              "type": "uint256"
            },
            {
              "internalType": "uint256",
              "name": "_gold",
              "type": "uint256"
            },
            {
              "internalType": "uint256",
              "name": "_platinum",
              "type": "uint256"
            },
            {
              "internalType": "uint256",
              "name": "_diamond",
              "type": "uint256"
            }
          ],
          "name": "SetPrice",
          "outputs": [],
          "stateMutability": "nonpayable",
          "type": "function"
        },
        {
          "inputs": [
            {
              "internalType": "address[]",
              "name": "addresses",
              "type": "address[]"
            }
          ],
          "name": "addAddressToWhiteList",
          "outputs": [],
          "stateMutability": "nonpayable",
          "type": "function"
        },
        {
          "inputs": [
            {
              "internalType": "address",
              "name": "to",
              "type": "address"
            },
            {
              "internalType": "uint256",
              "name": "tokenId",
              "type": "uint256"
            }
          ],
          "name": "approve",
          "outputs": [],
          "stateMutability": "nonpayable",
          "type": "function"
        },
        {
          "inputs": [
            {
              "internalType": "address",
              "name": "owner",
              "type": "address"
            }
          ],
          "name": "balanceOf",
          "outputs": [
            {
              "internalType": "uint256",
              "name": "",
              "type": "uint256"
            }
          ],
          "stateMutability": "view",
          "type": "function"
        },
        {
          "inputs": [],
          "name": "baseURI",
          "outputs": [
            {
              "internalType": "string",
              "name": "",
              "type": "string"
            }
          ],
          "stateMutability": "view",
          "type": "function"
        },
        {
          "inputs": [
            {
              "internalType": "address",
              "name": "_user",
              "type": "address"
            },
            {
              "internalType": "uint256",
              "name": "_type",
              "type": "uint256"
            },
            {
              "internalType": "uint256",
              "name": "_payment",
              "type": "uint256"
            }
          ],
          "name": "buyBox",
          "outputs": [],
          "stateMutability": "nonpayable",
          "type": "function"
        },
        {
          "inputs": [],
          "name": "checker",
          "outputs": [
            {
              "internalType": "address[]",
              "name": "",
              "type": "address[]"
            }
          ],
          "stateMutability": "view",
          "type": "function"
        },
        {
          "inputs": [],
          "name": "circulatingSupply",
          "outputs": [
            {
              "internalType": "uint256",
              "name": "",
              "type": "uint256"
            }
          ],
          "stateMutability": "view",
          "type": "function"
        },
        {
          "inputs": [],
          "name": "cleanWhiteList",
          "outputs": [],
          "stateMutability": "nonpayable",
          "type": "function"
        },
        {
          "inputs": [],
          "name": "diamondBox",
          "outputs": [
            {
              "internalType": "uint256",
              "name": "",
              "type": "uint256"
            }
          ],
          "stateMutability": "view",
          "type": "function"
        },
        {
          "inputs": [],
          "name": "diamondPrice",
          "outputs": [
            {
              "internalType": "uint256",
              "name": "",
              "type": "uint256"
            }
          ],
          "stateMutability": "view",
          "type": "function"
        },
        {
          "inputs": [],
          "name": "endClaimHero",
          "outputs": [],
          "stateMutability": "nonpayable",
          "type": "function"
        },
        {
          "inputs": [
            {
              "internalType": "uint256",
              "name": "tokenId",
              "type": "uint256"
            }
          ],
          "name": "getApproved",
          "outputs": [
            {
              "internalType": "address",
              "name": "",
              "type": "address"
            }
          ],
          "stateMutability": "view",
          "type": "function"
        },
        {
          "inputs": [],
          "name": "goldPrice",
          "outputs": [
            {
              "internalType": "uint256",
              "name": "",
              "type": "uint256"
            }
          ],
          "stateMutability": "view",
          "type": "function"
        },
        {
          "inputs": [],
          "name": "goldenBox",
          "outputs": [
            {
              "internalType": "uint256",
              "name": "",
              "type": "uint256"
            }
          ],
          "stateMutability": "view",
          "type": "function"
        },
        {
          "inputs": [
            {
              "internalType": "address",
              "name": "owner",
              "type": "address"
            },
            {
              "internalType": "address",
              "name": "operator",
              "type": "address"
            }
          ],
          "name": "isApprovedForAll",
          "outputs": [
            {
              "internalType": "bool",
              "name": "",
              "type": "bool"
            }
          ],
          "stateMutability": "view",
          "type": "function"
        },
        {
          "inputs": [],
          "name": "name",
          "outputs": [
            {
              "internalType": "string",
              "name": "",
              "type": "string"
            }
          ],
          "stateMutability": "view",
          "type": "function"
        },
        {
          "inputs": [],
          "name": "owner",
          "outputs": [
            {
              "internalType": "address",
              "name": "",
              "type": "address"
            }
          ],
          "stateMutability": "view",
          "type": "function"
        },
        {
          "inputs": [
            {
              "internalType": "uint256",
              "name": "tokenId",
              "type": "uint256"
            }
          ],
          "name": "ownerOf",
          "outputs": [
            {
              "internalType": "address",
              "name": "",
              "type": "address"
            }
          ],
          "stateMutability": "view",
          "type": "function"
        },
        {
          "inputs": [
            {
              "internalType": "uint256",
              "name": "",
              "type": "uint256"
            }
          ],
          "name": "ownerOfDiamondBox",
          "outputs": [
            {
              "internalType": "address",
              "name": "",
              "type": "address"
            }
          ],
          "stateMutability": "view",
          "type": "function"
        },
        {
          "inputs": [
            {
              "internalType": "uint256",
              "name": "",
              "type": "uint256"
            }
          ],
          "name": "ownerOfGoldenBox",
          "outputs": [
            {
              "internalType": "address",
              "name": "",
              "type": "address"
            }
          ],
          "stateMutability": "view",
          "type": "function"
        },
        {
          "inputs": [
            {
              "internalType": "uint256",
              "name": "",
              "type": "uint256"
            }
          ],
          "name": "ownerOfPlatinumBox",
          "outputs": [
            {
              "internalType": "address",
              "name": "",
              "type": "address"
            }
          ],
          "stateMutability": "view",
          "type": "function"
        },
        {
          "inputs": [
            {
              "internalType": "uint256",
              "name": "",
              "type": "uint256"
            }
          ],
          "name": "ownerOfSilverBox",
          "outputs": [
            {
              "internalType": "address",
              "name": "",
              "type": "address"
            }
          ],
          "stateMutability": "view",
          "type": "function"
        },
        {
          "inputs": [],
          "name": "platinumBox",
          "outputs": [
            {
              "internalType": "uint256",
              "name": "",
              "type": "uint256"
            }
          ],
          "stateMutability": "view",
          "type": "function"
        },
        {
          "inputs": [],
          "name": "platinumPrice",
          "outputs": [
            {
              "internalType": "uint256",
              "name": "",
              "type": "uint256"
            }
          ],
          "stateMutability": "view",
          "type": "function"
        },
        {
          "inputs": [
            {
              "internalType": "address",
              "name": "from",
              "type": "address"
            },
            {
              "internalType": "address",
              "name": "to",
              "type": "address"
            },
            {
              "internalType": "uint256",
              "name": "tokenId",
              "type": "uint256"
            }
          ],
          "name": "safeTransferFrom",
          "outputs": [],
          "stateMutability": "nonpayable",
          "type": "function"
        },
        {
          "inputs": [
            {
              "internalType": "address",
              "name": "from",
              "type": "address"
            },
            {
              "internalType": "address",
              "name": "to",
              "type": "address"
            },
            {
              "internalType": "uint256",
              "name": "tokenId",
              "type": "uint256"
            },
            {
              "internalType": "bytes",
              "name": "_data",
              "type": "bytes"
            }
          ],
          "name": "safeTransferFrom",
          "outputs": [],
          "stateMutability": "nonpayable",
          "type": "function"
        },
        {
          "inputs": [
            {
              "internalType": "address",
              "name": "operator",
              "type": "address"
            },
            {
              "internalType": "bool",
              "name": "approved",
              "type": "bool"
            }
          ],
          "name": "setApprovalForAll",
          "outputs": [],
          "stateMutability": "nonpayable",
          "type": "function"
        },
        {
          "inputs": [
            {
              "internalType": "string",
              "name": "__baseURI",
              "type": "string"
            }
          ],
          "name": "setBaseURI",
          "outputs": [],
          "stateMutability": "nonpayable",
          "type": "function"
        },
        {
          "inputs": [],
          "name": "silverBox",
          "outputs": [
            {
              "internalType": "uint256",
              "name": "",
              "type": "uint256"
            }
          ],
          "stateMutability": "view",
          "type": "function"
        },
        {
          "inputs": [],
          "name": "silverPrice",
          "outputs": [
            {
              "internalType": "uint256",
              "name": "",
              "type": "uint256"
            }
          ],
          "stateMutability": "view",
          "type": "function"
        },
        {
          "inputs": [
            {
              "internalType": "uint256",
              "name": "",
              "type": "uint256"
            }
          ],
          "name": "start",
          "outputs": [
            {
              "internalType": "uint256",
              "name": "",
              "type": "uint256"
            }
          ],
          "stateMutability": "view",
          "type": "function"
        },
        {
          "inputs": [
            {
              "internalType": "bytes4",
              "name": "interfaceId",
              "type": "bytes4"
            }
          ],
          "name": "supportsInterface",
          "outputs": [
            {
              "internalType": "bool",
              "name": "",
              "type": "bool"
            }
          ],
          "stateMutability": "view",
          "type": "function"
        },
        {
          "inputs": [],
          "name": "symbol",
          "outputs": [
            {
              "internalType": "string",
              "name": "",
              "type": "string"
            }
          ],
          "stateMutability": "view",
          "type": "function"
        },
        {
          "inputs": [
            {
              "internalType": "uint256",
              "name": "tokenId",
              "type": "uint256"
            }
          ],
          "name": "tokenURI",
          "outputs": [
            {
              "internalType": "string",
              "name": "",
              "type": "string"
            }
          ],
          "stateMutability": "view",
          "type": "function"
        },
        {
          "inputs": [
            {
              "internalType": "address",
              "name": "from",
              "type": "address"
            },
            {
              "internalType": "address",
              "name": "to",
              "type": "address"
            },
            {
              "internalType": "uint256",
              "name": "tokenId",
              "type": "uint256"
            }
          ],
          "name": "transferFrom",
          "outputs": [],
          "stateMutability": "nonpayable",
          "type": "function"
        },
        {
          "inputs": [
            {
              "internalType": "uint256",
              "name": "",
              "type": "uint256"
            }
          ],
          "name": "whitelistedPeople",
          "outputs": [
            {
              "internalType": "address",
              "name": "",
              "type": "address"
            }
          ],
          "stateMutability": "view",
          "type": "function"
        }
      ],
      "evm": {
        "bytecode": {
          "linkReferences": {},
          "object": "60806040526001600a556001600b556001600c556001600d553480156200002557600080fd5b50604051620026e6380380620026e683398101604081905262000048916200018b565b604080518082018252600a8152692422a927902a37b5b2b760b11b6020808301918252835180850190945260048452634845524f60e01b9084015281519192916200009691600091620000e5565b508051620000ac906001906020840190620000e5565b5050600680546001600160a01b039485166001600160a01b031991821617909155600e805493909416921691909117909155506200021f565b828054620000f390620001c9565b90600052602060002090601f01602090048101928262000117576000855562000162565b82601f106200013257805160ff191683800117855562000162565b8280016001018555821562000162579182015b828111156200016257825182559160200191906001019062000145565b506200017092915062000174565b5090565b5b8082111562000170576000815560010162000175565b600080604083850312156200019e578182fd5b8251620001ab8162000206565b6020840151909250620001be8162000206565b809150509250929050565b600181811c90821680620001de57607f821691505b602082108114156200020057634e487b7160e01b600052602260045260246000fd5b50919050565b6001600160a01b03811681146200021c57600080fd5b50565b6124b7806200022f6000396000f3fe608060405234801561001057600080fd5b50600436106101d85760003560e01c806301ffc9a7146101dd57806306fdde0314610205578063081812fc1461021a57806308be750d14610245578063095ea7b3146102585780630a8798c31461026d578063167dc8a01461028057806323b872dd14610293578063266a21f1146102a65780632d258ea4146102b957806342842e0e146102c157806344501404146102d457806355f804b3146102eb5780636352211e146102fe578063678dff9d1461031157806369b59da5146103195780636c0360eb1461034257806370a082311461034a5780637d89cd591461035d5780637dd4d04e146103665780638168803d1461036f578063856e2af4146103785780638da5cb5b146103815780638e1ad9da146103945780639358928b1461039d57806395805dad146103a657806395d89b41146103c65780639e49ec8d146103ce578063a22cb465146103f7578063a787eb571461040a578063b6fc11d914610433578063b88d4fde14610446578063c87b56dd14610459578063cf5303cf1461046c578063dfa9b44014610481578063e985e9c514610494578063f2853292146104a7578063f5063d51146104ba578063fef508c9146104c3578063ff391c06146104ec575b600080fd5b6101f06101eb366004612019565b6104f5565b60405190151581526020015b60405180910390f35b61020d610547565b6040516101fc91906121e8565b61022d610228366004612096565b6105d9565b6040516001600160a01b0390911681526020016101fc565b61022d610253366004612096565b610666565b61026b610266366004611f33565b610690565b005b61026b61027b366004611f5c565b6107a1565b61026b61028e366004612096565b610d95565b61026b6102a1366004611e4a565b610e70565b600e5461022d906001600160a01b031681565b61026b610ea1565b61026b6102cf366004611e4a565b610ed9565b6102dd60105481565b6040519081526020016101fc565b61026b6102f9366004612051565b610ef4565b61022d61030c366004612096565b610f35565b61026b610fac565b61022d610327366004612096565b6015602052600090815260409020546001600160a01b031681565b61020d611068565b6102dd610358366004611dfe565b6110f6565b6102dd600a5481565b6102dd600c5481565b6102dd60115481565b6102dd600b5481565b60065461022d906001600160a01b031681565b6102dd60125481565b6102dd60085481565b6102dd6103b4366004612096565b60176020526000908152604090205481565b61020d61117d565b61022d6103dc366004612096565b6014602052600090815260409020546001600160a01b031681565b61026b610405366004611efd565b61118c565b61022d610418366004612096565b6016602052600090815260409020546001600160a01b031681565b61026b6104413660046120ae565b611197565b61026b610454366004611e85565b6111d5565b61020d610467366004612096565b61120d565b6104746112d8565b6040516101fc919061219b565b61026b61048f366004611f8e565b6113ce565b6101f06104a2366004611e18565b61147e565b61026b6104b5366004611dfe565b6114ac565b6102dd600d5481565b61022d6104d1366004612096565b6013602052600090815260409020546001600160a01b031681565b6102dd600f5481565b60006001600160e01b031982166380ac58cd60e01b148061052657506001600160e01b03198216635b5e139f60e01b145b8061054157506301ffc9a760e01b6001600160e01b03198316145b92915050565b60606000805461055690612377565b80601f016020809104026020016040519081016040528092919081815260200182805461058290612377565b80156105cf5780601f106105a4576101008083540402835291602001916105cf565b820191906000526020600020905b8154815290600101906020018083116105b257829003601f168201915b5050505050905090565b60006105e4826114f8565b61064a5760405162461bcd60e51b815260206004820152602c60248201527f4245503732313a20617070726f76656420717565727920666f72206e6f6e657860448201526b34b9ba32b73a103a37b5b2b760a11b60648201526084015b60405180910390fd5b506000908152600460205260409020546001600160a01b031690565b6009818154811061067657600080fd5b6000918252602090912001546001600160a01b0316905081565b600061069b82610f35565b9050806001600160a01b0316836001600160a01b031614156107095760405162461bcd60e51b815260206004820152602160248201527f4245503732313a20617070726f76616c20746f2063757272656e74206f776e656044820152603960f91b6064820152608401610641565b336001600160a01b03821614806107255750610725813361147e565b6107925760405162461bcd60e51b815260206004820152603860248201527f4245503732313a20617070726f76652063616c6c6572206973206e6f74206f776044820152771b995c881b9bdc88185c1c1c9bdd995908199bdc88185b1b60421b6064820152608401610641565b61079c8383611515565b505050565b816001141561092557600f548110156107cc5760405162461bcd60e51b8152600401610641906122e0565b600a8054600090815260136020526040812080546001600160a01b0319166001600160a01b03871617905581546001929190610809908490612308565b9091555050600e546006546040516323b872dd60e01b81526001600160a01b03928316926323b872dd9261084792889290911690869060040161213a565b602060405180830381600087803b15801561086157600080fd5b505af1158015610875573d6000803e3d6000fd5b505050506040513d601f19601f820116820180604052508101906108999190611ffd565b506001600860008282546108ad9190612308565b925050819055506108c083600854611583565b60085460009081526017602090815260409182902042905581516001600160a01b03861681529081018290526006918101919091526529b4b63b32b960d11b6060820152600080516020612442833981519152906080015b60405180910390a1505050565b8160021415610a9f57601054811461094f5760405162461bcd60e51b8152600401610641906122e0565b600b8054600090815260146020526040812080546001600160a01b0319166001600160a01b0387161790558154600192919061098c908490612308565b9091555050600e546006546040516323b872dd60e01b81526001600160a01b03928316926323b872dd926109ca92889290911690869060040161213a565b602060405180830381600087803b1580156109e457600080fd5b505af11580156109f8573d6000803e3d6000fd5b505050506040513d601f19601f82011682018060405250810190610a1c9190611ffd565b50600160086000828254610a309190612308565b92505081905550610a4383600854611583565b60085460009081526017602090815260409182902042905581516001600160a01b03861681529081018290526006918101919091526523b7b63232b760d11b606082015260008051602061244283398151915290608001610918565b8160031415610c1a576011548114610ac95760405162461bcd60e51b8152600401610641906122e0565b600c8054600090815260156020526040812080546001600160a01b0319166001600160a01b03871617905581546001929190610b06908490612308565b9091555050600e546006546040516323b872dd60e01b81526001600160a01b03928316926323b872dd92610b4492889290911690869060040161213a565b602060405180830381600087803b158015610b5e57600080fd5b505af1158015610b72573d6000803e3d6000fd5b505050506040513d601f19601f82011682018060405250810190610b969190611ffd565b50600160086000828254610baa9190612308565b92505081905550610bbd83600854611583565b60085460009081526017602090815260409182902042905581516001600160a01b038616815290810182905260079181019190915266506c6174696e6d60c81b606082015260008051602061244283398151915290608001610918565b816004141561079c576012548114610c445760405162461bcd60e51b8152600401610641906122e0565b600d8054600090815260166020526040812080546001600160a01b0319166001600160a01b03871617905581546001929190610c81908490612308565b9091555050600e546006546040516323b872dd60e01b81526001600160a01b03928316926323b872dd92610cbf92889290911690869060040161213a565b602060405180830381600087803b158015610cd957600080fd5b505af1158015610ced573d6000803e3d6000fd5b505050506040513d601f19601f82011682018060405250810190610d119190611ffd565b50600160086000828254610d259190612308565b92505081905550610d3883600854611583565b60085460009081526017602090815260409182902042905581516001600160a01b038616815290810182905260079181019190915266111a585b5bdb9960ca1b606082015260008051602061244283398151915290608001610918565b6006546001600160a01b03163314610dbf5760405162461bcd60e51b81526004016106419061224c565b600081815260176020526040902054610ddc906301e13380612308565b4211610e395760405162461bcd60e51b815260206004820152602660248201527f546f6b656e277320616765206d757374206265206f6c646572207468616e2031604482015265103cb2b0b91760d11b6064820152608401610641565b610e42816116a3565b600060176000600860008154610e57906123ac565b9182905550815260208101919091526040016000205550565b610e7a338261172c565b610e965760405162461bcd60e51b8152600401610641906121fb565b61079c8383836117f6565b6006546001600160a01b03163314610ecb5760405162461bcd60e51b81526004016106419061224c565b610ed760096000611cb3565b565b61079c838383604051806020016040528060008152506111d5565b6006546001600160a01b03163314610f1e5760405162461bcd60e51b81526004016106419061224c565b8051610f31906007906020840190611cd4565b5050565b6000818152600260205260408120546001600160a01b0316806105415760405162461bcd60e51b815260206004820152602960248201527f4245503732313a206f776e657220717565727920666f72206e6f6e657869737460448201526832b73a103a37b5b2b760b91b6064820152608401610641565b6006546001600160a01b03163314610fd65760405162461bcd60e51b81526004016106419061224c565b4260005b600954811015610f3157600160086000828254610ff79190612308565b925050819055506110426009828154811061102257634e487b7160e01b600052603260045260246000fd5b6000918252602090912001546008546001600160a01b0390911690611583565b600854600090815260176020526040902082905580611060816123ac565b915050610fda565b6007805461107590612377565b80601f01602080910402602001604051908101604052809291908181526020018280546110a190612377565b80156110ee5780601f106110c3576101008083540402835291602001916110ee565b820191906000526020600020905b8154815290600101906020018083116110d157829003601f168201915b505050505081565b60006001600160a01b0382166111615760405162461bcd60e51b815260206004820152602a60248201527f4245503732313a2062616c616e636520717565727920666f7220746865207a65604482015269726f206164647265737360b01b6064820152608401610641565b506001600160a01b031660009081526003602052604090205490565b60606001805461055690612377565b610f31338383611980565b6006546001600160a01b031633146111c15760405162461bcd60e51b81526004016106419061224c565b600f93909355601091909155601155601255565b6111df338361172c565b6111fb5760405162461bcd60e51b8152600401610641906121fb565b61120784848484611a4b565b50505050565b6060611218826114f8565b61127c5760405162461bcd60e51b815260206004820152602f60248201527f4245503732314d657461646174613a2055524920717565727920666f72206e6f60448201526e3732bc34b9ba32b73a103a37b5b2b760891b6064820152608401610641565b6000611286611a7e565b905060008151116112a657604051806020016040528060008152506112d1565b806112b084611a8d565b6040516020016112c192919061210b565b6040516020818303038152906040525b9392505050565b6009546060906000906001600160401b0381111561130657634e487b7160e01b600052604160045260246000fd5b60405190808252806020026020018201604052801561132f578160200160208202803683370190505b50905060005b6009548110156113c8576009818154811061136057634e487b7160e01b600052603260045260246000fd5b9060005260206000200160009054906101000a90046001600160a01b031682828151811061139e57634e487b7160e01b600052603260045260246000fd5b6001600160a01b0390921660209283029190910190910152806113c0816123ac565b915050611335565b50919050565b6006546001600160a01b031633146113f85760405162461bcd60e51b81526004016106419061224c565b60005b8181101561079c57600983838381811061142557634e487b7160e01b600052603260045260246000fd5b905060200201602081019061143a9190611dfe565b81546001810183556000928352602090922090910180546001600160a01b0319166001600160a01b0390921691909117905580611476816123ac565b9150506113fb565b6001600160a01b03918216600090815260056020908152604080832093909416825291909152205460ff1690565b6006546001600160a01b031633146114d65760405162461bcd60e51b81526004016106419061224c565b600680546001600160a01b0319166001600160a01b0392909216919091179055565b6000908152600260205260409020546001600160a01b0316151590565b600081815260046020526040902080546001600160a01b0319166001600160a01b038416908117909155819061154a82610f35565b6001600160a01b03167f8c5be1e5ebec7d5bd14f71427d1e84f3dd0314c0f7b2291e5b200ac8c7c3b92560405160405180910390a45050565b6001600160a01b0382166115d95760405162461bcd60e51b815260206004820181905260248201527f4245503732313a206d696e7420746f20746865207a65726f20616464726573736044820152606401610641565b6115e2816114f8565b1561162e5760405162461bcd60e51b815260206004820152601c60248201527b1091540dcc8c4e881d1bdad95b88185b1c9958591e481b5a5b9d195960221b6044820152606401610641565b6001600160a01b0382166000908152600360205260408120805460019290611657908490612308565b909155505060008181526002602052604080822080546001600160a01b0319166001600160a01b0386169081179091559051839290600080516020612462833981519152908290a45050565b60006116ae82610f35565b90506116bb600083611515565b6001600160a01b03811660009081526003602052604081208054600192906116e4908490612334565b909155505060008281526002602052604080822080546001600160a01b0319169055518391906001600160a01b03841690600080516020612462833981519152908390a45050565b6000611737826114f8565b6117985760405162461bcd60e51b815260206004820152602c60248201527f4245503732313a206f70657261746f7220717565727920666f72206e6f6e657860448201526b34b9ba32b73a103a37b5b2b760a11b6064820152608401610641565b60006117a383610f35565b9050806001600160a01b0316846001600160a01b031614806117de5750836001600160a01b03166117d3846105d9565b6001600160a01b0316145b806117ee57506117ee818561147e565b949350505050565b826001600160a01b031661180982610f35565b6001600160a01b03161461186d5760405162461bcd60e51b815260206004820152602560248201527f4245503732313a207472616e736665722066726f6d20696e636f72726563742060448201526437bbb732b960d91b6064820152608401610641565b6001600160a01b0382166118cf5760405162461bcd60e51b8152602060048201526024808201527f4245503732313a207472616e7366657220746f20746865207a65726f206164646044820152637265737360e01b6064820152608401610641565b6118da600082611515565b6001600160a01b0383166000908152600360205260408120805460019290611903908490612334565b90915550506001600160a01b0382166000908152600360205260408120805460019290611931908490612308565b909155505060008181526002602052604080822080546001600160a01b0319166001600160a01b03868116918217909255915184939187169160008051602061246283398151915291a4505050565b816001600160a01b0316836001600160a01b031614156119de5760405162461bcd60e51b81526020600482015260196024820152782122a81b99189d1030b8383937bb32903a379031b0b63632b960391b6044820152606401610641565b6001600160a01b03838116600081815260056020908152604080832094871680845294825291829020805460ff191686151590811790915591519182527f17307eab39ab6107e8899845ad3d59bd9653f200f220920489ca2b5937696c31910160405180910390a3505050565b611a568484846117f6565b611a6284848484611ba6565b6112075760405162461bcd60e51b81526004016106419061228e565b60606007805461055690612377565b606081611ab15750506040805180820190915260018152600360fc1b602082015290565b8160005b8115611adb5780611ac5816123ac565b9150611ad49050600a83612320565b9150611ab5565b6000816001600160401b03811115611b0357634e487b7160e01b600052604160045260246000fd5b6040519080825280601f01601f191660200182016040528015611b2d576020820181803683370190505b5090505b84156117ee57611b42600183612334565b9150611b4f600a866123c7565b611b5a906030612308565b60f81b818381518110611b7d57634e487b7160e01b600052603260045260246000fd5b60200101906001600160f81b031916908160001a905350611b9f600a86612320565b9450611b31565b60006001600160a01b0384163b15611ca85760405163083305f960e31b81526001600160a01b038516906341982fc890611bea90339089908890889060040161215e565b602060405180830381600087803b158015611c0457600080fd5b505af1925050508015611c34575060408051601f3d908101601f19168201909252611c3191810190612035565b60015b611c8e573d808015611c62576040519150601f19603f3d011682016040523d82523d6000602084013e611c67565b606091505b508051611c865760405162461bcd60e51b81526004016106419061228e565b805181602001fd5b6001600160e01b03191663083305f960e31b1490506117ee565b506001949350505050565b5080546000825590600052602060002090810190611cd19190611d58565b50565b828054611ce090612377565b90600052602060002090601f016020900481019282611d025760008555611d48565b82601f10611d1b57805160ff1916838001178555611d48565b82800160010185558215611d48579182015b82811115611d48578251825591602001919060010190611d2d565b50611d54929150611d58565b5090565b5b80821115611d545760008155600101611d59565b60006001600160401b0380841115611d8757611d87612407565b604051601f8501601f19908116603f01168101908282118183101715611daf57611daf612407565b81604052809350858152868686011115611dc857600080fd5b858560208301376000602087830101525050509392505050565b80356001600160a01b0381168114611df957600080fd5b919050565b600060208284031215611e0f578081fd5b6112d182611de2565b60008060408385031215611e2a578081fd5b611e3383611de2565b9150611e4160208401611de2565b90509250929050565b600080600060608486031215611e5e578081fd5b611e6784611de2565b9250611e7560208501611de2565b9150604084013590509250925092565b60008060008060808587031215611e9a578081fd5b611ea385611de2565b9350611eb160208601611de2565b92506040850135915060608501356001600160401b03811115611ed2578182fd5b8501601f81018713611ee2578182fd5b611ef187823560208401611d6d565b91505092959194509250565b60008060408385031215611f0f578182fd5b611f1883611de2565b91506020830135611f288161241d565b809150509250929050565b60008060408385031215611f45578182fd5b611f4e83611de2565b946020939093013593505050565b600080600060608486031215611f70578283fd5b611f7984611de2565b95602085013595506040909401359392505050565b60008060208385031215611fa0578182fd5b82356001600160401b0380821115611fb6578384fd5b818501915085601f830112611fc9578384fd5b813581811115611fd7578485fd5b8660208260051b8501011115611feb578485fd5b60209290920196919550909350505050565b60006020828403121561200e578081fd5b81516112d18161241d565b60006020828403121561202a578081fd5b81356112d18161242b565b600060208284031215612046578081fd5b81516112d18161242b565b600060208284031215612062578081fd5b81356001600160401b03811115612077578182fd5b8201601f81018413612087578182fd5b6117ee84823560208401611d6d565b6000602082840312156120a7578081fd5b5035919050565b600080600080608085870312156120c3578182fd5b5050823594602084013594506040840135936060013592509050565b600081518084526120f781602086016020860161234b565b601f01601f19169290920160200192915050565b6000835161211d81846020880161234b565b83519083019061213181836020880161234b565b01949350505050565b6001600160a01b039384168152919092166020820152604081019190915260600190565b6001600160a01b0385811682528416602082015260408101839052608060608201819052600090612191908301846120df565b9695505050505050565b6020808252825182820181905260009190848201906040850190845b818110156121dc5783516001600160a01b0316835292840192918401916001016121b7565b50909695505050505050565b6020815260006112d160208301846120df565b60208082526031908201527f4245503732313a207472616e736665722063616c6c6572206973206e6f74206f6040820152701ddb995c881b9bdc88185c1c1c9bdd9959607a1b606082015260800190565b60208082526022908201527f4f6e6c79206f776e65722063616e2072756e20746869732066756e6374696f6e604082015261010960f51b606082015260800190565b60208082526032908201527f4245503732313a207472616e7366657220746f206e6f6e20424550373231526560408201527131b2b4bb32b91034b6b83632b6b2b73a32b960711b606082015260800190565b6020808252600e908201526d034b73b30b634b210283934b1b2960951b604082015260600190565b6000821982111561231b5761231b6123db565b500190565b60008261232f5761232f6123f1565b500490565b600082821015612346576123466123db565b500390565b60005b8381101561236657818101518382015260200161234e565b838111156112075750506000910152565b600181811c9082168061238b57607f821691505b602082108114156113c857634e487b7160e01b600052602260045260246000fd5b60006000198214156123c0576123c06123db565b5060010190565b6000826123d6576123d66123f1565b500690565b634e487b7160e01b600052601160045260246000fd5b634e487b7160e01b600052601260045260246000fd5b634e487b7160e01b600052604160045260246000fd5b8015158114611cd157600080fd5b6001600160e01b031981168114611cd157600080fdfe367f3b3e9f0b4141d6ae3cacac8084da13be4a6b423710ff564c4285f5ccba58ddf252ad1be2c89b69c2b068fc378daa952ba7f163c4a11628f55a4df523b3efa2646970667358221220d24351cef50f0258014c9d00bef856bee6bd0db6c27402b57ce5c497d8e9eaf664736f6c63430008040033",
          "opcodes": "PUSH1 0x80 PUSH1 0x40 MSTORE PUSH1 0x1 PUSH1 0xA SSTORE PUSH1 0x1 PUSH1 0xB SSTORE PUSH1 0x1 PUSH1 0xC SSTORE PUSH1 0x1 PUSH1 0xD SSTORE CALLVALUE DUP1 ISZERO PUSH3 0x25 JUMPI PUSH1 0x0 DUP1 REVERT JUMPDEST POP PUSH1 0x40 MLOAD PUSH3 0x26E6 CODESIZE SUB DUP1 PUSH3 0x26E6 DUP4 CODECOPY DUP2 ADD PUSH1 0x40 DUP2 SWAP1 MSTORE PUSH3 0x48 SWAP2 PUSH3 0x18B JUMP JUMPDEST PUSH1 0x40 DUP1 MLOAD DUP1 DUP3 ADD DUP3 MSTORE PUSH1 0xA DUP2 MSTORE PUSH10 0x2422A927902A37B5B2B7 PUSH1 0xB1 SHL PUSH1 0x20 DUP1 DUP4 ADD SWAP2 DUP3 MSTORE DUP4 MLOAD DUP1 DUP6 ADD SWAP1 SWAP5 MSTORE PUSH1 0x4 DUP5 MSTORE PUSH4 0x4845524F PUSH1 0xE0 SHL SWAP1 DUP5 ADD MSTORE DUP2 MLOAD SWAP2 SWAP3 SWAP2 PUSH3 0x96 SWAP2 PUSH1 0x0 SWAP2 PUSH3 0xE5 JUMP JUMPDEST POP DUP1 MLOAD PUSH3 0xAC SWAP1 PUSH1 0x1 SWAP1 PUSH1 0x20 DUP5 ADD SWAP1 PUSH3 0xE5 JUMP JUMPDEST POP POP PUSH1 0x6 DUP1 SLOAD PUSH1 0x1 PUSH1 0x1 PUSH1 0xA0 SHL SUB SWAP5 DUP6 AND PUSH1 0x1 PUSH1 0x1 PUSH1 0xA0 SHL SUB NOT SWAP2 DUP3 AND OR SWAP1 SWAP2 SSTORE PUSH1 0xE DUP1 SLOAD SWAP4 SWAP1 SWAP5 AND SWAP3 AND SWAP2 SWAP1 SWAP2 OR SWAP1 SWAP2 SSTORE POP PUSH3 0x21F JUMP JUMPDEST DUP3 DUP1 SLOAD PUSH3 0xF3 SWAP1 PUSH3 0x1C9 JUMP JUMPDEST SWAP1 PUSH1 0x0 MSTORE PUSH1 0x20 PUSH1 0x0 KECCAK256 SWAP1 PUSH1 0x1F ADD PUSH1 0x20 SWAP1 DIV DUP2 ADD SWAP3 DUP3 PUSH3 0x117 JUMPI PUSH1 0x0 DUP6 SSTORE PUSH3 0x162 JUMP JUMPDEST DUP3 PUSH1 0x1F LT PUSH3 0x132 JUMPI DUP1 MLOAD PUSH1 0xFF NOT AND DUP4 DUP1 ADD OR DUP6 SSTORE PUSH3 0x162 JUMP JUMPDEST DUP3 DUP1 ADD PUSH1 0x1 ADD DUP6 SSTORE DUP3 ISZERO PUSH3 0x162 JUMPI SWAP2 DUP3 ADD JUMPDEST DUP3 DUP2 GT ISZERO PUSH3 0x162 JUMPI DUP3 MLOAD DUP3 SSTORE SWAP2 PUSH1 0x20 ADD SWAP2 SWAP1 PUSH1 0x1 ADD SWAP1 PUSH3 0x145 JUMP JUMPDEST POP PUSH3 0x170 SWAP3 SWAP2 POP PUSH3 0x174 JUMP JUMPDEST POP SWAP1 JUMP JUMPDEST JUMPDEST DUP1 DUP3 GT ISZERO PUSH3 0x170 JUMPI PUSH1 0x0 DUP2 SSTORE PUSH1 0x1 ADD PUSH3 0x175 JUMP JUMPDEST PUSH1 0x0 DUP1 PUSH1 0x40 DUP4 DUP6 SUB SLT ISZERO PUSH3 0x19E JUMPI DUP2 DUP3 REVERT JUMPDEST DUP3 MLOAD PUSH3 0x1AB DUP2 PUSH3 0x206 JUMP JUMPDEST PUSH1 0x20 DUP5 ADD MLOAD SWAP1 SWAP3 POP PUSH3 0x1BE DUP2 PUSH3 0x206 JUMP JUMPDEST DUP1 SWAP2 POP POP SWAP3 POP SWAP3 SWAP1 POP JUMP JUMPDEST PUSH1 0x1 DUP2 DUP2 SHR SWAP1 DUP3 AND DUP1 PUSH3 0x1DE JUMPI PUSH1 0x7F DUP3 AND SWAP2 POP JUMPDEST PUSH1 0x20 DUP3 LT DUP2 EQ ISZERO PUSH3 0x200 JUMPI PUSH4 0x4E487B71 PUSH1 0xE0 SHL PUSH1 0x0 MSTORE PUSH1 0x22 PUSH1 0x4 MSTORE PUSH1 0x24 PUSH1 0x0 REVERT JUMPDEST POP SWAP2 SWAP1 POP JUMP JUMPDEST PUSH1 0x1 PUSH1 0x1 PUSH1 0xA0 SHL SUB DUP2 AND DUP2 EQ PUSH3 0x21C JUMPI PUSH1 0x0 DUP1 REVERT JUMPDEST POP JUMP JUMPDEST PUSH2 0x24B7 DUP1 PUSH3 0x22F PUSH1 0x0 CODECOPY PUSH1 0x0 RETURN INVALID PUSH1 0x80 PUSH1 0x40 MSTORE CALLVALUE DUP1 ISZERO PUSH2 0x10 JUMPI PUSH1 0x0 DUP1 REVERT JUMPDEST POP PUSH1 0x4 CALLDATASIZE LT PUSH2 0x1D8 JUMPI PUSH1 0x0 CALLDATALOAD PUSH1 0xE0 SHR DUP1 PUSH4 0x1FFC9A7 EQ PUSH2 0x1DD JUMPI DUP1 PUSH4 0x6FDDE03 EQ PUSH2 0x205 JUMPI DUP1 PUSH4 0x81812FC EQ PUSH2 0x21A JUMPI DUP1 PUSH4 0x8BE750D EQ PUSH2 0x245 JUMPI DUP1 PUSH4 0x95EA7B3 EQ PUSH2 0x258 JUMPI DUP1 PUSH4 0xA8798C3 EQ PUSH2 0x26D JUMPI DUP1 PUSH4 0x167DC8A0 EQ PUSH2 0x280 JUMPI DUP1 PUSH4 0x23B872DD EQ PUSH2 0x293 JUMPI DUP1 PUSH4 0x266A21F1 EQ PUSH2 0x2A6 JUMPI DUP1 PUSH4 0x2D258EA4 EQ PUSH2 0x2B9 JUMPI DUP1 PUSH4 0x42842E0E EQ PUSH2 0x2C1 JUMPI DUP1 PUSH4 0x44501404 EQ PUSH2 0x2D4 JUMPI DUP1 PUSH4 0x55F804B3 EQ PUSH2 0x2EB JUMPI DUP1 PUSH4 0x6352211E EQ PUSH2 0x2FE JUMPI DUP1 PUSH4 0x678DFF9D EQ PUSH2 0x311 JUMPI DUP1 PUSH4 0x69B59DA5 EQ PUSH2 0x319 JUMPI DUP1 PUSH4 0x6C0360EB EQ PUSH2 0x342 JUMPI DUP1 PUSH4 0x70A08231 EQ PUSH2 0x34A JUMPI DUP1 PUSH4 0x7D89CD59 EQ PUSH2 0x35D JUMPI DUP1 PUSH4 0x7DD4D04E EQ PUSH2 0x366 JUMPI DUP1 PUSH4 0x8168803D EQ PUSH2 0x36F JUMPI DUP1 PUSH4 0x856E2AF4 EQ PUSH2 0x378 JUMPI DUP1 PUSH4 0x8DA5CB5B EQ PUSH2 0x381 JUMPI DUP1 PUSH4 0x8E1AD9DA EQ PUSH2 0x394 JUMPI DUP1 PUSH4 0x9358928B EQ PUSH2 0x39D JUMPI DUP1 PUSH4 0x95805DAD EQ PUSH2 0x3A6 JUMPI DUP1 PUSH4 0x95D89B41 EQ PUSH2 0x3C6 JUMPI DUP1 PUSH4 0x9E49EC8D EQ PUSH2 0x3CE JUMPI DUP1 PUSH4 0xA22CB465 EQ PUSH2 0x3F7 JUMPI DUP1 PUSH4 0xA787EB57 EQ PUSH2 0x40A JUMPI DUP1 PUSH4 0xB6FC11D9 EQ PUSH2 0x433 JUMPI DUP1 PUSH4 0xB88D4FDE EQ PUSH2 0x446 JUMPI DUP1 PUSH4 0xC87B56DD EQ PUSH2 0x459 JUMPI DUP1 PUSH4 0xCF5303CF EQ PUSH2 0x46C JUMPI DUP1 PUSH4 0xDFA9B440 EQ PUSH2 0x481 JUMPI DUP1 PUSH4 0xE985E9C5 EQ PUSH2 0x494 JUMPI DUP1 PUSH4 0xF2853292 EQ PUSH2 0x4A7 JUMPI DUP1 PUSH4 0xF5063D51 EQ PUSH2 0x4BA JUMPI DUP1 PUSH4 0xFEF508C9 EQ PUSH2 0x4C3 JUMPI DUP1 PUSH4 0xFF391C06 EQ PUSH2 0x4EC JUMPI JUMPDEST PUSH1 0x0 DUP1 REVERT JUMPDEST PUSH2 0x1F0 PUSH2 0x1EB CALLDATASIZE PUSH1 0x4 PUSH2 0x2019 JUMP JUMPDEST PUSH2 0x4F5 JUMP JUMPDEST PUSH1 0x40 MLOAD SWAP1 ISZERO ISZERO DUP2 MSTORE PUSH1 0x20 ADD JUMPDEST PUSH1 0x40 MLOAD DUP1 SWAP2 SUB SWAP1 RETURN JUMPDEST PUSH2 0x20D PUSH2 0x547 JUMP JUMPDEST PUSH1 0x40 MLOAD PUSH2 0x1FC SWAP2 SWAP1 PUSH2 0x21E8 JUMP JUMPDEST PUSH2 0x22D PUSH2 0x228 CALLDATASIZE PUSH1 0x4 PUSH2 0x2096 JUMP JUMPDEST PUSH2 0x5D9 JUMP JUMPDEST PUSH1 0x40 MLOAD PUSH1 0x1 PUSH1 0x1 PUSH1 0xA0 SHL SUB SWAP1 SWAP2 AND DUP2 MSTORE PUSH1 0x20 ADD PUSH2 0x1FC JUMP JUMPDEST PUSH2 0x22D PUSH2 0x253 CALLDATASIZE PUSH1 0x4 PUSH2 0x2096 JUMP JUMPDEST PUSH2 0x666 JUMP JUMPDEST PUSH2 0x26B PUSH2 0x266 CALLDATASIZE PUSH1 0x4 PUSH2 0x1F33 JUMP JUMPDEST PUSH2 0x690 JUMP JUMPDEST STOP JUMPDEST PUSH2 0x26B PUSH2 0x27B CALLDATASIZE PUSH1 0x4 PUSH2 0x1F5C JUMP JUMPDEST PUSH2 0x7A1 JUMP JUMPDEST PUSH2 0x26B PUSH2 0x28E CALLDATASIZE PUSH1 0x4 PUSH2 0x2096 JUMP JUMPDEST PUSH2 0xD95 JUMP JUMPDEST PUSH2 0x26B PUSH2 0x2A1 CALLDATASIZE PUSH1 0x4 PUSH2 0x1E4A JUMP JUMPDEST PUSH2 0xE70 JUMP JUMPDEST PUSH1 0xE SLOAD PUSH2 0x22D SWAP1 PUSH1 0x1 PUSH1 0x1 PUSH1 0xA0 SHL SUB AND DUP2 JUMP JUMPDEST PUSH2 0x26B PUSH2 0xEA1 JUMP JUMPDEST PUSH2 0x26B PUSH2 0x2CF CALLDATASIZE PUSH1 0x4 PUSH2 0x1E4A JUMP JUMPDEST PUSH2 0xED9 JUMP JUMPDEST PUSH2 0x2DD PUSH1 0x10 SLOAD DUP2 JUMP JUMPDEST PUSH1 0x40 MLOAD SWAP1 DUP2 MSTORE PUSH1 0x20 ADD PUSH2 0x1FC JUMP JUMPDEST PUSH2 0x26B PUSH2 0x2F9 CALLDATASIZE PUSH1 0x4 PUSH2 0x2051 JUMP JUMPDEST PUSH2 0xEF4 JUMP JUMPDEST PUSH2 0x22D PUSH2 0x30C CALLDATASIZE PUSH1 0x4 PUSH2 0x2096 JUMP JUMPDEST PUSH2 0xF35 JUMP JUMPDEST PUSH2 0x26B PUSH2 0xFAC JUMP JUMPDEST PUSH2 0x22D PUSH2 0x327 CALLDATASIZE PUSH1 0x4 PUSH2 0x2096 JUMP JUMPDEST PUSH1 0x15 PUSH1 0x20 MSTORE PUSH1 0x0 SWAP1 DUP2 MSTORE PUSH1 0x40 SWAP1 KECCAK256 SLOAD PUSH1 0x1 PUSH1 0x1 PUSH1 0xA0 SHL SUB AND DUP2 JUMP JUMPDEST PUSH2 0x20D PUSH2 0x1068 JUMP JUMPDEST PUSH2 0x2DD PUSH2 0x358 CALLDATASIZE PUSH1 0x4 PUSH2 0x1DFE JUMP JUMPDEST PUSH2 0x10F6 JUMP JUMPDEST PUSH2 0x2DD PUSH1 0xA SLOAD DUP2 JUMP JUMPDEST PUSH2 0x2DD PUSH1 0xC SLOAD DUP2 JUMP JUMPDEST PUSH2 0x2DD PUSH1 0x11 SLOAD DUP2 JUMP JUMPDEST PUSH2 0x2DD PUSH1 0xB SLOAD DUP2 JUMP JUMPDEST PUSH1 0x6 SLOAD PUSH2 0x22D SWAP1 PUSH1 0x1 PUSH1 0x1 PUSH1 0xA0 SHL SUB AND DUP2 JUMP JUMPDEST PUSH2 0x2DD PUSH1 0x12 SLOAD DUP2 JUMP JUMPDEST PUSH2 0x2DD PUSH1 0x8 SLOAD DUP2 JUMP JUMPDEST PUSH2 0x2DD PUSH2 0x3B4 CALLDATASIZE PUSH1 0x4 PUSH2 0x2096 JUMP JUMPDEST PUSH1 0x17 PUSH1 0x20 MSTORE PUSH1 0x0 SWAP1 DUP2 MSTORE PUSH1 0x40 SWAP1 KECCAK256 SLOAD DUP2 JUMP JUMPDEST PUSH2 0x20D PUSH2 0x117D JUMP JUMPDEST PUSH2 0x22D PUSH2 0x3DC CALLDATASIZE PUSH1 0x4 PUSH2 0x2096 JUMP JUMPDEST PUSH1 0x14 PUSH1 0x20 MSTORE PUSH1 0x0 SWAP1 DUP2 MSTORE PUSH1 0x40 SWAP1 KECCAK256 SLOAD PUSH1 0x1 PUSH1 0x1 PUSH1 0xA0 SHL SUB AND DUP2 JUMP JUMPDEST PUSH2 0x26B PUSH2 0x405 CALLDATASIZE PUSH1 0x4 PUSH2 0x1EFD JUMP JUMPDEST PUSH2 0x118C JUMP JUMPDEST PUSH2 0x22D PUSH2 0x418 CALLDATASIZE PUSH1 0x4 PUSH2 0x2096 JUMP JUMPDEST PUSH1 0x16 PUSH1 0x20 MSTORE PUSH1 0x0 SWAP1 DUP2 MSTORE PUSH1 0x40 SWAP1 KECCAK256 SLOAD PUSH1 0x1 PUSH1 0x1 PUSH1 0xA0 SHL SUB AND DUP2 JUMP JUMPDEST PUSH2 0x26B PUSH2 0x441 CALLDATASIZE PUSH1 0x4 PUSH2 0x20AE JUMP JUMPDEST PUSH2 0x1197 JUMP JUMPDEST PUSH2 0x26B PUSH2 0x454 CALLDATASIZE PUSH1 0x4 PUSH2 0x1E85 JUMP JUMPDEST PUSH2 0x11D5 JUMP JUMPDEST PUSH2 0x20D PUSH2 0x467 CALLDATASIZE PUSH1 0x4 PUSH2 0x2096 JUMP JUMPDEST PUSH2 0x120D JUMP JUMPDEST PUSH2 0x474 PUSH2 0x12D8 JUMP JUMPDEST PUSH1 0x40 MLOAD PUSH2 0x1FC SWAP2 SWAP1 PUSH2 0x219B JUMP JUMPDEST PUSH2 0x26B PUSH2 0x48F CALLDATASIZE PUSH1 0x4 PUSH2 0x1F8E JUMP JUMPDEST PUSH2 0x13CE JUMP JUMPDEST PUSH2 0x1F0 PUSH2 0x4A2 CALLDATASIZE PUSH1 0x4 PUSH2 0x1E18 JUMP JUMPDEST PUSH2 0x147E JUMP JUMPDEST PUSH2 0x26B PUSH2 0x4B5 CALLDATASIZE PUSH1 0x4 PUSH2 0x1DFE JUMP JUMPDEST PUSH2 0x14AC JUMP JUMPDEST PUSH2 0x2DD PUSH1 0xD SLOAD DUP2 JUMP JUMPDEST PUSH2 0x22D PUSH2 0x4D1 CALLDATASIZE PUSH1 0x4 PUSH2 0x2096 JUMP JUMPDEST PUSH1 0x13 PUSH1 0x20 MSTORE PUSH1 0x0 SWAP1 DUP2 MSTORE PUSH1 0x40 SWAP1 KECCAK256 SLOAD PUSH1 0x1 PUSH1 0x1 PUSH1 0xA0 SHL SUB AND DUP2 JUMP JUMPDEST PUSH2 0x2DD PUSH1 0xF SLOAD DUP2 JUMP JUMPDEST PUSH1 0x0 PUSH1 0x1 PUSH1 0x1 PUSH1 0xE0 SHL SUB NOT DUP3 AND PUSH4 0x80AC58CD PUSH1 0xE0 SHL EQ DUP1 PUSH2 0x526 JUMPI POP PUSH1 0x1 PUSH1 0x1 PUSH1 0xE0 SHL SUB NOT DUP3 AND PUSH4 0x5B5E139F PUSH1 0xE0 SHL EQ JUMPDEST DUP1 PUSH2 0x541 JUMPI POP PUSH4 0x1FFC9A7 PUSH1 0xE0 SHL PUSH1 0x1 PUSH1 0x1 PUSH1 0xE0 SHL SUB NOT DUP4 AND EQ JUMPDEST SWAP3 SWAP2 POP POP JUMP JUMPDEST PUSH1 0x60 PUSH1 0x0 DUP1 SLOAD PUSH2 0x556 SWAP1 PUSH2 0x2377 JUMP JUMPDEST DUP1 PUSH1 0x1F ADD PUSH1 0x20 DUP1 SWAP2 DIV MUL PUSH1 0x20 ADD PUSH1 0x40 MLOAD SWAP1 DUP2 ADD PUSH1 0x40 MSTORE DUP1 SWAP3 SWAP2 SWAP1 DUP2 DUP2 MSTORE PUSH1 0x20 ADD DUP3 DUP1 SLOAD PUSH2 0x582 SWAP1 PUSH2 0x2377 JUMP JUMPDEST DUP1 ISZERO PUSH2 0x5CF JUMPI DUP1 PUSH1 0x1F LT PUSH2 0x5A4 JUMPI PUSH2 0x100 DUP1 DUP4 SLOAD DIV MUL DUP4 MSTORE SWAP2 PUSH1 0x20 ADD SWAP2 PUSH2 0x5CF JUMP JUMPDEST DUP3 ADD SWAP2 SWAP1 PUSH1 0x0 MSTORE PUSH1 0x20 PUSH1 0x0 KECCAK256 SWAP1 JUMPDEST DUP2 SLOAD DUP2 MSTORE SWAP1 PUSH1 0x1 ADD SWAP1 PUSH1 0x20 ADD DUP1 DUP4 GT PUSH2 0x5B2 JUMPI DUP3 SWAP1 SUB PUSH1 0x1F AND DUP3 ADD SWAP2 JUMPDEST POP POP POP POP POP SWAP1 POP SWAP1 JUMP JUMPDEST PUSH1 0x0 PUSH2 0x5E4 DUP3 PUSH2 0x14F8 JUMP JUMPDEST PUSH2 0x64A JUMPI PUSH1 0x40 MLOAD PUSH3 0x461BCD PUSH1 0xE5 SHL DUP2 MSTORE PUSH1 0x20 PUSH1 0x4 DUP3 ADD MSTORE PUSH1 0x2C PUSH1 0x24 DUP3 ADD MSTORE PUSH32 0x4245503732313A20617070726F76656420717565727920666F72206E6F6E6578 PUSH1 0x44 DUP3 ADD MSTORE PUSH12 0x34B9BA32B73A103A37B5B2B7 PUSH1 0xA1 SHL PUSH1 0x64 DUP3 ADD MSTORE PUSH1 0x84 ADD JUMPDEST PUSH1 0x40 MLOAD DUP1 SWAP2 SUB SWAP1 REVERT JUMPDEST POP PUSH1 0x0 SWAP1 DUP2 MSTORE PUSH1 0x4 PUSH1 0x20 MSTORE PUSH1 0x40 SWAP1 KECCAK256 SLOAD PUSH1 0x1 PUSH1 0x1 PUSH1 0xA0 SHL SUB AND SWAP1 JUMP JUMPDEST PUSH1 0x9 DUP2 DUP2 SLOAD DUP2 LT PUSH2 0x676 JUMPI PUSH1 0x0 DUP1 REVERT JUMPDEST PUSH1 0x0 SWAP2 DUP3 MSTORE PUSH1 0x20 SWAP1 SWAP2 KECCAK256 ADD SLOAD PUSH1 0x1 PUSH1 0x1 PUSH1 0xA0 SHL SUB AND SWAP1 POP DUP2 JUMP JUMPDEST PUSH1 0x0 PUSH2 0x69B DUP3 PUSH2 0xF35 JUMP JUMPDEST SWAP1 POP DUP1 PUSH1 0x1 PUSH1 0x1 PUSH1 0xA0 SHL SUB AND DUP4 PUSH1 0x1 PUSH1 0x1 PUSH1 0xA0 SHL SUB AND EQ ISZERO PUSH2 0x709 JUMPI PUSH1 0x40 MLOAD PUSH3 0x461BCD PUSH1 0xE5 SHL DUP2 MSTORE PUSH1 0x20 PUSH1 0x4 DUP3 ADD MSTORE PUSH1 0x21 PUSH1 0x24 DUP3 ADD MSTORE PUSH32 0x4245503732313A20617070726F76616C20746F2063757272656E74206F776E65 PUSH1 0x44 DUP3 ADD MSTORE PUSH1 0x39 PUSH1 0xF9 SHL PUSH1 0x64 DUP3 ADD MSTORE PUSH1 0x84 ADD PUSH2 0x641 JUMP JUMPDEST CALLER PUSH1 0x1 PUSH1 0x1 PUSH1 0xA0 SHL SUB DUP3 AND EQ DUP1 PUSH2 0x725 JUMPI POP PUSH2 0x725 DUP2 CALLER PUSH2 0x147E JUMP JUMPDEST PUSH2 0x792 JUMPI PUSH1 0x40 MLOAD PUSH3 0x461BCD PUSH1 0xE5 SHL DUP2 MSTORE PUSH1 0x20 PUSH1 0x4 DUP3 ADD MSTORE PUSH1 0x38 PUSH1 0x24 DUP3 ADD MSTORE PUSH32 0x4245503732313A20617070726F76652063616C6C6572206973206E6F74206F77 PUSH1 0x44 DUP3 ADD MSTORE PUSH24 0x1B995C881B9BDC88185C1C1C9BDD995908199BDC88185B1B PUSH1 0x42 SHL PUSH1 0x64 DUP3 ADD MSTORE PUSH1 0x84 ADD PUSH2 0x641 JUMP JUMPDEST PUSH2 0x79C DUP4 DUP4 PUSH2 0x1515 JUMP JUMPDEST POP POP POP JUMP JUMPDEST DUP2 PUSH1 0x1 EQ ISZERO PUSH2 0x925 JUMPI PUSH1 0xF SLOAD DUP2 LT ISZERO PUSH2 0x7CC JUMPI PUSH1 0x40 MLOAD PUSH3 0x461BCD PUSH1 0xE5 SHL DUP2 MSTORE PUSH1 0x4 ADD PUSH2 0x641 SWAP1 PUSH2 0x22E0 JUMP JUMPDEST PUSH1 0xA DUP1 SLOAD PUSH1 0x0 SWAP1 DUP2 MSTORE PUSH1 0x13 PUSH1 0x20 MSTORE PUSH1 0x40 DUP2 KECCAK256 DUP1 SLOAD PUSH1 0x1 PUSH1 0x1 PUSH1 0xA0 SHL SUB NOT AND PUSH1 0x1 PUSH1 0x1 PUSH1 0xA0 SHL SUB DUP8 AND OR SWAP1 SSTORE DUP2 SLOAD PUSH1 0x1 SWAP3 SWAP2 SWAP1 PUSH2 0x809 SWAP1 DUP5 SWAP1 PUSH2 0x2308 JUMP JUMPDEST SWAP1 SWAP2 SSTORE POP POP PUSH1 0xE SLOAD PUSH1 0x6 SLOAD PUSH1 0x40 MLOAD PUSH4 0x23B872DD PUSH1 0xE0 SHL DUP2 MSTORE PUSH1 0x1 PUSH1 0x1 PUSH1 0xA0 SHL SUB SWAP3 DUP4 AND SWAP3 PUSH4 0x23B872DD SWAP3 PUSH2 0x847 SWAP3 DUP9 SWAP3 SWAP1 SWAP2 AND SWAP1 DUP7 SWAP1 PUSH1 0x4 ADD PUSH2 0x213A JUMP JUMPDEST PUSH1 0x20 PUSH1 0x40 MLOAD DUP1 DUP4 SUB DUP2 PUSH1 0x0 DUP8 DUP1 EXTCODESIZE ISZERO DUP1 ISZERO PUSH2 0x861 JUMPI PUSH1 0x0 DUP1 REVERT JUMPDEST POP GAS CALL ISZERO DUP1 ISZERO PUSH2 0x875 JUMPI RETURNDATASIZE PUSH1 0x0 DUP1 RETURNDATACOPY RETURNDATASIZE PUSH1 0x0 REVERT JUMPDEST POP POP POP POP PUSH1 0x40 MLOAD RETURNDATASIZE PUSH1 0x1F NOT PUSH1 0x1F DUP3 ADD AND DUP3 ADD DUP1 PUSH1 0x40 MSTORE POP DUP2 ADD SWAP1 PUSH2 0x899 SWAP2 SWAP1 PUSH2 0x1FFD JUMP JUMPDEST POP PUSH1 0x1 PUSH1 0x8 PUSH1 0x0 DUP3 DUP3 SLOAD PUSH2 0x8AD SWAP2 SWAP1 PUSH2 0x2308 JUMP JUMPDEST SWAP3 POP POP DUP2 SWAP1 SSTORE POP PUSH2 0x8C0 DUP4 PUSH1 0x8 SLOAD PUSH2 0x1583 JUMP JUMPDEST PUSH1 0x8 SLOAD PUSH1 0x0 SWAP1 DUP2 MSTORE PUSH1 0x17 PUSH1 0x20 SWAP1 DUP2 MSTORE PUSH1 0x40 SWAP2 DUP3 SWAP1 KECCAK256 TIMESTAMP SWAP1 SSTORE DUP2 MLOAD PUSH1 0x1 PUSH1 0x1 PUSH1 0xA0 SHL SUB DUP7 AND DUP2 MSTORE SWAP1 DUP2 ADD DUP3 SWAP1 MSTORE PUSH1 0x6 SWAP2 DUP2 ADD SWAP2 SWAP1 SWAP2 MSTORE PUSH6 0x29B4B63B32B9 PUSH1 0xD1 SHL PUSH1 0x60 DUP3 ADD MSTORE PUSH1 0x0 DUP1 MLOAD PUSH1 0x20 PUSH2 0x2442 DUP4 CODECOPY DUP2 MLOAD SWAP2 MSTORE SWAP1 PUSH1 0x80 ADD JUMPDEST PUSH1 0x40 MLOAD DUP1 SWAP2 SUB SWAP1 LOG1 POP POP POP JUMP JUMPDEST DUP2 PUSH1 0x2 EQ ISZERO PUSH2 0xA9F JUMPI PUSH1 0x10 SLOAD DUP2 EQ PUSH2 0x94F JUMPI PUSH1 0x40 MLOAD PUSH3 0x461BCD PUSH1 0xE5 SHL DUP2 MSTORE PUSH1 0x4 ADD PUSH2 0x641 SWAP1 PUSH2 0x22E0 JUMP JUMPDEST PUSH1 0xB DUP1 SLOAD PUSH1 0x0 SWAP1 DUP2 MSTORE PUSH1 0x14 PUSH1 0x20 MSTORE PUSH1 0x40 DUP2 KECCAK256 DUP1 SLOAD PUSH1 0x1 PUSH1 0x1 PUSH1 0xA0 SHL SUB NOT AND PUSH1 0x1 PUSH1 0x1 PUSH1 0xA0 SHL SUB DUP8 AND OR SWAP1 SSTORE DUP2 SLOAD PUSH1 0x1 SWAP3 SWAP2 SWAP1 PUSH2 0x98C SWAP1 DUP5 SWAP1 PUSH2 0x2308 JUMP JUMPDEST SWAP1 SWAP2 SSTORE POP POP PUSH1 0xE SLOAD PUSH1 0x6 SLOAD PUSH1 0x40 MLOAD PUSH4 0x23B872DD PUSH1 0xE0 SHL DUP2 MSTORE PUSH1 0x1 PUSH1 0x1 PUSH1 0xA0 SHL SUB SWAP3 DUP4 AND SWAP3 PUSH4 0x23B872DD SWAP3 PUSH2 0x9CA SWAP3 DUP9 SWAP3 SWAP1 SWAP2 AND SWAP1 DUP7 SWAP1 PUSH1 0x4 ADD PUSH2 0x213A JUMP JUMPDEST PUSH1 0x20 PUSH1 0x40 MLOAD DUP1 DUP4 SUB DUP2 PUSH1 0x0 DUP8 DUP1 EXTCODESIZE ISZERO DUP1 ISZERO PUSH2 0x9E4 JUMPI PUSH1 0x0 DUP1 REVERT JUMPDEST POP GAS CALL ISZERO DUP1 ISZERO PUSH2 0x9F8 JUMPI RETURNDATASIZE PUSH1 0x0 DUP1 RETURNDATACOPY RETURNDATASIZE PUSH1 0x0 REVERT JUMPDEST POP POP POP POP PUSH1 0x40 MLOAD RETURNDATASIZE PUSH1 0x1F NOT PUSH1 0x1F DUP3 ADD AND DUP3 ADD DUP1 PUSH1 0x40 MSTORE POP DUP2 ADD SWAP1 PUSH2 0xA1C SWAP2 SWAP1 PUSH2 0x1FFD JUMP JUMPDEST POP PUSH1 0x1 PUSH1 0x8 PUSH1 0x0 DUP3 DUP3 SLOAD PUSH2 0xA30 SWAP2 SWAP1 PUSH2 0x2308 JUMP JUMPDEST SWAP3 POP POP DUP2 SWAP1 SSTORE POP PUSH2 0xA43 DUP4 PUSH1 0x8 SLOAD PUSH2 0x1583 JUMP JUMPDEST PUSH1 0x8 SLOAD PUSH1 0x0 SWAP1 DUP2 MSTORE PUSH1 0x17 PUSH1 0x20 SWAP1 DUP2 MSTORE PUSH1 0x40 SWAP2 DUP3 SWAP1 KECCAK256 TIMESTAMP SWAP1 SSTORE DUP2 MLOAD PUSH1 0x1 PUSH1 0x1 PUSH1 0xA0 SHL SUB DUP7 AND DUP2 MSTORE SWAP1 DUP2 ADD DUP3 SWAP1 MSTORE PUSH1 0x6 SWAP2 DUP2 ADD SWAP2 SWAP1 SWAP2 MSTORE PUSH6 0x23B7B63232B7 PUSH1 0xD1 SHL PUSH1 0x60 DUP3 ADD MSTORE PUSH1 0x0 DUP1 MLOAD PUSH1 0x20 PUSH2 0x2442 DUP4 CODECOPY DUP2 MLOAD SWAP2 MSTORE SWAP1 PUSH1 0x80 ADD PUSH2 0x918 JUMP JUMPDEST DUP2 PUSH1 0x3 EQ ISZERO PUSH2 0xC1A JUMPI PUSH1 0x11 SLOAD DUP2 EQ PUSH2 0xAC9 JUMPI PUSH1 0x40 MLOAD PUSH3 0x461BCD PUSH1 0xE5 SHL DUP2 MSTORE PUSH1 0x4 ADD PUSH2 0x641 SWAP1 PUSH2 0x22E0 JUMP JUMPDEST PUSH1 0xC DUP1 SLOAD PUSH1 0x0 SWAP1 DUP2 MSTORE PUSH1 0x15 PUSH1 0x20 MSTORE PUSH1 0x40 DUP2 KECCAK256 DUP1 SLOAD PUSH1 0x1 PUSH1 0x1 PUSH1 0xA0 SHL SUB NOT AND PUSH1 0x1 PUSH1 0x1 PUSH1 0xA0 SHL SUB DUP8 AND OR SWAP1 SSTORE DUP2 SLOAD PUSH1 0x1 SWAP3 SWAP2 SWAP1 PUSH2 0xB06 SWAP1 DUP5 SWAP1 PUSH2 0x2308 JUMP JUMPDEST SWAP1 SWAP2 SSTORE POP POP PUSH1 0xE SLOAD PUSH1 0x6 SLOAD PUSH1 0x40 MLOAD PUSH4 0x23B872DD PUSH1 0xE0 SHL DUP2 MSTORE PUSH1 0x1 PUSH1 0x1 PUSH1 0xA0 SHL SUB SWAP3 DUP4 AND SWAP3 PUSH4 0x23B872DD SWAP3 PUSH2 0xB44 SWAP3 DUP9 SWAP3 SWAP1 SWAP2 AND SWAP1 DUP7 SWAP1 PUSH1 0x4 ADD PUSH2 0x213A JUMP JUMPDEST PUSH1 0x20 PUSH1 0x40 MLOAD DUP1 DUP4 SUB DUP2 PUSH1 0x0 DUP8 DUP1 EXTCODESIZE ISZERO DUP1 ISZERO PUSH2 0xB5E JUMPI PUSH1 0x0 DUP1 REVERT JUMPDEST POP GAS CALL ISZERO DUP1 ISZERO PUSH2 0xB72 JUMPI RETURNDATASIZE PUSH1 0x0 DUP1 RETURNDATACOPY RETURNDATASIZE PUSH1 0x0 REVERT JUMPDEST POP POP POP POP PUSH1 0x40 MLOAD RETURNDATASIZE PUSH1 0x1F NOT PUSH1 0x1F DUP3 ADD AND DUP3 ADD DUP1 PUSH1 0x40 MSTORE POP DUP2 ADD SWAP1 PUSH2 0xB96 SWAP2 SWAP1 PUSH2 0x1FFD JUMP JUMPDEST POP PUSH1 0x1 PUSH1 0x8 PUSH1 0x0 DUP3 DUP3 SLOAD PUSH2 0xBAA SWAP2 SWAP1 PUSH2 0x2308 JUMP JUMPDEST SWAP3 POP POP DUP2 SWAP1 SSTORE POP PUSH2 0xBBD DUP4 PUSH1 0x8 SLOAD PUSH2 0x1583 JUMP JUMPDEST PUSH1 0x8 SLOAD PUSH1 0x0 SWAP1 DUP2 MSTORE PUSH1 0x17 PUSH1 0x20 SWAP1 DUP2 MSTORE PUSH1 0x40 SWAP2 DUP3 SWAP1 KECCAK256 TIMESTAMP SWAP1 SSTORE DUP2 MLOAD PUSH1 0x1 PUSH1 0x1 PUSH1 0xA0 SHL SUB DUP7 AND DUP2 MSTORE SWAP1 DUP2 ADD DUP3 SWAP1 MSTORE PUSH1 0x7 SWAP2 DUP2 ADD SWAP2 SWAP1 SWAP2 MSTORE PUSH7 0x506C6174696E6D PUSH1 0xC8 SHL PUSH1 0x60 DUP3 ADD MSTORE PUSH1 0x0 DUP1 MLOAD PUSH1 0x20 PUSH2 0x2442 DUP4 CODECOPY DUP2 MLOAD SWAP2 MSTORE SWAP1 PUSH1 0x80 ADD PUSH2 0x918 JUMP JUMPDEST DUP2 PUSH1 0x4 EQ ISZERO PUSH2 0x79C JUMPI PUSH1 0x12 SLOAD DUP2 EQ PUSH2 0xC44 JUMPI PUSH1 0x40 MLOAD PUSH3 0x461BCD PUSH1 0xE5 SHL DUP2 MSTORE PUSH1 0x4 ADD PUSH2 0x641 SWAP1 PUSH2 0x22E0 JUMP JUMPDEST PUSH1 0xD DUP1 SLOAD PUSH1 0x0 SWAP1 DUP2 MSTORE PUSH1 0x16 PUSH1 0x20 MSTORE PUSH1 0x40 DUP2 KECCAK256 DUP1 SLOAD PUSH1 0x1 PUSH1 0x1 PUSH1 0xA0 SHL SUB NOT AND PUSH1 0x1 PUSH1 0x1 PUSH1 0xA0 SHL SUB DUP8 AND OR SWAP1 SSTORE DUP2 SLOAD PUSH1 0x1 SWAP3 SWAP2 SWAP1 PUSH2 0xC81 SWAP1 DUP5 SWAP1 PUSH2 0x2308 JUMP JUMPDEST SWAP1 SWAP2 SSTORE POP POP PUSH1 0xE SLOAD PUSH1 0x6 SLOAD PUSH1 0x40 MLOAD PUSH4 0x23B872DD PUSH1 0xE0 SHL DUP2 MSTORE PUSH1 0x1 PUSH1 0x1 PUSH1 0xA0 SHL SUB SWAP3 DUP4 AND SWAP3 PUSH4 0x23B872DD SWAP3 PUSH2 0xCBF SWAP3 DUP9 SWAP3 SWAP1 SWAP2 AND SWAP1 DUP7 SWAP1 PUSH1 0x4 ADD PUSH2 0x213A JUMP JUMPDEST PUSH1 0x20 PUSH1 0x40 MLOAD DUP1 DUP4 SUB DUP2 PUSH1 0x0 DUP8 DUP1 EXTCODESIZE ISZERO DUP1 ISZERO PUSH2 0xCD9 JUMPI PUSH1 0x0 DUP1 REVERT JUMPDEST POP GAS CALL ISZERO DUP1 ISZERO PUSH2 0xCED JUMPI RETURNDATASIZE PUSH1 0x0 DUP1 RETURNDATACOPY RETURNDATASIZE PUSH1 0x0 REVERT JUMPDEST POP POP POP POP PUSH1 0x40 MLOAD RETURNDATASIZE PUSH1 0x1F NOT PUSH1 0x1F DUP3 ADD AND DUP3 ADD DUP1 PUSH1 0x40 MSTORE POP DUP2 ADD SWAP1 PUSH2 0xD11 SWAP2 SWAP1 PUSH2 0x1FFD JUMP JUMPDEST POP PUSH1 0x1 PUSH1 0x8 PUSH1 0x0 DUP3 DUP3 SLOAD PUSH2 0xD25 SWAP2 SWAP1 PUSH2 0x2308 JUMP JUMPDEST SWAP3 POP POP DUP2 SWAP1 SSTORE POP PUSH2 0xD38 DUP4 PUSH1 0x8 SLOAD PUSH2 0x1583 JUMP JUMPDEST PUSH1 0x8 SLOAD PUSH1 0x0 SWAP1 DUP2 MSTORE PUSH1 0x17 PUSH1 0x20 SWAP1 DUP2 MSTORE PUSH1 0x40 SWAP2 DUP3 SWAP1 KECCAK256 TIMESTAMP SWAP1 SSTORE DUP2 MLOAD PUSH1 0x1 PUSH1 0x1 PUSH1 0xA0 SHL SUB DUP7 AND DUP2 MSTORE SWAP1 DUP2 ADD DUP3 SWAP1 MSTORE PUSH1 0x7 SWAP2 DUP2 ADD SWAP2 SWAP1 SWAP2 MSTORE PUSH7 0x111A585B5BDB99 PUSH1 0xCA SHL PUSH1 0x60 DUP3 ADD MSTORE PUSH1 0x0 DUP1 MLOAD PUSH1 0x20 PUSH2 0x2442 DUP4 CODECOPY DUP2 MLOAD SWAP2 MSTORE SWAP1 PUSH1 0x80 ADD PUSH2 0x918 JUMP JUMPDEST PUSH1 0x6 SLOAD PUSH1 0x1 PUSH1 0x1 PUSH1 0xA0 SHL SUB AND CALLER EQ PUSH2 0xDBF JUMPI PUSH1 0x40 MLOAD PUSH3 0x461BCD PUSH1 0xE5 SHL DUP2 MSTORE PUSH1 0x4 ADD PUSH2 0x641 SWAP1 PUSH2 0x224C JUMP JUMPDEST PUSH1 0x0 DUP2 DUP2 MSTORE PUSH1 0x17 PUSH1 0x20 MSTORE PUSH1 0x40 SWAP1 KECCAK256 SLOAD PUSH2 0xDDC SWAP1 PUSH4 0x1E13380 PUSH2 0x2308 JUMP JUMPDEST TIMESTAMP GT PUSH2 0xE39 JUMPI PUSH1 0x40 MLOAD PUSH3 0x461BCD PUSH1 0xE5 SHL DUP2 MSTORE PUSH1 0x20 PUSH1 0x4 DUP3 ADD MSTORE PUSH1 0x26 PUSH1 0x24 DUP3 ADD MSTORE PUSH32 0x546F6B656E277320616765206D757374206265206F6C646572207468616E2031 PUSH1 0x44 DUP3 ADD MSTORE PUSH6 0x103CB2B0B917 PUSH1 0xD1 SHL PUSH1 0x64 DUP3 ADD MSTORE PUSH1 0x84 ADD PUSH2 0x641 JUMP JUMPDEST PUSH2 0xE42 DUP2 PUSH2 0x16A3 JUMP JUMPDEST PUSH1 0x0 PUSH1 0x17 PUSH1 0x0 PUSH1 0x8 PUSH1 0x0 DUP2 SLOAD PUSH2 0xE57 SWAP1 PUSH2 0x23AC JUMP JUMPDEST SWAP2 DUP3 SWAP1 SSTORE POP DUP2 MSTORE PUSH1 0x20 DUP2 ADD SWAP2 SWAP1 SWAP2 MSTORE PUSH1 0x40 ADD PUSH1 0x0 KECCAK256 SSTORE POP JUMP JUMPDEST PUSH2 0xE7A CALLER DUP3 PUSH2 0x172C JUMP JUMPDEST PUSH2 0xE96 JUMPI PUSH1 0x40 MLOAD PUSH3 0x461BCD PUSH1 0xE5 SHL DUP2 MSTORE PUSH1 0x4 ADD PUSH2 0x641 SWAP1 PUSH2 0x21FB JUMP JUMPDEST PUSH2 0x79C DUP4 DUP4 DUP4 PUSH2 0x17F6 JUMP JUMPDEST PUSH1 0x6 SLOAD PUSH1 0x1 PUSH1 0x1 PUSH1 0xA0 SHL SUB AND CALLER EQ PUSH2 0xECB JUMPI PUSH1 0x40 MLOAD PUSH3 0x461BCD PUSH1 0xE5 SHL DUP2 MSTORE PUSH1 0x4 ADD PUSH2 0x641 SWAP1 PUSH2 0x224C JUMP JUMPDEST PUSH2 0xED7 PUSH1 0x9 PUSH1 0x0 PUSH2 0x1CB3 JUMP JUMPDEST JUMP JUMPDEST PUSH2 0x79C DUP4 DUP4 DUP4 PUSH1 0x40 MLOAD DUP1 PUSH1 0x20 ADD PUSH1 0x40 MSTORE DUP1 PUSH1 0x0 DUP2 MSTORE POP PUSH2 0x11D5 JUMP JUMPDEST PUSH1 0x6 SLOAD PUSH1 0x1 PUSH1 0x1 PUSH1 0xA0 SHL SUB AND CALLER EQ PUSH2 0xF1E JUMPI PUSH1 0x40 MLOAD PUSH3 0x461BCD PUSH1 0xE5 SHL DUP2 MSTORE PUSH1 0x4 ADD PUSH2 0x641 SWAP1 PUSH2 0x224C JUMP JUMPDEST DUP1 MLOAD PUSH2 0xF31 SWAP1 PUSH1 0x7 SWAP1 PUSH1 0x20 DUP5 ADD SWAP1 PUSH2 0x1CD4 JUMP JUMPDEST POP POP JUMP JUMPDEST PUSH1 0x0 DUP2 DUP2 MSTORE PUSH1 0x2 PUSH1 0x20 MSTORE PUSH1 0x40 DUP2 KECCAK256 SLOAD PUSH1 0x1 PUSH1 0x1 PUSH1 0xA0 SHL SUB AND DUP1 PUSH2 0x541 JUMPI PUSH1 0x40 MLOAD PUSH3 0x461BCD PUSH1 0xE5 SHL DUP2 MSTORE PUSH1 0x20 PUSH1 0x4 DUP3 ADD MSTORE PUSH1 0x29 PUSH1 0x24 DUP3 ADD MSTORE PUSH32 0x4245503732313A206F776E657220717565727920666F72206E6F6E6578697374 PUSH1 0x44 DUP3 ADD MSTORE PUSH9 0x32B73A103A37B5B2B7 PUSH1 0xB9 SHL PUSH1 0x64 DUP3 ADD MSTORE PUSH1 0x84 ADD PUSH2 0x641 JUMP JUMPDEST PUSH1 0x6 SLOAD PUSH1 0x1 PUSH1 0x1 PUSH1 0xA0 SHL SUB AND CALLER EQ PUSH2 0xFD6 JUMPI PUSH1 0x40 MLOAD PUSH3 0x461BCD PUSH1 0xE5 SHL DUP2 MSTORE PUSH1 0x4 ADD PUSH2 0x641 SWAP1 PUSH2 0x224C JUMP JUMPDEST TIMESTAMP PUSH1 0x0 JUMPDEST PUSH1 0x9 SLOAD DUP2 LT ISZERO PUSH2 0xF31 JUMPI PUSH1 0x1 PUSH1 0x8 PUSH1 0x0 DUP3 DUP3 SLOAD PUSH2 0xFF7 SWAP2 SWAP1 PUSH2 0x2308 JUMP JUMPDEST SWAP3 POP POP DUP2 SWAP1 SSTORE POP PUSH2 0x1042 PUSH1 0x9 DUP3 DUP2 SLOAD DUP2 LT PUSH2 0x1022 JUMPI PUSH4 0x4E487B71 PUSH1 0xE0 SHL PUSH1 0x0 MSTORE PUSH1 0x32 PUSH1 0x4 MSTORE PUSH1 0x24 PUSH1 0x0 REVERT JUMPDEST PUSH1 0x0 SWAP2 DUP3 MSTORE PUSH1 0x20 SWAP1 SWAP2 KECCAK256 ADD SLOAD PUSH1 0x8 SLOAD PUSH1 0x1 PUSH1 0x1 PUSH1 0xA0 SHL SUB SWAP1 SWAP2 AND SWAP1 PUSH2 0x1583 JUMP JUMPDEST PUSH1 0x8 SLOAD PUSH1 0x0 SWAP1 DUP2 MSTORE PUSH1 0x17 PUSH1 0x20 MSTORE PUSH1 0x40 SWAP1 KECCAK256 DUP3 SWAP1 SSTORE DUP1 PUSH2 0x1060 DUP2 PUSH2 0x23AC JUMP JUMPDEST SWAP2 POP POP PUSH2 0xFDA JUMP JUMPDEST PUSH1 0x7 DUP1 SLOAD PUSH2 0x1075 SWAP1 PUSH2 0x2377 JUMP JUMPDEST DUP1 PUSH1 0x1F ADD PUSH1 0x20 DUP1 SWAP2 DIV MUL PUSH1 0x20 ADD PUSH1 0x40 MLOAD SWAP1 DUP2 ADD PUSH1 0x40 MSTORE DUP1 SWAP3 SWAP2 SWAP1 DUP2 DUP2 MSTORE PUSH1 0x20 ADD DUP3 DUP1 SLOAD PUSH2 0x10A1 SWAP1 PUSH2 0x2377 JUMP JUMPDEST DUP1 ISZERO PUSH2 0x10EE JUMPI DUP1 PUSH1 0x1F LT PUSH2 0x10C3 JUMPI PUSH2 0x100 DUP1 DUP4 SLOAD DIV MUL DUP4 MSTORE SWAP2 PUSH1 0x20 ADD SWAP2 PUSH2 0x10EE JUMP JUMPDEST DUP3 ADD SWAP2 SWAP1 PUSH1 0x0 MSTORE PUSH1 0x20 PUSH1 0x0 KECCAK256 SWAP1 JUMPDEST DUP2 SLOAD DUP2 MSTORE SWAP1 PUSH1 0x1 ADD SWAP1 PUSH1 0x20 ADD DUP1 DUP4 GT PUSH2 0x10D1 JUMPI DUP3 SWAP1 SUB PUSH1 0x1F AND DUP3 ADD SWAP2 JUMPDEST POP POP POP POP POP DUP2 JUMP JUMPDEST PUSH1 0x0 PUSH1 0x1 PUSH1 0x1 PUSH1 0xA0 SHL SUB DUP3 AND PUSH2 0x1161 JUMPI PUSH1 0x40 MLOAD PUSH3 0x461BCD PUSH1 0xE5 SHL DUP2 MSTORE PUSH1 0x20 PUSH1 0x4 DUP3 ADD MSTORE PUSH1 0x2A PUSH1 0x24 DUP3 ADD MSTORE PUSH32 0x4245503732313A2062616C616E636520717565727920666F7220746865207A65 PUSH1 0x44 DUP3 ADD MSTORE PUSH10 0x726F2061646472657373 PUSH1 0xB0 SHL PUSH1 0x64 DUP3 ADD MSTORE PUSH1 0x84 ADD PUSH2 0x641 JUMP JUMPDEST POP PUSH1 0x1 PUSH1 0x1 PUSH1 0xA0 SHL SUB AND PUSH1 0x0 SWAP1 DUP2 MSTORE PUSH1 0x3 PUSH1 0x20 MSTORE PUSH1 0x40 SWAP1 KECCAK256 SLOAD SWAP1 JUMP JUMPDEST PUSH1 0x60 PUSH1 0x1 DUP1 SLOAD PUSH2 0x556 SWAP1 PUSH2 0x2377 JUMP JUMPDEST PUSH2 0xF31 CALLER DUP4 DUP4 PUSH2 0x1980 JUMP JUMPDEST PUSH1 0x6 SLOAD PUSH1 0x1 PUSH1 0x1 PUSH1 0xA0 SHL SUB AND CALLER EQ PUSH2 0x11C1 JUMPI PUSH1 0x40 MLOAD PUSH3 0x461BCD PUSH1 0xE5 SHL DUP2 MSTORE PUSH1 0x4 ADD PUSH2 0x641 SWAP1 PUSH2 0x224C JUMP JUMPDEST PUSH1 0xF SWAP4 SWAP1 SWAP4 SSTORE PUSH1 0x10 SWAP2 SWAP1 SWAP2 SSTORE PUSH1 0x11 SSTORE PUSH1 0x12 SSTORE JUMP JUMPDEST PUSH2 0x11DF CALLER DUP4 PUSH2 0x172C JUMP JUMPDEST PUSH2 0x11FB JUMPI PUSH1 0x40 MLOAD PUSH3 0x461BCD PUSH1 0xE5 SHL DUP2 MSTORE PUSH1 0x4 ADD PUSH2 0x641 SWAP1 PUSH2 0x21FB JUMP JUMPDEST PUSH2 0x1207 DUP5 DUP5 DUP5 DUP5 PUSH2 0x1A4B JUMP JUMPDEST POP POP POP POP JUMP JUMPDEST PUSH1 0x60 PUSH2 0x1218 DUP3 PUSH2 0x14F8 JUMP JUMPDEST PUSH2 0x127C JUMPI PUSH1 0x40 MLOAD PUSH3 0x461BCD PUSH1 0xE5 SHL DUP2 MSTORE PUSH1 0x20 PUSH1 0x4 DUP3 ADD MSTORE PUSH1 0x2F PUSH1 0x24 DUP3 ADD MSTORE PUSH32 0x4245503732314D657461646174613A2055524920717565727920666F72206E6F PUSH1 0x44 DUP3 ADD MSTORE PUSH15 0x3732BC34B9BA32B73A103A37B5B2B7 PUSH1 0x89 SHL PUSH1 0x64 DUP3 ADD MSTORE PUSH1 0x84 ADD PUSH2 0x641 JUMP JUMPDEST PUSH1 0x0 PUSH2 0x1286 PUSH2 0x1A7E JUMP JUMPDEST SWAP1 POP PUSH1 0x0 DUP2 MLOAD GT PUSH2 0x12A6 JUMPI PUSH1 0x40 MLOAD DUP1 PUSH1 0x20 ADD PUSH1 0x40 MSTORE DUP1 PUSH1 0x0 DUP2 MSTORE POP PUSH2 0x12D1 JUMP JUMPDEST DUP1 PUSH2 0x12B0 DUP5 PUSH2 0x1A8D JUMP JUMPDEST PUSH1 0x40 MLOAD PUSH1 0x20 ADD PUSH2 0x12C1 SWAP3 SWAP2 SWAP1 PUSH2 0x210B JUMP JUMPDEST PUSH1 0x40 MLOAD PUSH1 0x20 DUP2 DUP4 SUB SUB DUP2 MSTORE SWAP1 PUSH1 0x40 MSTORE JUMPDEST SWAP4 SWAP3 POP POP POP JUMP JUMPDEST PUSH1 0x9 SLOAD PUSH1 0x60 SWAP1 PUSH1 0x0 SWAP1 PUSH1 0x1 PUSH1 0x1 PUSH1 0x40 SHL SUB DUP2 GT ISZERO PUSH2 0x1306 JUMPI PUSH4 0x4E487B71 PUSH1 0xE0 SHL PUSH1 0x0 MSTORE PUSH1 0x41 PUSH1 0x4 MSTORE PUSH1 0x24 PUSH1 0x0 REVERT JUMPDEST PUSH1 0x40 MLOAD SWAP1 DUP1 DUP3 MSTORE DUP1 PUSH1 0x20 MUL PUSH1 0x20 ADD DUP3 ADD PUSH1 0x40 MSTORE DUP1 ISZERO PUSH2 0x132F JUMPI DUP2 PUSH1 0x20 ADD PUSH1 0x20 DUP3 MUL DUP1 CALLDATASIZE DUP4 CALLDATACOPY ADD SWAP1 POP JUMPDEST POP SWAP1 POP PUSH1 0x0 JUMPDEST PUSH1 0x9 SLOAD DUP2 LT ISZERO PUSH2 0x13C8 JUMPI PUSH1 0x9 DUP2 DUP2 SLOAD DUP2 LT PUSH2 0x1360 JUMPI PUSH4 0x4E487B71 PUSH1 0xE0 SHL PUSH1 0x0 MSTORE PUSH1 0x32 PUSH1 0x4 MSTORE PUSH1 0x24 PUSH1 0x0 REVERT JUMPDEST SWAP1 PUSH1 0x0 MSTORE PUSH1 0x20 PUSH1 0x0 KECCAK256 ADD PUSH1 0x0 SWAP1 SLOAD SWAP1 PUSH2 0x100 EXP SWAP1 DIV PUSH1 0x1 PUSH1 0x1 PUSH1 0xA0 SHL SUB AND DUP3 DUP3 DUP2 MLOAD DUP2 LT PUSH2 0x139E JUMPI PUSH4 0x4E487B71 PUSH1 0xE0 SHL PUSH1 0x0 MSTORE PUSH1 0x32 PUSH1 0x4 MSTORE PUSH1 0x24 PUSH1 0x0 REVERT JUMPDEST PUSH1 0x1 PUSH1 0x1 PUSH1 0xA0 SHL SUB SWAP1 SWAP3 AND PUSH1 0x20 SWAP3 DUP4 MUL SWAP2 SWAP1 SWAP2 ADD SWAP1 SWAP2 ADD MSTORE DUP1 PUSH2 0x13C0 DUP2 PUSH2 0x23AC JUMP JUMPDEST SWAP2 POP POP PUSH2 0x1335 JUMP JUMPDEST POP SWAP2 SWAP1 POP JUMP JUMPDEST PUSH1 0x6 SLOAD PUSH1 0x1 PUSH1 0x1 PUSH1 0xA0 SHL SUB AND CALLER EQ PUSH2 0x13F8 JUMPI PUSH1 0x40 MLOAD PUSH3 0x461BCD PUSH1 0xE5 SHL DUP2 MSTORE PUSH1 0x4 ADD PUSH2 0x641 SWAP1 PUSH2 0x224C JUMP JUMPDEST PUSH1 0x0 JUMPDEST DUP2 DUP2 LT ISZERO PUSH2 0x79C JUMPI PUSH1 0x9 DUP4 DUP4 DUP4 DUP2 DUP2 LT PUSH2 0x1425 JUMPI PUSH4 0x4E487B71 PUSH1 0xE0 SHL PUSH1 0x0 MSTORE PUSH1 0x32 PUSH1 0x4 MSTORE PUSH1 0x24 PUSH1 0x0 REVERT JUMPDEST SWAP1 POP PUSH1 0x20 MUL ADD PUSH1 0x20 DUP2 ADD SWAP1 PUSH2 0x143A SWAP2 SWAP1 PUSH2 0x1DFE JUMP JUMPDEST DUP2 SLOAD PUSH1 0x1 DUP2 ADD DUP4 SSTORE PUSH1 0x0 SWAP3 DUP4 MSTORE PUSH1 0x20 SWAP1 SWAP3 KECCAK256 SWAP1 SWAP2 ADD DUP1 SLOAD PUSH1 0x1 PUSH1 0x1 PUSH1 0xA0 SHL SUB NOT AND PUSH1 0x1 PUSH1 0x1 PUSH1 0xA0 SHL SUB SWAP1 SWAP3 AND SWAP2 SWAP1 SWAP2 OR SWAP1 SSTORE DUP1 PUSH2 0x1476 DUP2 PUSH2 0x23AC JUMP JUMPDEST SWAP2 POP POP PUSH2 0x13FB JUMP JUMPDEST PUSH1 0x1 PUSH1 0x1 PUSH1 0xA0 SHL SUB SWAP2 DUP3 AND PUSH1 0x0 SWAP1 DUP2 MSTORE PUSH1 0x5 PUSH1 0x20 SWAP1 DUP2 MSTORE PUSH1 0x40 DUP1 DUP4 KECCAK256 SWAP4 SWAP1 SWAP5 AND DUP3 MSTORE SWAP2 SWAP1 SWAP2 MSTORE KECCAK256 SLOAD PUSH1 0xFF AND SWAP1 JUMP JUMPDEST PUSH1 0x6 SLOAD PUSH1 0x1 PUSH1 0x1 PUSH1 0xA0 SHL SUB AND CALLER EQ PUSH2 0x14D6 JUMPI PUSH1 0x40 MLOAD PUSH3 0x461BCD PUSH1 0xE5 SHL DUP2 MSTORE PUSH1 0x4 ADD PUSH2 0x641 SWAP1 PUSH2 0x224C JUMP JUMPDEST PUSH1 0x6 DUP1 SLOAD PUSH1 0x1 PUSH1 0x1 PUSH1 0xA0 SHL SUB NOT AND PUSH1 0x1 PUSH1 0x1 PUSH1 0xA0 SHL SUB SWAP3 SWAP1 SWAP3 AND SWAP2 SWAP1 SWAP2 OR SWAP1 SSTORE JUMP JUMPDEST PUSH1 0x0 SWAP1 DUP2 MSTORE PUSH1 0x2 PUSH1 0x20 MSTORE PUSH1 0x40 SWAP1 KECCAK256 SLOAD PUSH1 0x1 PUSH1 0x1 PUSH1 0xA0 SHL SUB AND ISZERO ISZERO SWAP1 JUMP JUMPDEST PUSH1 0x0 DUP2 DUP2 MSTORE PUSH1 0x4 PUSH1 0x20 MSTORE PUSH1 0x40 SWAP1 KECCAK256 DUP1 SLOAD PUSH1 0x1 PUSH1 0x1 PUSH1 0xA0 SHL SUB NOT AND PUSH1 0x1 PUSH1 0x1 PUSH1 0xA0 SHL SUB DUP5 AND SWAP1 DUP2 OR SWAP1 SWAP2 SSTORE DUP2 SWAP1 PUSH2 0x154A DUP3 PUSH2 0xF35 JUMP JUMPDEST PUSH1 0x1 PUSH1 0x1 PUSH1 0xA0 SHL SUB AND PUSH32 0x8C5BE1E5EBEC7D5BD14F71427D1E84F3DD0314C0F7B2291E5B200AC8C7C3B925 PUSH1 0x40 MLOAD PUSH1 0x40 MLOAD DUP1 SWAP2 SUB SWAP1 LOG4 POP POP JUMP JUMPDEST PUSH1 0x1 PUSH1 0x1 PUSH1 0xA0 SHL SUB DUP3 AND PUSH2 0x15D9 JUMPI PUSH1 0x40 MLOAD PUSH3 0x461BCD PUSH1 0xE5 SHL DUP2 MSTORE PUSH1 0x20 PUSH1 0x4 DUP3 ADD DUP2 SWAP1 MSTORE PUSH1 0x24 DUP3 ADD MSTORE PUSH32 0x4245503732313A206D696E7420746F20746865207A65726F2061646472657373 PUSH1 0x44 DUP3 ADD MSTORE PUSH1 0x64 ADD PUSH2 0x641 JUMP JUMPDEST PUSH2 0x15E2 DUP2 PUSH2 0x14F8 JUMP JUMPDEST ISZERO PUSH2 0x162E JUMPI PUSH1 0x40 MLOAD PUSH3 0x461BCD PUSH1 0xE5 SHL DUP2 MSTORE PUSH1 0x20 PUSH1 0x4 DUP3 ADD MSTORE PUSH1 0x1C PUSH1 0x24 DUP3 ADD MSTORE PUSH28 0x1091540DCC8C4E881D1BDAD95B88185B1C9958591E481B5A5B9D1959 PUSH1 0x22 SHL PUSH1 0x44 DUP3 ADD MSTORE PUSH1 0x64 ADD PUSH2 0x641 JUMP JUMPDEST PUSH1 0x1 PUSH1 0x1 PUSH1 0xA0 SHL SUB DUP3 AND PUSH1 0x0 SWAP1 DUP2 MSTORE PUSH1 0x3 PUSH1 0x20 MSTORE PUSH1 0x40 DUP2 KECCAK256 DUP1 SLOAD PUSH1 0x1 SWAP3 SWAP1 PUSH2 0x1657 SWAP1 DUP5 SWAP1 PUSH2 0x2308 JUMP JUMPDEST SWAP1 SWAP2 SSTORE POP POP PUSH1 0x0 DUP2 DUP2 MSTORE PUSH1 0x2 PUSH1 0x20 MSTORE PUSH1 0x40 DUP1 DUP3 KECCAK256 DUP1 SLOAD PUSH1 0x1 PUSH1 0x1 PUSH1 0xA0 SHL SUB NOT AND PUSH1 0x1 PUSH1 0x1 PUSH1 0xA0 SHL SUB DUP7 AND SWAP1 DUP2 OR SWAP1 SWAP2 SSTORE SWAP1 MLOAD DUP4 SWAP3 SWAP1 PUSH1 0x0 DUP1 MLOAD PUSH1 0x20 PUSH2 0x2462 DUP4 CODECOPY DUP2 MLOAD SWAP2 MSTORE SWAP1 DUP3 SWAP1 LOG4 POP POP JUMP JUMPDEST PUSH1 0x0 PUSH2 0x16AE DUP3 PUSH2 0xF35 JUMP JUMPDEST SWAP1 POP PUSH2 0x16BB PUSH1 0x0 DUP4 PUSH2 0x1515 JUMP JUMPDEST PUSH1 0x1 PUSH1 0x1 PUSH1 0xA0 SHL SUB DUP2 AND PUSH1 0x0 SWAP1 DUP2 MSTORE PUSH1 0x3 PUSH1 0x20 MSTORE PUSH1 0x40 DUP2 KECCAK256 DUP1 SLOAD PUSH1 0x1 SWAP3 SWAP1 PUSH2 0x16E4 SWAP1 DUP5 SWAP1 PUSH2 0x2334 JUMP JUMPDEST SWAP1 SWAP2 SSTORE POP POP PUSH1 0x0 DUP3 DUP2 MSTORE PUSH1 0x2 PUSH1 0x20 MSTORE PUSH1 0x40 DUP1 DUP3 KECCAK256 DUP1 SLOAD PUSH1 0x1 PUSH1 0x1 PUSH1 0xA0 SHL SUB NOT AND SWAP1 SSTORE MLOAD DUP4 SWAP2 SWAP1 PUSH1 0x1 PUSH1 0x1 PUSH1 0xA0 SHL SUB DUP5 AND SWAP1 PUSH1 0x0 DUP1 MLOAD PUSH1 0x20 PUSH2 0x2462 DUP4 CODECOPY DUP2 MLOAD SWAP2 MSTORE SWAP1 DUP4 SWAP1 LOG4 POP POP JUMP JUMPDEST PUSH1 0x0 PUSH2 0x1737 DUP3 PUSH2 0x14F8 JUMP JUMPDEST PUSH2 0x1798 JUMPI PUSH1 0x40 MLOAD PUSH3 0x461BCD PUSH1 0xE5 SHL DUP2 MSTORE PUSH1 0x20 PUSH1 0x4 DUP3 ADD MSTORE PUSH1 0x2C PUSH1 0x24 DUP3 ADD MSTORE PUSH32 0x4245503732313A206F70657261746F7220717565727920666F72206E6F6E6578 PUSH1 0x44 DUP3 ADD MSTORE PUSH12 0x34B9BA32B73A103A37B5B2B7 PUSH1 0xA1 SHL PUSH1 0x64 DUP3 ADD MSTORE PUSH1 0x84 ADD PUSH2 0x641 JUMP JUMPDEST PUSH1 0x0 PUSH2 0x17A3 DUP4 PUSH2 0xF35 JUMP JUMPDEST SWAP1 POP DUP1 PUSH1 0x1 PUSH1 0x1 PUSH1 0xA0 SHL SUB AND DUP5 PUSH1 0x1 PUSH1 0x1 PUSH1 0xA0 SHL SUB AND EQ DUP1 PUSH2 0x17DE JUMPI POP DUP4 PUSH1 0x1 PUSH1 0x1 PUSH1 0xA0 SHL SUB AND PUSH2 0x17D3 DUP5 PUSH2 0x5D9 JUMP JUMPDEST PUSH1 0x1 PUSH1 0x1 PUSH1 0xA0 SHL SUB AND EQ JUMPDEST DUP1 PUSH2 0x17EE JUMPI POP PUSH2 0x17EE DUP2 DUP6 PUSH2 0x147E JUMP JUMPDEST SWAP5 SWAP4 POP POP POP POP JUMP JUMPDEST DUP3 PUSH1 0x1 PUSH1 0x1 PUSH1 0xA0 SHL SUB AND PUSH2 0x1809 DUP3 PUSH2 0xF35 JUMP JUMPDEST PUSH1 0x1 PUSH1 0x1 PUSH1 0xA0 SHL SUB AND EQ PUSH2 0x186D JUMPI PUSH1 0x40 MLOAD PUSH3 0x461BCD PUSH1 0xE5 SHL DUP2 MSTORE PUSH1 0x20 PUSH1 0x4 DUP3 ADD MSTORE PUSH1 0x25 PUSH1 0x24 DUP3 ADD MSTORE PUSH32 0x4245503732313A207472616E736665722066726F6D20696E636F727265637420 PUSH1 0x44 DUP3 ADD MSTORE PUSH5 0x37BBB732B9 PUSH1 0xD9 SHL PUSH1 0x64 DUP3 ADD MSTORE PUSH1 0x84 ADD PUSH2 0x641 JUMP JUMPDEST PUSH1 0x1 PUSH1 0x1 PUSH1 0xA0 SHL SUB DUP3 AND PUSH2 0x18CF JUMPI PUSH1 0x40 MLOAD PUSH3 0x461BCD PUSH1 0xE5 SHL DUP2 MSTORE PUSH1 0x20 PUSH1 0x4 DUP3 ADD MSTORE PUSH1 0x24 DUP1 DUP3 ADD MSTORE PUSH32 0x4245503732313A207472616E7366657220746F20746865207A65726F20616464 PUSH1 0x44 DUP3 ADD MSTORE PUSH4 0x72657373 PUSH1 0xE0 SHL PUSH1 0x64 DUP3 ADD MSTORE PUSH1 0x84 ADD PUSH2 0x641 JUMP JUMPDEST PUSH2 0x18DA PUSH1 0x0 DUP3 PUSH2 0x1515 JUMP JUMPDEST PUSH1 0x1 PUSH1 0x1 PUSH1 0xA0 SHL SUB DUP4 AND PUSH1 0x0 SWAP1 DUP2 MSTORE PUSH1 0x3 PUSH1 0x20 MSTORE PUSH1 0x40 DUP2 KECCAK256 DUP1 SLOAD PUSH1 0x1 SWAP3 SWAP1 PUSH2 0x1903 SWAP1 DUP5 SWAP1 PUSH2 0x2334 JUMP JUMPDEST SWAP1 SWAP2 SSTORE POP POP PUSH1 0x1 PUSH1 0x1 PUSH1 0xA0 SHL SUB DUP3 AND PUSH1 0x0 SWAP1 DUP2 MSTORE PUSH1 0x3 PUSH1 0x20 MSTORE PUSH1 0x40 DUP2 KECCAK256 DUP1 SLOAD PUSH1 0x1 SWAP3 SWAP1 PUSH2 0x1931 SWAP1 DUP5 SWAP1 PUSH2 0x2308 JUMP JUMPDEST SWAP1 SWAP2 SSTORE POP POP PUSH1 0x0 DUP2 DUP2 MSTORE PUSH1 0x2 PUSH1 0x20 MSTORE PUSH1 0x40 DUP1 DUP3 KECCAK256 DUP1 SLOAD PUSH1 0x1 PUSH1 0x1 PUSH1 0xA0 SHL SUB NOT AND PUSH1 0x1 PUSH1 0x1 PUSH1 0xA0 SHL SUB DUP7 DUP2 AND SWAP2 DUP3 OR SWAP1 SWAP3 SSTORE SWAP2 MLOAD DUP5 SWAP4 SWAP2 DUP8 AND SWAP2 PUSH1 0x0 DUP1 MLOAD PUSH1 0x20 PUSH2 0x2462 DUP4 CODECOPY DUP2 MLOAD SWAP2 MSTORE SWAP2 LOG4 POP POP POP JUMP JUMPDEST DUP2 PUSH1 0x1 PUSH1 0x1 PUSH1 0xA0 SHL SUB AND DUP4 PUSH1 0x1 PUSH1 0x1 PUSH1 0xA0 SHL SUB AND EQ ISZERO PUSH2 0x19DE JUMPI PUSH1 0x40 MLOAD PUSH3 0x461BCD PUSH1 0xE5 SHL DUP2 MSTORE PUSH1 0x20 PUSH1 0x4 DUP3 ADD MSTORE PUSH1 0x19 PUSH1 0x24 DUP3 ADD MSTORE PUSH25 0x2122A81B99189D1030B8383937BB32903A379031B0B63632B9 PUSH1 0x39 SHL PUSH1 0x44 DUP3 ADD MSTORE PUSH1 0x64 ADD PUSH2 0x641 JUMP JUMPDEST PUSH1 0x1 PUSH1 0x1 PUSH1 0xA0 SHL SUB DUP4 DUP2 AND PUSH1 0x0 DUP2 DUP2 MSTORE PUSH1 0x5 PUSH1 0x20 SWAP1 DUP2 MSTORE PUSH1 0x40 DUP1 DUP4 KECCAK256 SWAP5 DUP8 AND DUP1 DUP5 MSTORE SWAP5 DUP3 MSTORE SWAP2 DUP3 SWAP1 KECCAK256 DUP1 SLOAD PUSH1 0xFF NOT AND DUP7 ISZERO ISZERO SWAP1 DUP2 OR SWAP1 SWAP2 SSTORE SWAP2 MLOAD SWAP2 DUP3 MSTORE PUSH32 0x17307EAB39AB6107E8899845AD3D59BD9653F200F220920489CA2B5937696C31 SWAP2 ADD PUSH1 0x40 MLOAD DUP1 SWAP2 SUB SWAP1 LOG3 POP POP POP JUMP JUMPDEST PUSH2 0x1A56 DUP5 DUP5 DUP5 PUSH2 0x17F6 JUMP JUMPDEST PUSH2 0x1A62 DUP5 DUP5 DUP5 DUP5 PUSH2 0x1BA6 JUMP JUMPDEST PUSH2 0x1207 JUMPI PUSH1 0x40 MLOAD PUSH3 0x461BCD PUSH1 0xE5 SHL DUP2 MSTORE PUSH1 0x4 ADD PUSH2 0x641 SWAP1 PUSH2 0x228E JUMP JUMPDEST PUSH1 0x60 PUSH1 0x7 DUP1 SLOAD PUSH2 0x556 SWAP1 PUSH2 0x2377 JUMP JUMPDEST PUSH1 0x60 DUP2 PUSH2 0x1AB1 JUMPI POP POP PUSH1 0x40 DUP1 MLOAD DUP1 DUP3 ADD SWAP1 SWAP2 MSTORE PUSH1 0x1 DUP2 MSTORE PUSH1 0x3 PUSH1 0xFC SHL PUSH1 0x20 DUP3 ADD MSTORE SWAP1 JUMP JUMPDEST DUP2 PUSH1 0x0 JUMPDEST DUP2 ISZERO PUSH2 0x1ADB JUMPI DUP1 PUSH2 0x1AC5 DUP2 PUSH2 0x23AC JUMP JUMPDEST SWAP2 POP PUSH2 0x1AD4 SWAP1 POP PUSH1 0xA DUP4 PUSH2 0x2320 JUMP JUMPDEST SWAP2 POP PUSH2 0x1AB5 JUMP JUMPDEST PUSH1 0x0 DUP2 PUSH1 0x1 PUSH1 0x1 PUSH1 0x40 SHL SUB DUP2 GT ISZERO PUSH2 0x1B03 JUMPI PUSH4 0x4E487B71 PUSH1 0xE0 SHL PUSH1 0x0 MSTORE PUSH1 0x41 PUSH1 0x4 MSTORE PUSH1 0x24 PUSH1 0x0 REVERT JUMPDEST PUSH1 0x40 MLOAD SWAP1 DUP1 DUP3 MSTORE DUP1 PUSH1 0x1F ADD PUSH1 0x1F NOT AND PUSH1 0x20 ADD DUP3 ADD PUSH1 0x40 MSTORE DUP1 ISZERO PUSH2 0x1B2D JUMPI PUSH1 0x20 DUP3 ADD DUP2 DUP1 CALLDATASIZE DUP4 CALLDATACOPY ADD SWAP1 POP JUMPDEST POP SWAP1 POP JUMPDEST DUP5 ISZERO PUSH2 0x17EE JUMPI PUSH2 0x1B42 PUSH1 0x1 DUP4 PUSH2 0x2334 JUMP JUMPDEST SWAP2 POP PUSH2 0x1B4F PUSH1 0xA DUP7 PUSH2 0x23C7 JUMP JUMPDEST PUSH2 0x1B5A SWAP1 PUSH1 0x30 PUSH2 0x2308 JUMP JUMPDEST PUSH1 0xF8 SHL DUP2 DUP4 DUP2 MLOAD DUP2 LT PUSH2 0x1B7D JUMPI PUSH4 0x4E487B71 PUSH1 0xE0 SHL PUSH1 0x0 MSTORE PUSH1 0x32 PUSH1 0x4 MSTORE PUSH1 0x24 PUSH1 0x0 REVERT JUMPDEST PUSH1 0x20 ADD ADD SWAP1 PUSH1 0x1 PUSH1 0x1 PUSH1 0xF8 SHL SUB NOT AND SWAP1 DUP2 PUSH1 0x0 BYTE SWAP1 MSTORE8 POP PUSH2 0x1B9F PUSH1 0xA DUP7 PUSH2 0x2320 JUMP JUMPDEST SWAP5 POP PUSH2 0x1B31 JUMP JUMPDEST PUSH1 0x0 PUSH1 0x1 PUSH1 0x1 PUSH1 0xA0 SHL SUB DUP5 AND EXTCODESIZE ISZERO PUSH2 0x1CA8 JUMPI PUSH1 0x40 MLOAD PUSH4 0x83305F9 PUSH1 0xE3 SHL DUP2 MSTORE PUSH1 0x1 PUSH1 0x1 PUSH1 0xA0 SHL SUB DUP6 AND SWAP1 PUSH4 0x41982FC8 SWAP1 PUSH2 0x1BEA SWAP1 CALLER SWAP1 DUP10 SWAP1 DUP9 SWAP1 DUP9 SWAP1 PUSH1 0x4 ADD PUSH2 0x215E JUMP JUMPDEST PUSH1 0x20 PUSH1 0x40 MLOAD DUP1 DUP4 SUB DUP2 PUSH1 0x0 DUP8 DUP1 EXTCODESIZE ISZERO DUP1 ISZERO PUSH2 0x1C04 JUMPI PUSH1 0x0 DUP1 REVERT JUMPDEST POP GAS CALL SWAP3 POP POP POP DUP1 ISZERO PUSH2 0x1C34 JUMPI POP PUSH1 0x40 DUP1 MLOAD PUSH1 0x1F RETURNDATASIZE SWAP1 DUP2 ADD PUSH1 0x1F NOT AND DUP3 ADD SWAP1 SWAP3 MSTORE PUSH2 0x1C31 SWAP2 DUP2 ADD SWAP1 PUSH2 0x2035 JUMP JUMPDEST PUSH1 0x1 JUMPDEST PUSH2 0x1C8E JUMPI RETURNDATASIZE DUP1 DUP1 ISZERO PUSH2 0x1C62 JUMPI PUSH1 0x40 MLOAD SWAP2 POP PUSH1 0x1F NOT PUSH1 0x3F RETURNDATASIZE ADD AND DUP3 ADD PUSH1 0x40 MSTORE RETURNDATASIZE DUP3 MSTORE RETURNDATASIZE PUSH1 0x0 PUSH1 0x20 DUP5 ADD RETURNDATACOPY PUSH2 0x1C67 JUMP JUMPDEST PUSH1 0x60 SWAP2 POP JUMPDEST POP DUP1 MLOAD PUSH2 0x1C86 JUMPI PUSH1 0x40 MLOAD PUSH3 0x461BCD PUSH1 0xE5 SHL DUP2 MSTORE PUSH1 0x4 ADD PUSH2 0x641 SWAP1 PUSH2 0x228E JUMP JUMPDEST DUP1 MLOAD DUP2 PUSH1 0x20 ADD REVERT JUMPDEST PUSH1 0x1 PUSH1 0x1 PUSH1 0xE0 SHL SUB NOT AND PUSH4 0x83305F9 PUSH1 0xE3 SHL EQ SWAP1 POP PUSH2 0x17EE JUMP JUMPDEST POP PUSH1 0x1 SWAP5 SWAP4 POP POP POP POP JUMP JUMPDEST POP DUP1 SLOAD PUSH1 0x0 DUP3 SSTORE SWAP1 PUSH1 0x0 MSTORE PUSH1 0x20 PUSH1 0x0 KECCAK256 SWAP1 DUP2 ADD SWAP1 PUSH2 0x1CD1 SWAP2 SWAP1 PUSH2 0x1D58 JUMP JUMPDEST POP JUMP JUMPDEST DUP3 DUP1 SLOAD PUSH2 0x1CE0 SWAP1 PUSH2 0x2377 JUMP JUMPDEST SWAP1 PUSH1 0x0 MSTORE PUSH1 0x20 PUSH1 0x0 KECCAK256 SWAP1 PUSH1 0x1F ADD PUSH1 0x20 SWAP1 DIV DUP2 ADD SWAP3 DUP3 PUSH2 0x1D02 JUMPI PUSH1 0x0 DUP6 SSTORE PUSH2 0x1D48 JUMP JUMPDEST DUP3 PUSH1 0x1F LT PUSH2 0x1D1B JUMPI DUP1 MLOAD PUSH1 0xFF NOT AND DUP4 DUP1 ADD OR DUP6 SSTORE PUSH2 0x1D48 JUMP JUMPDEST DUP3 DUP1 ADD PUSH1 0x1 ADD DUP6 SSTORE DUP3 ISZERO PUSH2 0x1D48 JUMPI SWAP2 DUP3 ADD JUMPDEST DUP3 DUP2 GT ISZERO PUSH2 0x1D48 JUMPI DUP3 MLOAD DUP3 SSTORE SWAP2 PUSH1 0x20 ADD SWAP2 SWAP1 PUSH1 0x1 ADD SWAP1 PUSH2 0x1D2D JUMP JUMPDEST POP PUSH2 0x1D54 SWAP3 SWAP2 POP PUSH2 0x1D58 JUMP JUMPDEST POP SWAP1 JUMP JUMPDEST JUMPDEST DUP1 DUP3 GT ISZERO PUSH2 0x1D54 JUMPI PUSH1 0x0 DUP2 SSTORE PUSH1 0x1 ADD PUSH2 0x1D59 JUMP JUMPDEST PUSH1 0x0 PUSH1 0x1 PUSH1 0x1 PUSH1 0x40 SHL SUB DUP1 DUP5 GT ISZERO PUSH2 0x1D87 JUMPI PUSH2 0x1D87 PUSH2 0x2407 JUMP JUMPDEST PUSH1 0x40 MLOAD PUSH1 0x1F DUP6 ADD PUSH1 0x1F NOT SWAP1 DUP2 AND PUSH1 0x3F ADD AND DUP2 ADD SWAP1 DUP3 DUP3 GT DUP2 DUP4 LT OR ISZERO PUSH2 0x1DAF JUMPI PUSH2 0x1DAF PUSH2 0x2407 JUMP JUMPDEST DUP2 PUSH1 0x40 MSTORE DUP1 SWAP4 POP DUP6 DUP2 MSTORE DUP7 DUP7 DUP7 ADD GT ISZERO PUSH2 0x1DC8 JUMPI PUSH1 0x0 DUP1 REVERT JUMPDEST DUP6 DUP6 PUSH1 0x20 DUP4 ADD CALLDATACOPY PUSH1 0x0 PUSH1 0x20 DUP8 DUP4 ADD ADD MSTORE POP POP POP SWAP4 SWAP3 POP POP POP JUMP JUMPDEST DUP1 CALLDATALOAD PUSH1 0x1 PUSH1 0x1 PUSH1 0xA0 SHL SUB DUP2 AND DUP2 EQ PUSH2 0x1DF9 JUMPI PUSH1 0x0 DUP1 REVERT JUMPDEST SWAP2 SWAP1 POP JUMP JUMPDEST PUSH1 0x0 PUSH1 0x20 DUP3 DUP5 SUB SLT ISZERO PUSH2 0x1E0F JUMPI DUP1 DUP2 REVERT JUMPDEST PUSH2 0x12D1 DUP3 PUSH2 0x1DE2 JUMP JUMPDEST PUSH1 0x0 DUP1 PUSH1 0x40 DUP4 DUP6 SUB SLT ISZERO PUSH2 0x1E2A JUMPI DUP1 DUP2 REVERT JUMPDEST PUSH2 0x1E33 DUP4 PUSH2 0x1DE2 JUMP JUMPDEST SWAP2 POP PUSH2 0x1E41 PUSH1 0x20 DUP5 ADD PUSH2 0x1DE2 JUMP JUMPDEST SWAP1 POP SWAP3 POP SWAP3 SWAP1 POP JUMP JUMPDEST PUSH1 0x0 DUP1 PUSH1 0x0 PUSH1 0x60 DUP5 DUP7 SUB SLT ISZERO PUSH2 0x1E5E JUMPI DUP1 DUP2 REVERT JUMPDEST PUSH2 0x1E67 DUP5 PUSH2 0x1DE2 JUMP JUMPDEST SWAP3 POP PUSH2 0x1E75 PUSH1 0x20 DUP6 ADD PUSH2 0x1DE2 JUMP JUMPDEST SWAP2 POP PUSH1 0x40 DUP5 ADD CALLDATALOAD SWAP1 POP SWAP3 POP SWAP3 POP SWAP3 JUMP JUMPDEST PUSH1 0x0 DUP1 PUSH1 0x0 DUP1 PUSH1 0x80 DUP6 DUP8 SUB SLT ISZERO PUSH2 0x1E9A JUMPI DUP1 DUP2 REVERT JUMPDEST PUSH2 0x1EA3 DUP6 PUSH2 0x1DE2 JUMP JUMPDEST SWAP4 POP PUSH2 0x1EB1 PUSH1 0x20 DUP7 ADD PUSH2 0x1DE2 JUMP JUMPDEST SWAP3 POP PUSH1 0x40 DUP6 ADD CALLDATALOAD SWAP2 POP PUSH1 0x60 DUP6 ADD CALLDATALOAD PUSH1 0x1 PUSH1 0x1 PUSH1 0x40 SHL SUB DUP2 GT ISZERO PUSH2 0x1ED2 JUMPI DUP2 DUP3 REVERT JUMPDEST DUP6 ADD PUSH1 0x1F DUP2 ADD DUP8 SGT PUSH2 0x1EE2 JUMPI DUP2 DUP3 REVERT JUMPDEST PUSH2 0x1EF1 DUP8 DUP3 CALLDATALOAD PUSH1 0x20 DUP5 ADD PUSH2 0x1D6D JUMP JUMPDEST SWAP2 POP POP SWAP3 SWAP6 SWAP2 SWAP5 POP SWAP3 POP JUMP JUMPDEST PUSH1 0x0 DUP1 PUSH1 0x40 DUP4 DUP6 SUB SLT ISZERO PUSH2 0x1F0F JUMPI DUP2 DUP3 REVERT JUMPDEST PUSH2 0x1F18 DUP4 PUSH2 0x1DE2 JUMP JUMPDEST SWAP2 POP PUSH1 0x20 DUP4 ADD CALLDATALOAD PUSH2 0x1F28 DUP2 PUSH2 0x241D JUMP JUMPDEST DUP1 SWAP2 POP POP SWAP3 POP SWAP3 SWAP1 POP JUMP JUMPDEST PUSH1 0x0 DUP1 PUSH1 0x40 DUP4 DUP6 SUB SLT ISZERO PUSH2 0x1F45 JUMPI DUP2 DUP3 REVERT JUMPDEST PUSH2 0x1F4E DUP4 PUSH2 0x1DE2 JUMP JUMPDEST SWAP5 PUSH1 0x20 SWAP4 SWAP1 SWAP4 ADD CALLDATALOAD SWAP4 POP POP POP JUMP JUMPDEST PUSH1 0x0 DUP1 PUSH1 0x0 PUSH1 0x60 DUP5 DUP7 SUB SLT ISZERO PUSH2 0x1F70 JUMPI DUP3 DUP4 REVERT JUMPDEST PUSH2 0x1F79 DUP5 PUSH2 0x1DE2 JUMP JUMPDEST SWAP6 PUSH1 0x20 DUP6 ADD CALLDATALOAD SWAP6 POP PUSH1 0x40 SWAP1 SWAP5 ADD CALLDATALOAD SWAP4 SWAP3 POP POP POP JUMP JUMPDEST PUSH1 0x0 DUP1 PUSH1 0x20 DUP4 DUP6 SUB SLT ISZERO PUSH2 0x1FA0 JUMPI DUP2 DUP3 REVERT JUMPDEST DUP3 CALLDATALOAD PUSH1 0x1 PUSH1 0x1 PUSH1 0x40 SHL SUB DUP1 DUP3 GT ISZERO PUSH2 0x1FB6 JUMPI DUP4 DUP5 REVERT JUMPDEST DUP2 DUP6 ADD SWAP2 POP DUP6 PUSH1 0x1F DUP4 ADD SLT PUSH2 0x1FC9 JUMPI DUP4 DUP5 REVERT JUMPDEST DUP2 CALLDATALOAD DUP2 DUP2 GT ISZERO PUSH2 0x1FD7 JUMPI DUP5 DUP6 REVERT JUMPDEST DUP7 PUSH1 0x20 DUP3 PUSH1 0x5 SHL DUP6 ADD ADD GT ISZERO PUSH2 0x1FEB JUMPI DUP5 DUP6 REVERT JUMPDEST PUSH1 0x20 SWAP3 SWAP1 SWAP3 ADD SWAP7 SWAP2 SWAP6 POP SWAP1 SWAP4 POP POP POP POP JUMP JUMPDEST PUSH1 0x0 PUSH1 0x20 DUP3 DUP5 SUB SLT ISZERO PUSH2 0x200E JUMPI DUP1 DUP2 REVERT JUMPDEST DUP2 MLOAD PUSH2 0x12D1 DUP2 PUSH2 0x241D JUMP JUMPDEST PUSH1 0x0 PUSH1 0x20 DUP3 DUP5 SUB SLT ISZERO PUSH2 0x202A JUMPI DUP1 DUP2 REVERT JUMPDEST DUP2 CALLDATALOAD PUSH2 0x12D1 DUP2 PUSH2 0x242B JUMP JUMPDEST PUSH1 0x0 PUSH1 0x20 DUP3 DUP5 SUB SLT ISZERO PUSH2 0x2046 JUMPI DUP1 DUP2 REVERT JUMPDEST DUP2 MLOAD PUSH2 0x12D1 DUP2 PUSH2 0x242B JUMP JUMPDEST PUSH1 0x0 PUSH1 0x20 DUP3 DUP5 SUB SLT ISZERO PUSH2 0x2062 JUMPI DUP1 DUP2 REVERT JUMPDEST DUP2 CALLDATALOAD PUSH1 0x1 PUSH1 0x1 PUSH1 0x40 SHL SUB DUP2 GT ISZERO PUSH2 0x2077 JUMPI DUP2 DUP3 REVERT JUMPDEST DUP3 ADD PUSH1 0x1F DUP2 ADD DUP5 SGT PUSH2 0x2087 JUMPI DUP2 DUP3 REVERT JUMPDEST PUSH2 0x17EE DUP5 DUP3 CALLDATALOAD PUSH1 0x20 DUP5 ADD PUSH2 0x1D6D JUMP JUMPDEST PUSH1 0x0 PUSH1 0x20 DUP3 DUP5 SUB SLT ISZERO PUSH2 0x20A7 JUMPI DUP1 DUP2 REVERT JUMPDEST POP CALLDATALOAD SWAP2 SWAP1 POP JUMP JUMPDEST PUSH1 0x0 DUP1 PUSH1 0x0 DUP1 PUSH1 0x80 DUP6 DUP8 SUB SLT ISZERO PUSH2 0x20C3 JUMPI DUP2 DUP3 REVERT JUMPDEST POP POP DUP3 CALLDATALOAD SWAP5 PUSH1 0x20 DUP5 ADD CALLDATALOAD SWAP5 POP PUSH1 0x40 DUP5 ADD CALLDATALOAD SWAP4 PUSH1 0x60 ADD CALLDATALOAD SWAP3 POP SWAP1 POP JUMP JUMPDEST PUSH1 0x0 DUP2 MLOAD DUP1 DUP5 MSTORE PUSH2 0x20F7 DUP2 PUSH1 0x20 DUP7 ADD PUSH1 0x20 DUP7 ADD PUSH2 0x234B JUMP JUMPDEST PUSH1 0x1F ADD PUSH1 0x1F NOT AND SWAP3 SWAP1 SWAP3 ADD PUSH1 0x20 ADD SWAP3 SWAP2 POP POP JUMP JUMPDEST PUSH1 0x0 DUP4 MLOAD PUSH2 0x211D DUP2 DUP5 PUSH1 0x20 DUP9 ADD PUSH2 0x234B JUMP JUMPDEST DUP4 MLOAD SWAP1 DUP4 ADD SWAP1 PUSH2 0x2131 DUP2 DUP4 PUSH1 0x20 DUP9 ADD PUSH2 0x234B JUMP JUMPDEST ADD SWAP5 SWAP4 POP POP POP POP JUMP JUMPDEST PUSH1 0x1 PUSH1 0x1 PUSH1 0xA0 SHL SUB SWAP4 DUP5 AND DUP2 MSTORE SWAP2 SWAP1 SWAP3 AND PUSH1 0x20 DUP3 ADD MSTORE PUSH1 0x40 DUP2 ADD SWAP2 SWAP1 SWAP2 MSTORE PUSH1 0x60 ADD SWAP1 JUMP JUMPDEST PUSH1 0x1 PUSH1 0x1 PUSH1 0xA0 SHL SUB DUP6 DUP2 AND DUP3 MSTORE DUP5 AND PUSH1 0x20 DUP3 ADD MSTORE PUSH1 0x40 DUP2 ADD DUP4 SWAP1 MSTORE PUSH1 0x80 PUSH1 0x60 DUP3 ADD DUP2 SWAP1 MSTORE PUSH1 0x0 SWAP1 PUSH2 0x2191 SWAP1 DUP4 ADD DUP5 PUSH2 0x20DF JUMP JUMPDEST SWAP7 SWAP6 POP POP POP POP POP POP JUMP JUMPDEST PUSH1 0x20 DUP1 DUP3 MSTORE DUP3 MLOAD DUP3 DUP3 ADD DUP2 SWAP1 MSTORE PUSH1 0x0 SWAP2 SWAP1 DUP5 DUP3 ADD SWAP1 PUSH1 0x40 DUP6 ADD SWAP1 DUP5 JUMPDEST DUP2 DUP2 LT ISZERO PUSH2 0x21DC JUMPI DUP4 MLOAD PUSH1 0x1 PUSH1 0x1 PUSH1 0xA0 SHL SUB AND DUP4 MSTORE SWAP3 DUP5 ADD SWAP3 SWAP2 DUP5 ADD SWAP2 PUSH1 0x1 ADD PUSH2 0x21B7 JUMP JUMPDEST POP SWAP1 SWAP7 SWAP6 POP POP POP POP POP POP JUMP JUMPDEST PUSH1 0x20 DUP2 MSTORE PUSH1 0x0 PUSH2 0x12D1 PUSH1 0x20 DUP4 ADD DUP5 PUSH2 0x20DF JUMP JUMPDEST PUSH1 0x20 DUP1 DUP3 MSTORE PUSH1 0x31 SWAP1 DUP3 ADD MSTORE PUSH32 0x4245503732313A207472616E736665722063616C6C6572206973206E6F74206F PUSH1 0x40 DUP3 ADD MSTORE PUSH17 0x1DDB995C881B9BDC88185C1C1C9BDD9959 PUSH1 0x7A SHL PUSH1 0x60 DUP3 ADD MSTORE PUSH1 0x80 ADD SWAP1 JUMP JUMPDEST PUSH1 0x20 DUP1 DUP3 MSTORE PUSH1 0x22 SWAP1 DUP3 ADD MSTORE PUSH32 0x4F6E6C79206F776E65722063616E2072756E20746869732066756E6374696F6E PUSH1 0x40 DUP3 ADD MSTORE PUSH2 0x109 PUSH1 0xF5 SHL PUSH1 0x60 DUP3 ADD MSTORE PUSH1 0x80 ADD SWAP1 JUMP JUMPDEST PUSH1 0x20 DUP1 DUP3 MSTORE PUSH1 0x32 SWAP1 DUP3 ADD MSTORE PUSH32 0x4245503732313A207472616E7366657220746F206E6F6E204245503732315265 PUSH1 0x40 DUP3 ADD MSTORE PUSH18 0x31B2B4BB32B91034B6B83632B6B2B73A32B9 PUSH1 0x71 SHL PUSH1 0x60 DUP3 ADD MSTORE PUSH1 0x80 ADD SWAP1 JUMP JUMPDEST PUSH1 0x20 DUP1 DUP3 MSTORE PUSH1 0xE SWAP1 DUP3 ADD MSTORE PUSH14 0x34B73B30B634B210283934B1B29 PUSH1 0x95 SHL PUSH1 0x40 DUP3 ADD MSTORE PUSH1 0x60 ADD SWAP1 JUMP JUMPDEST PUSH1 0x0 DUP3 NOT DUP3 GT ISZERO PUSH2 0x231B JUMPI PUSH2 0x231B PUSH2 0x23DB JUMP JUMPDEST POP ADD SWAP1 JUMP JUMPDEST PUSH1 0x0 DUP3 PUSH2 0x232F JUMPI PUSH2 0x232F PUSH2 0x23F1 JUMP JUMPDEST POP DIV SWAP1 JUMP JUMPDEST PUSH1 0x0 DUP3 DUP3 LT ISZERO PUSH2 0x2346 JUMPI PUSH2 0x2346 PUSH2 0x23DB JUMP JUMPDEST POP SUB SWAP1 JUMP JUMPDEST PUSH1 0x0 JUMPDEST DUP4 DUP2 LT ISZERO PUSH2 0x2366 JUMPI DUP2 DUP2 ADD MLOAD DUP4 DUP3 ADD MSTORE PUSH1 0x20 ADD PUSH2 0x234E JUMP JUMPDEST DUP4 DUP2 GT ISZERO PUSH2 0x1207 JUMPI POP POP PUSH1 0x0 SWAP2 ADD MSTORE JUMP JUMPDEST PUSH1 0x1 DUP2 DUP2 SHR SWAP1 DUP3 AND DUP1 PUSH2 0x238B JUMPI PUSH1 0x7F DUP3 AND SWAP2 POP JUMPDEST PUSH1 0x20 DUP3 LT DUP2 EQ ISZERO PUSH2 0x13C8 JUMPI PUSH4 0x4E487B71 PUSH1 0xE0 SHL PUSH1 0x0 MSTORE PUSH1 0x22 PUSH1 0x4 MSTORE PUSH1 0x24 PUSH1 0x0 REVERT JUMPDEST PUSH1 0x0 PUSH1 0x0 NOT DUP3 EQ ISZERO PUSH2 0x23C0 JUMPI PUSH2 0x23C0 PUSH2 0x23DB JUMP JUMPDEST POP PUSH1 0x1 ADD SWAP1 JUMP JUMPDEST PUSH1 0x0 DUP3 PUSH2 0x23D6 JUMPI PUSH2 0x23D6 PUSH2 0x23F1 JUMP JUMPDEST POP MOD SWAP1 JUMP JUMPDEST PUSH4 0x4E487B71 PUSH1 0xE0 SHL PUSH1 0x0 MSTORE PUSH1 0x11 PUSH1 0x4 MSTORE PUSH1 0x24 PUSH1 0x0 REVERT JUMPDEST PUSH4 0x4E487B71 PUSH1 0xE0 SHL PUSH1 0x0 MSTORE PUSH1 0x12 PUSH1 0x4 MSTORE PUSH1 0x24 PUSH1 0x0 REVERT JUMPDEST PUSH4 0x4E487B71 PUSH1 0xE0 SHL PUSH1 0x0 MSTORE PUSH1 0x41 PUSH1 0x4 MSTORE PUSH1 0x24 PUSH1 0x0 REVERT JUMPDEST DUP1 ISZERO ISZERO DUP2 EQ PUSH2 0x1CD1 JUMPI PUSH1 0x0 DUP1 REVERT JUMPDEST PUSH1 0x1 PUSH1 0x1 PUSH1 0xE0 SHL SUB NOT DUP2 AND DUP2 EQ PUSH2 0x1CD1 JUMPI PUSH1 0x0 DUP1 REVERT INVALID CALLDATASIZE PUSH32 0x3B3E9F0B4141D6AE3CACAC8084DA13BE4A6B423710FF564C4285F5CCBA58DDF2 MSTORE 0xAD SHL 0xE2 0xC8 SWAP12 PUSH10 0xC2B068FC378DAA952BA7 CALL PUSH4 0xC4A11628 CREATE2 GAS 0x4D CREATE2 0x23 0xB3 0xEF LOG2 PUSH5 0x6970667358 0x22 SLT KECCAK256 0xD2 NUMBER MLOAD 0xCE CREATE2 0xF MUL PC ADD 0x4C SWAP14 STOP 0xBE 0xF8 JUMP 0xBE 0xE6 0xBD 0xD 0xB6 0xC2 PUSH21 0x2B57CE5C497D8E9EAF664736F6C63430008040033 "
        },
        "methodIdentifiers": {
          "BurnNFT(uint256)": "167dc8a0",
          "ChangeOwner(address)": "f2853292",
          "HBG()": "266a21f1",
          "SetPrice(uint256,uint256,uint256,uint256)": "b6fc11d9",
          "addAddressToWhiteList(address[])": "dfa9b440",
          "approve(address,uint256)": "095ea7b3",
          "balanceOf(address)": "70a08231",
          "baseURI()": "6c0360eb",
          "buyBox(address,uint256,uint256)": "0a8798c3",
          "checker()": "cf5303cf",
          "circulatingSupply()": "9358928b",
          "cleanWhiteList()": "2d258ea4",
          "diamondBox()": "f5063d51",
          "diamondPrice()": "8e1ad9da",
          "endClaimHero()": "678dff9d",
          "getApproved(uint256)": "081812fc",
          "goldPrice()": "44501404",
          "goldenBox()": "856e2af4",
          "isApprovedForAll(address,address)": "e985e9c5",
          "name()": "06fdde03",
          "owner()": "8da5cb5b",
          "ownerOf(uint256)": "6352211e",
          "ownerOfDiamondBox(uint256)": "a787eb57",
          "ownerOfGoldenBox(uint256)": "9e49ec8d",
          "ownerOfPlatinumBox(uint256)": "69b59da5",
          "ownerOfSilverBox(uint256)": "fef508c9",
          "platinumBox()": "7dd4d04e",
          "platinumPrice()": "8168803d",
          "safeTransferFrom(address,address,uint256)": "42842e0e",
          "safeTransferFrom(address,address,uint256,bytes)": "b88d4fde",
          "setApprovalForAll(address,bool)": "a22cb465",
          "setBaseURI(string)": "55f804b3",
          "silverBox()": "7d89cd59",
          "silverPrice()": "ff391c06",
          "start(uint256)": "95805dad",
          "supportsInterface(bytes4)": "01ffc9a7",
          "symbol()": "95d89b41",
          "tokenURI(uint256)": "c87b56dd",
          "transferFrom(address,address,uint256)": "23b872dd",
          "whitelistedPeople(uint256)": "08be750d"
        }
      }
    }
  }
}