{
  "_format": "hh-sol-artifact-1",
  "contractName": "Hero",
  "sourceName": "contracts/Hero.sol",
  "abi": [
    {
      "inputs": [
        {
          "internalType": "address",
          "name": "_owner",
          "type": "address"
        },
        {
          "internalType": "contract IBEP20",
          "name": "_HBG",
          "type": "address"
        }
      ],
      "stateMutability": "nonpayable",
      "type": "constructor"
    },
    {
      "anonymous": false,
      "inputs": [
        {
          "indexed": true,
          "internalType": "address",
          "name": "owner",
          "type": "address"
        },
        {
          "indexed": true,
          "internalType": "address",
          "name": "approved",
          "type": "address"
        },
        {
          "indexed": true,
          "internalType": "uint256",
          "name": "tokenId",
          "type": "uint256"
        }
      ],
      "name": "Approval",
      "type": "event"
    },
    {
      "anonymous": false,
      "inputs": [
        {
          "indexed": true,
          "internalType": "address",
          "name": "owner",
          "type": "address"
        },
        {
          "indexed": true,
          "internalType": "address",
          "name": "operator",
          "type": "address"
        },
        {
          "indexed": false,
          "internalType": "bool",
          "name": "approved",
          "type": "bool"
        }
      ],
      "name": "ApprovalForAll",
      "type": "event"
    },
    {
      "anonymous": false,
      "inputs": [
        {
          "indexed": true,
          "internalType": "address",
          "name": "from",
          "type": "address"
        },
        {
          "indexed": true,
          "internalType": "address",
          "name": "to",
          "type": "address"
        },
        {
          "indexed": true,
          "internalType": "uint256",
          "name": "tokenId",
          "type": "uint256"
        }
      ],
      "name": "Transfer",
      "type": "event"
    },
    {
      "anonymous": false,
      "inputs": [
        {
          "indexed": false,
          "internalType": "address",
          "name": "user",
          "type": "address"
        },
        {
          "indexed": false,
          "internalType": "string",
          "name": "boxType",
          "type": "string"
        }
      ],
      "name": "buyNewBox",
      "type": "event"
    },
    {
      "inputs": [
        {
          "internalType": "uint256",
          "name": "token_No",
          "type": "uint256"
        }
      ],
      "name": "BurnNFT",
      "outputs": [],
      "stateMutability": "nonpayable",
      "type": "function"
    },
    {
      "inputs": [],
      "name": "HBG",
      "outputs": [
        {
          "internalType": "contract IBEP20",
          "name": "",
          "type": "address"
        }
      ],
      "stateMutability": "view",
      "type": "function"
    },
    {
      "inputs": [
        {
          "internalType": "uint256",
          "name": "_silver",
          "type": "uint256"
        },
        {
          "internalType": "uint256",
          "name": "_gold",
          "type": "uint256"
        },
        {
          "internalType": "uint256",
          "name": "_platinum",
          "type": "uint256"
        },
        {
          "internalType": "uint256",
          "name": "_diamond",
          "type": "uint256"
        }
      ],
      "name": "SetPrice",
      "outputs": [],
      "stateMutability": "nonpayable",
      "type": "function"
    },
    {
      "inputs": [
        {
          "internalType": "address[]",
          "name": "addresses",
          "type": "address[]"
        }
      ],
      "name": "addAddressToWhiteList",
      "outputs": [],
      "stateMutability": "nonpayable",
      "type": "function"
    },
    {
      "inputs": [
        {
          "internalType": "address",
          "name": "to",
          "type": "address"
        },
        {
          "internalType": "uint256",
          "name": "tokenId",
          "type": "uint256"
        }
      ],
      "name": "approve",
      "outputs": [],
      "stateMutability": "nonpayable",
      "type": "function"
    },
    {
      "inputs": [
        {
          "internalType": "address",
          "name": "owner",
          "type": "address"
        }
      ],
      "name": "balanceOf",
      "outputs": [
        {
          "internalType": "uint256",
          "name": "",
          "type": "uint256"
        }
      ],
      "stateMutability": "view",
      "type": "function"
    },
    {
      "inputs": [],
      "name": "baseURI",
      "outputs": [
        {
          "internalType": "string",
          "name": "",
          "type": "string"
        }
      ],
      "stateMutability": "view",
      "type": "function"
    },
    {
      "inputs": [
        {
          "internalType": "address",
          "name": "_user",
          "type": "address"
        },
        {
          "internalType": "uint256",
          "name": "_type",
          "type": "uint256"
        },
        {
          "internalType": "uint256",
          "name": "_payment",
          "type": "uint256"
        }
      ],
      "name": "buyBox",
      "outputs": [],
      "stateMutability": "nonpayable",
      "type": "function"
    },
    {
      "inputs": [],
      "name": "checker",
      "outputs": [
        {
          "internalType": "address[]",
          "name": "",
          "type": "address[]"
        }
      ],
      "stateMutability": "view",
      "type": "function"
    },
    {
      "inputs": [],
      "name": "circulatingSupply",
      "outputs": [
        {
          "internalType": "uint256",
          "name": "",
          "type": "uint256"
        }
      ],
      "stateMutability": "view",
      "type": "function"
    },
    {
      "inputs": [],
      "name": "diamondBox",
      "outputs": [
        {
          "internalType": "uint256",
          "name": "",
          "type": "uint256"
        }
      ],
      "stateMutability": "view",
      "type": "function"
    },
    {
      "inputs": [],
      "name": "diamondPrice",
      "outputs": [
        {
          "internalType": "uint256",
          "name": "",
          "type": "uint256"
        }
      ],
      "stateMutability": "view",
      "type": "function"
    },
    {
      "inputs": [],
      "name": "endClaimHero",
      "outputs": [],
      "stateMutability": "nonpayable",
      "type": "function"
    },
    {
      "inputs": [
        {
          "internalType": "uint256",
          "name": "tokenId",
          "type": "uint256"
        }
      ],
      "name": "getApproved",
      "outputs": [
        {
          "internalType": "address",
          "name": "",
          "type": "address"
        }
      ],
      "stateMutability": "view",
      "type": "function"
    },
    {
      "inputs": [],
      "name": "goldPrice",
      "outputs": [
        {
          "internalType": "uint256",
          "name": "",
          "type": "uint256"
        }
      ],
      "stateMutability": "view",
      "type": "function"
    },
    {
      "inputs": [],
      "name": "goldenBox",
      "outputs": [
        {
          "internalType": "uint256",
          "name": "",
          "type": "uint256"
        }
      ],
      "stateMutability": "view",
      "type": "function"
    },
    {
      "inputs": [
        {
          "internalType": "address",
          "name": "owner",
          "type": "address"
        },
        {
          "internalType": "address",
          "name": "operator",
          "type": "address"
        }
      ],
      "name": "isApprovedForAll",
      "outputs": [
        {
          "internalType": "bool",
          "name": "",
          "type": "bool"
        }
      ],
      "stateMutability": "view",
      "type": "function"
    },
    {
      "inputs": [],
      "name": "name",
      "outputs": [
        {
          "internalType": "string",
          "name": "",
          "type": "string"
        }
      ],
      "stateMutability": "view",
      "type": "function"
    },
    {
      "inputs": [],
      "name": "owner",
      "outputs": [
        {
          "internalType": "address",
          "name": "",
          "type": "address"
        }
      ],
      "stateMutability": "view",
      "type": "function"
    },
    {
      "inputs": [
        {
          "internalType": "uint256",
          "name": "tokenId",
          "type": "uint256"
        }
      ],
      "name": "ownerOf",
      "outputs": [
        {
          "internalType": "address",
          "name": "",
          "type": "address"
        }
      ],
      "stateMutability": "view",
      "type": "function"
    },
    {
      "inputs": [
        {
          "internalType": "uint256",
          "name": "",
          "type": "uint256"
        }
      ],
      "name": "ownerOfDiamondBox",
      "outputs": [
        {
          "internalType": "address",
          "name": "",
          "type": "address"
        }
      ],
      "stateMutability": "view",
      "type": "function"
    },
    {
      "inputs": [
        {
          "internalType": "uint256",
          "name": "",
          "type": "uint256"
        }
      ],
      "name": "ownerOfGoldenBox",
      "outputs": [
        {
          "internalType": "address",
          "name": "",
          "type": "address"
        }
      ],
      "stateMutability": "view",
      "type": "function"
    },
    {
      "inputs": [
        {
          "internalType": "uint256",
          "name": "",
          "type": "uint256"
        }
      ],
      "name": "ownerOfPlatinumBox",
      "outputs": [
        {
          "internalType": "address",
          "name": "",
          "type": "address"
        }
      ],
      "stateMutability": "view",
      "type": "function"
    },
    {
      "inputs": [
        {
          "internalType": "uint256",
          "name": "",
          "type": "uint256"
        }
      ],
      "name": "ownerOfSilverBox",
      "outputs": [
        {
          "internalType": "address",
          "name": "",
          "type": "address"
        }
      ],
      "stateMutability": "view",
      "type": "function"
    },
    {
      "inputs": [],
      "name": "platinumBox",
      "outputs": [
        {
          "internalType": "uint256",
          "name": "",
          "type": "uint256"
        }
      ],
      "stateMutability": "view",
      "type": "function"
    },
    {
      "inputs": [],
      "name": "platinumPrice",
      "outputs": [
        {
          "internalType": "uint256",
          "name": "",
          "type": "uint256"
        }
      ],
      "stateMutability": "view",
      "type": "function"
    },
    {
      "inputs": [
        {
          "internalType": "address",
          "name": "from",
          "type": "address"
        },
        {
          "internalType": "address",
          "name": "to",
          "type": "address"
        },
        {
          "internalType": "uint256",
          "name": "tokenId",
          "type": "uint256"
        }
      ],
      "name": "safeTransferFrom",
      "outputs": [],
      "stateMutability": "nonpayable",
      "type": "function"
    },
    {
      "inputs": [
        {
          "internalType": "address",
          "name": "from",
          "type": "address"
        },
        {
          "internalType": "address",
          "name": "to",
          "type": "address"
        },
        {
          "internalType": "uint256",
          "name": "tokenId",
          "type": "uint256"
        },
        {
          "internalType": "bytes",
          "name": "_data",
          "type": "bytes"
        }
      ],
      "name": "safeTransferFrom",
      "outputs": [],
      "stateMutability": "nonpayable",
      "type": "function"
    },
    {
      "inputs": [
        {
          "internalType": "address",
          "name": "operator",
          "type": "address"
        },
        {
          "internalType": "bool",
          "name": "approved",
          "type": "bool"
        }
      ],
      "name": "setApprovalForAll",
      "outputs": [],
      "stateMutability": "nonpayable",
      "type": "function"
    },
    {
      "inputs": [
        {
          "internalType": "string",
          "name": "__baseURI",
          "type": "string"
        }
      ],
      "name": "setBaseURI",
      "outputs": [],
      "stateMutability": "nonpayable",
      "type": "function"
    },
    {
      "inputs": [],
      "name": "silverBox",
      "outputs": [
        {
          "internalType": "uint256",
          "name": "",
          "type": "uint256"
        }
      ],
      "stateMutability": "view",
      "type": "function"
    },
    {
      "inputs": [],
      "name": "silverPrice",
      "outputs": [
        {
          "internalType": "uint256",
          "name": "",
          "type": "uint256"
        }
      ],
      "stateMutability": "view",
      "type": "function"
    },
    {
      "inputs": [
        {
          "internalType": "uint256",
          "name": "",
          "type": "uint256"
        }
      ],
      "name": "start",
      "outputs": [
        {
          "internalType": "uint256",
          "name": "",
          "type": "uint256"
        }
      ],
      "stateMutability": "view",
      "type": "function"
    },
    {
      "inputs": [
        {
          "internalType": "bytes4",
          "name": "interfaceId",
          "type": "bytes4"
        }
      ],
      "name": "supportsInterface",
      "outputs": [
        {
          "internalType": "bool",
          "name": "",
          "type": "bool"
        }
      ],
      "stateMutability": "view",
      "type": "function"
    },
    {
      "inputs": [],
      "name": "symbol",
      "outputs": [
        {
          "internalType": "string",
          "name": "",
          "type": "string"
        }
      ],
      "stateMutability": "view",
      "type": "function"
    },
    {
      "inputs": [
        {
          "internalType": "uint256",
          "name": "tokenId",
          "type": "uint256"
        }
      ],
      "name": "tokenURI",
      "outputs": [
        {
          "internalType": "string",
          "name": "",
          "type": "string"
        }
      ],
      "stateMutability": "view",
      "type": "function"
    },
    {
      "inputs": [
        {
          "internalType": "address",
          "name": "from",
          "type": "address"
        },
        {
          "internalType": "address",
          "name": "to",
          "type": "address"
        },
        {
          "internalType": "uint256",
          "name": "tokenId",
          "type": "uint256"
        }
      ],
      "name": "transferFrom",
      "outputs": [],
      "stateMutability": "nonpayable",
      "type": "function"
    },
    {
      "inputs": [
        {
          "internalType": "uint256",
          "name": "",
          "type": "uint256"
        }
      ],
      "name": "whitelistedPeople",
      "outputs": [
        {
          "internalType": "address",
          "name": "",
          "type": "address"
        }
      ],
      "stateMutability": "view",
      "type": "function"
    }
  ],
  "bytecode": "0x60806040526001600a556001600b556001600c556001600d553480156200002557600080fd5b50604051620049703803806200497083398181016040528101906200004b919062000253565b6040518060400160405280600a81526020017f4845524f20546f6b656e000000000000000000000000000000000000000000008152506040518060400160405280600481526020017f4845524f000000000000000000000000000000000000000000000000000000008152508160009080519060200190620000cf92919062000175565b508060019080519060200190620000e892919062000175565b50505081600660006101000a81548173ffffffffffffffffffffffffffffffffffffffff021916908373ffffffffffffffffffffffffffffffffffffffff16021790555080600e60006101000a81548173ffffffffffffffffffffffffffffffffffffffff021916908373ffffffffffffffffffffffffffffffffffffffff160217905550505062000375565b8280546200018390620002dc565b90600052602060002090601f016020900481019282620001a75760008555620001f3565b82601f10620001c257805160ff1916838001178555620001f3565b82800160010185558215620001f3579182015b82811115620001f2578251825591602001919060010190620001d5565b5b50905062000202919062000206565b5090565b5b808211156200022157600081600090555060010162000207565b5090565b600081519050620002368162000341565b92915050565b6000815190506200024d816200035b565b92915050565b600080604083850312156200026757600080fd5b6000620002778582860162000225565b92505060206200028a858286016200023c565b9150509250929050565b6000620002a182620002bc565b9050919050565b6000620002b58262000294565b9050919050565b600073ffffffffffffffffffffffffffffffffffffffff82169050919050565b60006002820490506001821680620002f557607f821691505b602082108114156200030c576200030b62000312565b5b50919050565b7f4e487b7100000000000000000000000000000000000000000000000000000000600052602260045260246000fd5b6200034c8162000294565b81146200035857600080fd5b50565b6200036681620002a8565b81146200037257600080fd5b50565b6145eb80620003856000396000f3fe608060405234801561001057600080fd5b50600436106102325760003560e01c80638168803d11610130578063a787eb57116100b8578063dfa9b4401161007c578063dfa9b440146106a3578063e985e9c5146106bf578063f5063d51146106ef578063fef508c91461070d578063ff391c061461073d57610232565b8063a787eb57146105ed578063b6fc11d91461061d578063b88d4fde14610639578063c87b56dd14610655578063cf5303cf1461068557610232565b80639358928b116100ff5780639358928b1461053557806395805dad1461055357806395d89b41146105835780639e49ec8d146105a1578063a22cb465146105d157610232565b80638168803d146104bd578063856e2af4146104db5780638da5cb5b146104f95780638e1ad9da1461051757610232565b806342842e0e116101be57806369b59da51161018257806369b59da5146104035780636c0360eb1461043357806370a08231146104515780637d89cd59146104815780637dd4d04e1461049f57610232565b806342842e0e14610373578063445014041461038f57806355f804b3146103ad5780636352211e146103c9578063678dff9d146103f957610232565b8063095ea7b311610205578063095ea7b3146102e55780630a8798c314610301578063167dc8a01461031d57806323b872dd14610339578063266a21f11461035557610232565b806301ffc9a71461023757806306fdde0314610267578063081812fc1461028557806308be750d146102b5575b600080fd5b610251600480360381019061024c919061323b565b61075b565b60405161025e9190613939565b60405180910390f35b61026f61083d565b60405161027c919061396f565b60405180910390f35b61029f600480360381019061029a91906132ce565b6108cf565b6040516102ac91906137c1565b60405180910390f35b6102cf60048036038101906102ca91906132ce565b610954565b6040516102dc91906137c1565b60405180910390f35b6102ff60048036038101906102fa9190613142565b610993565b005b61031b6004803603810190610316919061317e565b610aab565b005b610337600480360381019061033291906132ce565b611304565b005b610353600480360381019061034e919061303c565b611431565b005b61035d611491565b60405161036a9190613954565b60405180910390f35b61038d6004803603810190610388919061303c565b6114b7565b005b6103976114d7565b6040516103a49190613bb1565b60405180910390f35b6103c760048036038101906103c2919061328d565b6114dd565b005b6103e360048036038101906103de91906132ce565b611587565b6040516103f091906137c1565b60405180910390f35b610401611639565b005b61041d600480360381019061041891906132ce565b6117a3565b60405161042a91906137c1565b60405180910390f35b61043b6117d6565b604051610448919061396f565b60405180910390f35b61046b60048036038101906104669190612fd7565b611864565b6040516104789190613bb1565b60405180910390f35b61048961191c565b6040516104969190613bb1565b60405180910390f35b6104a7611922565b6040516104b49190613bb1565b60405180910390f35b6104c5611928565b6040516104d29190613bb1565b60405180910390f35b6104e361192e565b6040516104f09190613bb1565b60405180910390f35b610501611934565b60405161050e91906137c1565b60405180910390f35b61051f61195a565b60405161052c9190613bb1565b60405180910390f35b61053d611960565b60405161054a9190613bb1565b60405180910390f35b61056d600480360381019061056891906132ce565b611966565b60405161057a9190613bb1565b60405180910390f35b61058b61197e565b604051610598919061396f565b60405180910390f35b6105bb60048036038101906105b691906132ce565b611a10565b6040516105c891906137c1565b60405180910390f35b6105eb60048036038101906105e69190613106565b611a43565b005b610607600480360381019061060291906132ce565b611a59565b60405161061491906137c1565b60405180910390f35b610637600480360381019061063291906132f7565b611a8c565b005b610653600480360381019061064e919061308b565b611b3e565b005b61066f600480360381019061066a91906132ce565b611ba0565b60405161067c919061396f565b60405180910390f35b61068d611c47565b60405161069a9190613917565b60405180910390f35b6106bd60048036038101906106b891906131cd565b611dc4565b005b6106d960048036038101906106d49190613000565b611f2a565b6040516106e69190613939565b60405180910390f35b6106f7611fbe565b6040516107049190613bb1565b60405180910390f35b610727600480360381019061072291906132ce565b611fc4565b60405161073491906137c1565b60405180910390f35b610745611ff7565b6040516107529190613bb1565b60405180910390f35b60007f80ac58cd000000000000000000000000000000000000000000000000000000007bffffffffffffffffffffffffffffffffffffffffffffffffffffffff1916827bffffffffffffffffffffffffffffffffffffffffffffffffffffffff1916148061082657507f5b5e139f000000000000000000000000000000000000000000000000000000007bffffffffffffffffffffffffffffffffffffffffffffffffffffffff1916827bffffffffffffffffffffffffffffffffffffffffffffffffffffffff1916145b80610836575061083582611ffd565b5b9050919050565b60606000805461084c90613e64565b80601f016020809104026020016040519081016040528092919081815260200182805461087890613e64565b80156108c55780601f1061089a576101008083540402835291602001916108c5565b820191906000526020600020905b8154815290600101906020018083116108a857829003601f168201915b5050505050905090565b60006108da82612067565b610919576040517f08c379a000000000000000000000000000000000000000000000000000000000815260040161091090613a11565b60405180910390fd5b6004600083815260200190815260200160002060009054906101000a900473ffffffffffffffffffffffffffffffffffffffff169050919050565b6009818154811061096457600080fd5b906000526020600020016000915054906101000a900473ffffffffffffffffffffffffffffffffffffffff1681565b600061099e82611587565b90508073ffffffffffffffffffffffffffffffffffffffff168373ffffffffffffffffffffffffffffffffffffffff161415610a0f576040517f08c379a0000000000000000000000000000000000000000000000000000000008152600401610a0690613ab1565b60405180910390fd5b8073ffffffffffffffffffffffffffffffffffffffff16610a2e6120d3565b73ffffffffffffffffffffffffffffffffffffffff161480610a5d5750610a5c81610a576120d3565b611f2a565b5b610a9c576040517f08c379a0000000000000000000000000000000000000000000000000000000008152600401610a9390613b91565b60405180910390fd5b610aa683836120db565b505050565b6001821415610cc157600f54811015610af9576040517f08c379a0000000000000000000000000000000000000000000000000000000008152600401610af090613b11565b60405180910390fd5b8260136000600a54815260200190815260200160002060006101000a81548173ffffffffffffffffffffffffffffffffffffffff021916908373ffffffffffffffffffffffffffffffffffffffff1602179055506001600a6000828254610b609190613ccf565b92505081905550600e60009054906101000a900473ffffffffffffffffffffffffffffffffffffffff1673ffffffffffffffffffffffffffffffffffffffff166323b872dd84600660009054906101000a900473ffffffffffffffffffffffffffffffffffffffff16846040518463ffffffff1660e01b8152600401610be8939291906137dc565b602060405180830381600087803b158015610c0257600080fd5b505af1158015610c16573d6000803e3d6000fd5b505050506040513d601f19601f82011682018060405250810190610c3a9190613212565b50610c5983600860008154610c4e90613ec7565b919050819055612194565b4260176000600860008154610c6d90613ec7565b9190508190558152602001908152602001600020819055507f367f3b3e9f0b4141d6ae3cacac8084da13be4a6b423710ff564c4285f5ccba5883604051610cb4919061388d565b60405180910390a16112ff565b6002821415610ed6576010548114610d0e576040517f08c379a0000000000000000000000000000000000000000000000000000000008152600401610d0590613b11565b60405180910390fd5b8260146000600b54815260200190815260200160002060006101000a81548173ffffffffffffffffffffffffffffffffffffffff021916908373ffffffffffffffffffffffffffffffffffffffff1602179055506001600b6000828254610d759190613ccf565b92505081905550600e60009054906101000a900473ffffffffffffffffffffffffffffffffffffffff1673ffffffffffffffffffffffffffffffffffffffff166323b872dd84600660009054906101000a900473ffffffffffffffffffffffffffffffffffffffff16846040518463ffffffff1660e01b8152600401610dfd939291906137dc565b602060405180830381600087803b158015610e1757600080fd5b505af1158015610e2b573d6000803e3d6000fd5b505050506040513d601f19601f82011682018060405250810190610e4f9190613212565b50610e6e83600860008154610e6390613ec7565b919050819055612194565b4260176000600860008154610e8290613ec7565b9190508190558152602001908152602001600020819055507f367f3b3e9f0b4141d6ae3cacac8084da13be4a6b423710ff564c4285f5ccba5883604051610ec991906138e9565b60405180910390a16112fe565b60038214156110eb576011548114610f23576040517f08c379a0000000000000000000000000000000000000000000000000000000008152600401610f1a90613b11565b60405180910390fd5b8260156000600c54815260200190815260200160002060006101000a81548173ffffffffffffffffffffffffffffffffffffffff021916908373ffffffffffffffffffffffffffffffffffffffff1602179055506001600c6000828254610f8a9190613ccf565b92505081905550600e60009054906101000a900473ffffffffffffffffffffffffffffffffffffffff1673ffffffffffffffffffffffffffffffffffffffff166323b872dd84600660009054906101000a900473ffffffffffffffffffffffffffffffffffffffff16846040518463ffffffff1660e01b8152600401611012939291906137dc565b602060405180830381600087803b15801561102c57600080fd5b505af1158015611040573d6000803e3d6000fd5b505050506040513d601f19601f820116820180604052508101906110649190613212565b506110838360086000815461107890613ec7565b919050819055612194565b426017600060086000815461109790613ec7565b9190508190558152602001908152602001600020819055507f367f3b3e9f0b4141d6ae3cacac8084da13be4a6b423710ff564c4285f5ccba58836040516110de919061385f565b60405180910390a16112fd565b60048214156112fc576012548114611138576040517f08c379a000000000000000000000000000000000000000000000000000000000815260040161112f90613b11565b60405180910390fd5b8260166000600d54815260200190815260200160002060006101000a81548173ffffffffffffffffffffffffffffffffffffffff021916908373ffffffffffffffffffffffffffffffffffffffff1602179055506001600d600082825461119f9190613ccf565b92505081905550600e60009054906101000a900473ffffffffffffffffffffffffffffffffffffffff1673ffffffffffffffffffffffffffffffffffffffff166323b872dd84600660009054906101000a900473ffffffffffffffffffffffffffffffffffffffff16846040518463ffffffff1660e01b8152600401611227939291906137dc565b602060405180830381600087803b15801561124157600080fd5b505af1158015611255573d6000803e3d6000fd5b505050506040513d601f19601f820116820180604052508101906112799190613212565b506112988360086000815461128d90613ec7565b919050819055612194565b42601760006008600081546112ac90613ec7565b9190508190558152602001908152602001600020819055507f367f3b3e9f0b4141d6ae3cacac8084da13be4a6b423710ff564c4285f5ccba58836040516112f391906138bb565b60405180910390a15b5b5b5b505050565b600660009054906101000a900473ffffffffffffffffffffffffffffffffffffffff1673ffffffffffffffffffffffffffffffffffffffff163373ffffffffffffffffffffffffffffffffffffffff1614611394576040517f08c379a000000000000000000000000000000000000000000000000000000000815260040161138b90613a71565b60405180910390fd5b6301e1338060176000838152602001908152602001600020546113b79190613ccf565b42116113f8576040517f08c379a00000000000000000000000000000000000000000000000000000000081526004016113ef90613b31565b60405180910390fd5b6114018161236e565b60006017600060086000815461141690613ec7565b91905081905581526020019081526020016000208190555050565b61144261143c6120d3565b8261248b565b611481576040517f08c379a0000000000000000000000000000000000000000000000000000000008152600401611478906139d1565b60405180910390fd5b61148c838383612569565b505050565b600e60009054906101000a900473ffffffffffffffffffffffffffffffffffffffff1681565b6114d283838360405180602001604052806000815250611b3e565b505050565b60105481565b600660009054906101000a900473ffffffffffffffffffffffffffffffffffffffff1673ffffffffffffffffffffffffffffffffffffffff163373ffffffffffffffffffffffffffffffffffffffff161461156d576040517f08c379a000000000000000000000000000000000000000000000000000000000815260040161156490613a71565b60405180910390fd5b8060079080519060200190611583929190612d9c565b5050565b6000806002600084815260200190815260200160002060009054906101000a900473ffffffffffffffffffffffffffffffffffffffff169050600073ffffffffffffffffffffffffffffffffffffffff168173ffffffffffffffffffffffffffffffffffffffff161415611630576040517f08c379a000000000000000000000000000000000000000000000000000000000815260040161162790613a31565b60405180910390fd5b80915050919050565b600660009054906101000a900473ffffffffffffffffffffffffffffffffffffffff1673ffffffffffffffffffffffffffffffffffffffff163373ffffffffffffffffffffffffffffffffffffffff16146116c9576040517f08c379a00000000000000000000000000000000000000000000000000000000081526004016116c090613a71565b60405180910390fd5b600042905060005b60098054905081101561179f576117606009828154811061171b577f4e487b7100000000000000000000000000000000000000000000000000000000600052603260045260246000fd5b9060005260206000200160009054906101000a900473ffffffffffffffffffffffffffffffffffffffff1660086000815461175590613ec7565b919050819055612194565b816017600060086000815461177490613ec7565b919050819055815260200190815260200160002081905550808061179790613ec7565b9150506116d1565b5050565b60156020528060005260406000206000915054906101000a900473ffffffffffffffffffffffffffffffffffffffff1681565b600780546117e390613e64565b80601f016020809104026020016040519081016040528092919081815260200182805461180f90613e64565b801561185c5780601f106118315761010080835404028352916020019161185c565b820191906000526020600020905b81548152906001019060200180831161183f57829003601f168201915b505050505081565b60008073ffffffffffffffffffffffffffffffffffffffff168273ffffffffffffffffffffffffffffffffffffffff1614156118d5576040517f08c379a00000000000000000000000000000000000000000000000000000000081526004016118cc906139b1565b60405180910390fd5b600360008373ffffffffffffffffffffffffffffffffffffffff1673ffffffffffffffffffffffffffffffffffffffff168152602001908152602001600020549050919050565b600a5481565b600c5481565b60115481565b600b5481565b600660009054906101000a900473ffffffffffffffffffffffffffffffffffffffff1681565b60125481565b60085481565b60176020528060005260406000206000915090505481565b60606001805461198d90613e64565b80601f01602080910402602001604051908101604052809291908181526020018280546119b990613e64565b8015611a065780601f106119db57610100808354040283529160200191611a06565b820191906000526020600020905b8154815290600101906020018083116119e957829003601f168201915b5050505050905090565b60146020528060005260406000206000915054906101000a900473ffffffffffffffffffffffffffffffffffffffff1681565b611a55611a4e6120d3565b83836127d0565b5050565b60166020528060005260406000206000915054906101000a900473ffffffffffffffffffffffffffffffffffffffff1681565b600660009054906101000a900473ffffffffffffffffffffffffffffffffffffffff1673ffffffffffffffffffffffffffffffffffffffff163373ffffffffffffffffffffffffffffffffffffffff1614611b1c576040517f08c379a0000000000000000000000000000000000000000000000000000000008152600401611b1390613a71565b60405180910390fd5b83600f8190555082601081905550816011819055508060128190555050505050565b611b4f611b496120d3565b8361248b565b611b8e576040517f08c379a0000000000000000000000000000000000000000000000000000000008152600401611b85906139d1565b60405180910390fd5b611b9a8484848461293d565b50505050565b6060611bab82612067565b611bea576040517f08c379a0000000000000000000000000000000000000000000000000000000008152600401611be190613991565b60405180910390fd5b6000611bf4612999565b90506000815111611c145760405180602001604052806000815250611c3f565b80611c1e84612a2b565b604051602001611c2f92919061379d565b6040516020818303038152906040525b915050919050565b6060600060098054905067ffffffffffffffff811115611c90577f4e487b7100000000000000000000000000000000000000000000000000000000600052604160045260246000fd5b604051908082528060200260200182016040528015611cbe5781602001602082028036833780820191505090505b50905060005b600980549050811015611dbc5760098181548110611d0b577f4e487b7100000000000000000000000000000000000000000000000000000000600052603260045260246000fd5b9060005260206000200160009054906101000a900473ffffffffffffffffffffffffffffffffffffffff16828281518110611d6f577f4e487b7100000000000000000000000000000000000000000000000000000000600052603260045260246000fd5b602002602001019073ffffffffffffffffffffffffffffffffffffffff16908173ffffffffffffffffffffffffffffffffffffffff16815250508080611db490613ec7565b915050611cc4565b508091505090565b600660009054906101000a900473ffffffffffffffffffffffffffffffffffffffff1673ffffffffffffffffffffffffffffffffffffffff163373ffffffffffffffffffffffffffffffffffffffff1614611e54576040517f08c379a0000000000000000000000000000000000000000000000000000000008152600401611e4b90613a71565b60405180910390fd5b60005b82829050811015611f25576009838383818110611e9d577f4e487b7100000000000000000000000000000000000000000000000000000000600052603260045260246000fd5b9050602002016020810190611eb29190612fd7565b9080600181540180825580915050600190039060005260206000200160009091909190916101000a81548173ffffffffffffffffffffffffffffffffffffffff021916908373ffffffffffffffffffffffffffffffffffffffff1602179055508080611f1d90613ec7565b915050611e57565b505050565b6000600560008473ffffffffffffffffffffffffffffffffffffffff1673ffffffffffffffffffffffffffffffffffffffff16815260200190815260200160002060008373ffffffffffffffffffffffffffffffffffffffff1673ffffffffffffffffffffffffffffffffffffffff16815260200190815260200160002060009054906101000a900460ff16905092915050565b600d5481565b60136020528060005260406000206000915054906101000a900473ffffffffffffffffffffffffffffffffffffffff1681565b600f5481565b60007f01ffc9a7000000000000000000000000000000000000000000000000000000007bffffffffffffffffffffffffffffffffffffffffffffffffffffffff1916827bffffffffffffffffffffffffffffffffffffffffffffffffffffffff1916149050919050565b60008073ffffffffffffffffffffffffffffffffffffffff166002600084815260200190815260200160002060009054906101000a900473ffffffffffffffffffffffffffffffffffffffff1673ffffffffffffffffffffffffffffffffffffffff1614159050919050565b600033905090565b816004600083815260200190815260200160002060006101000a81548173ffffffffffffffffffffffffffffffffffffffff021916908373ffffffffffffffffffffffffffffffffffffffff160217905550808273ffffffffffffffffffffffffffffffffffffffff1661214e83611587565b73ffffffffffffffffffffffffffffffffffffffff167f8c5be1e5ebec7d5bd14f71427d1e84f3dd0314c0f7b2291e5b200ac8c7c3b92560405160405180910390a45050565b600073ffffffffffffffffffffffffffffffffffffffff168273ffffffffffffffffffffffffffffffffffffffff161415612204576040517f08c379a00000000000000000000000000000000000000000000000000000000081526004016121fb906139f1565b60405180910390fd5b61220d81612067565b1561224d576040517f08c379a000000000000000000000000000000000000000000000000000000000815260040161224490613b51565b60405180910390fd5b61225960008383612bd8565b6001600360008473ffffffffffffffffffffffffffffffffffffffff1673ffffffffffffffffffffffffffffffffffffffff16815260200190815260200160002060008282546122a99190613ccf565b92505081905550816002600083815260200190815260200160002060006101000a81548173ffffffffffffffffffffffffffffffffffffffff021916908373ffffffffffffffffffffffffffffffffffffffff160217905550808273ffffffffffffffffffffffffffffffffffffffff16600073ffffffffffffffffffffffffffffffffffffffff167fddf252ad1be2c89b69c2b068fc378daa952ba7f163c4a11628f55a4df523b3ef60405160405180910390a461236a60008383612bdd565b5050565b600061237982611587565b905061238781600084612bd8565b6123926000836120db565b6001600360008373ffffffffffffffffffffffffffffffffffffffff1673ffffffffffffffffffffffffffffffffffffffff16815260200190815260200160002060008282546123e29190613d56565b925050819055506002600083815260200190815260200160002060006101000a81549073ffffffffffffffffffffffffffffffffffffffff021916905581600073ffffffffffffffffffffffffffffffffffffffff168273ffffffffffffffffffffffffffffffffffffffff167fddf252ad1be2c89b69c2b068fc378daa952ba7f163c4a11628f55a4df523b3ef60405160405180910390a461248781600084612bdd565b5050565b600061249682612067565b6124d5576040517f08c379a00000000000000000000000000000000000000000000000000000000081526004016124cc90613a91565b60405180910390fd5b60006124e083611587565b90508073ffffffffffffffffffffffffffffffffffffffff168473ffffffffffffffffffffffffffffffffffffffff16148061254f57508373ffffffffffffffffffffffffffffffffffffffff16612537846108cf565b73ffffffffffffffffffffffffffffffffffffffff16145b80612560575061255f8185611f2a565b5b91505092915050565b8273ffffffffffffffffffffffffffffffffffffffff1661258982611587565b73ffffffffffffffffffffffffffffffffffffffff16146125df576040517f08c379a00000000000000000000000000000000000000000000000000000000081526004016125d690613a51565b60405180910390fd5b600073ffffffffffffffffffffffffffffffffffffffff168273ffffffffffffffffffffffffffffffffffffffff16141561264f576040517f08c379a000000000000000000000000000000000000000000000000000000000815260040161264690613af1565b60405180910390fd5b61265a838383612bd8565b6126656000826120db565b6001600360008573ffffffffffffffffffffffffffffffffffffffff1673ffffffffffffffffffffffffffffffffffffffff16815260200190815260200160002060008282546126b59190613d56565b925050819055506001600360008473ffffffffffffffffffffffffffffffffffffffff1673ffffffffffffffffffffffffffffffffffffffff168152602001908152602001600020600082825461270c9190613ccf565b92505081905550816002600083815260200190815260200160002060006101000a81548173ffffffffffffffffffffffffffffffffffffffff021916908373ffffffffffffffffffffffffffffffffffffffff160217905550808273ffffffffffffffffffffffffffffffffffffffff168473ffffffffffffffffffffffffffffffffffffffff167fddf252ad1be2c89b69c2b068fc378daa952ba7f163c4a11628f55a4df523b3ef60405160405180910390a46127cb838383612bdd565b505050565b8173ffffffffffffffffffffffffffffffffffffffff168373ffffffffffffffffffffffffffffffffffffffff16141561283f576040517f08c379a000000000000000000000000000000000000000000000000000000000815260040161283690613b71565b60405180910390fd5b80600560008573ffffffffffffffffffffffffffffffffffffffff1673ffffffffffffffffffffffffffffffffffffffff16815260200190815260200160002060008473ffffffffffffffffffffffffffffffffffffffff1673ffffffffffffffffffffffffffffffffffffffff16815260200190815260200160002060006101000a81548160ff0219169083151502179055508173ffffffffffffffffffffffffffffffffffffffff168373ffffffffffffffffffffffffffffffffffffffff167f17307eab39ab6107e8899845ad3d59bd9653f200f220920489ca2b5937696c31836040516129309190613939565b60405180910390a3505050565b612948848484612569565b61295484848484612be2565b612993576040517f08c379a000000000000000000000000000000000000000000000000000000000815260040161298a90613ad1565b60405180910390fd5b50505050565b6060600780546129a890613e64565b80601f01602080910402602001604051908101604052809291908181526020018280546129d490613e64565b8015612a215780601f106129f657610100808354040283529160200191612a21565b820191906000526020600020905b815481529060010190602001808311612a0457829003601f168201915b5050505050905090565b60606000821415612a73576040518060400160405280600181526020017f30000000000000000000000000000000000000000000000000000000000000008152509050612bd3565b600082905060005b60008214612aa5578080612a8e90613ec7565b915050600a82612a9e9190613d25565b9150612a7b565b60008167ffffffffffffffff811115612ae7577f4e487b7100000000000000000000000000000000000000000000000000000000600052604160045260246000fd5b6040519080825280601f01601f191660200182016040528015612b195781602001600182028036833780820191505090505b5090505b60008514612bcc57600182612b329190613d56565b9150600a85612b419190613f10565b6030612b4d9190613ccf565b60f81b818381518110612b89577f4e487b7100000000000000000000000000000000000000000000000000000000600052603260045260246000fd5b60200101907effffffffffffffffffffffffffffffffffffffffffffffffffffffffffffff1916908160001a905350600a85612bc59190613d25565b9450612b1d565b8093505050505b919050565b505050565b505050565b6000612c038473ffffffffffffffffffffffffffffffffffffffff16612d79565b15612d6c578373ffffffffffffffffffffffffffffffffffffffff166341982fc8612c2c6120d3565b8786866040518563ffffffff1660e01b8152600401612c4e9493929190613813565b602060405180830381600087803b158015612c6857600080fd5b505af1925050508015612c9957506040513d601f19601f82011682018060405250810190612c969190613264565b60015b612d1c573d8060008114612cc9576040519150601f19603f3d011682016040523d82523d6000602084013e612cce565b606091505b50600081511415612d14576040517f08c379a0000000000000000000000000000000000000000000000000000000008152600401612d0b90613ad1565b60405180910390fd5b805181602001fd5b6341982fc860e01b7bffffffffffffffffffffffffffffffffffffffffffffffffffffffff1916817bffffffffffffffffffffffffffffffffffffffffffffffffffffffff191614915050612d71565b600190505b949350505050565b6000808273ffffffffffffffffffffffffffffffffffffffff163b119050919050565b828054612da890613e64565b90600052602060002090601f016020900481019282612dca5760008555612e11565b82601f10612de357805160ff1916838001178555612e11565b82800160010185558215612e11579182015b82811115612e10578251825591602001919060010190612df5565b5b509050612e1e9190612e22565b5090565b5b80821115612e3b576000816000905550600101612e23565b5090565b6000612e52612e4d84613bf1565b613bcc565b905082815260208101848484011115612e6a57600080fd5b612e75848285613e22565b509392505050565b6000612e90612e8b84613c22565b613bcc565b905082815260208101848484011115612ea857600080fd5b612eb3848285613e22565b509392505050565b600081359050612eca81614559565b92915050565b60008083601f840112612ee257600080fd5b8235905067ffffffffffffffff811115612efb57600080fd5b602083019150836020820283011115612f1357600080fd5b9250929050565b600081359050612f2981614570565b92915050565b600081519050612f3e81614570565b92915050565b600081359050612f5381614587565b92915050565b600081519050612f6881614587565b92915050565b600082601f830112612f7f57600080fd5b8135612f8f848260208601612e3f565b91505092915050565b600082601f830112612fa957600080fd5b8135612fb9848260208601612e7d565b91505092915050565b600081359050612fd18161459e565b92915050565b600060208284031215612fe957600080fd5b6000612ff784828501612ebb565b91505092915050565b6000806040838503121561301357600080fd5b600061302185828601612ebb565b925050602061303285828601612ebb565b9150509250929050565b60008060006060848603121561305157600080fd5b600061305f86828701612ebb565b935050602061307086828701612ebb565b925050604061308186828701612fc2565b9150509250925092565b600080600080608085870312156130a157600080fd5b60006130af87828801612ebb565b94505060206130c087828801612ebb565b93505060406130d187828801612fc2565b925050606085013567ffffffffffffffff8111156130ee57600080fd5b6130fa87828801612f6e565b91505092959194509250565b6000806040838503121561311957600080fd5b600061312785828601612ebb565b925050602061313885828601612f1a565b9150509250929050565b6000806040838503121561315557600080fd5b600061316385828601612ebb565b925050602061317485828601612fc2565b9150509250929050565b60008060006060848603121561319357600080fd5b60006131a186828701612ebb565b93505060206131b286828701612fc2565b92505060406131c386828701612fc2565b9150509250925092565b600080602083850312156131e057600080fd5b600083013567ffffffffffffffff8111156131fa57600080fd5b61320685828601612ed0565b92509250509250929050565b60006020828403121561322457600080fd5b600061323284828501612f2f565b91505092915050565b60006020828403121561324d57600080fd5b600061325b84828501612f44565b91505092915050565b60006020828403121561327657600080fd5b600061328484828501612f59565b91505092915050565b60006020828403121561329f57600080fd5b600082013567ffffffffffffffff8111156132b957600080fd5b6132c584828501612f98565b91505092915050565b6000602082840312156132e057600080fd5b60006132ee84828501612fc2565b91505092915050565b6000806000806080858703121561330d57600080fd5b600061331b87828801612fc2565b945050602061332c87828801612fc2565b935050604061333d87828801612fc2565b925050606061334e87828801612fc2565b91505092959194509250565b60006133668383613372565b60208301905092915050565b61337b81613d8a565b82525050565b61338a81613d8a565b82525050565b600061339b82613c63565b6133a58185613c91565b93506133b083613c53565b8060005b838110156133e15781516133c8888261335a565b97506133d383613c84565b9250506001810190506133b4565b5085935050505092915050565b6133f781613d9c565b82525050565b600061340882613c6e565b6134128185613ca2565b9350613422818560208601613e31565b61342b81613ffd565b840191505092915050565b61343f81613dfe565b82525050565b600061345082613c79565b61345a8185613cb3565b935061346a818560208601613e31565b61347381613ffd565b840191505092915050565b600061348982613c79565b6134938185613cc4565b93506134a3818560208601613e31565b80840191505092915050565b60006134bc602f83613cb3565b91506134c78261400e565b604082019050919050565b60006134df600783613cb3565b91506134ea8261405d565b602082019050919050565b6000613502600683613cb3565b915061350d82614086565b602082019050919050565b6000613525602a83613cb3565b9150613530826140af565b604082019050919050565b6000613548603183613cb3565b9150613553826140fe565b604082019050919050565b600061356b602083613cb3565b91506135768261414d565b602082019050919050565b600061358e602c83613cb3565b915061359982614176565b604082019050919050565b60006135b1602983613cb3565b91506135bc826141c5565b604082019050919050565b60006135d4602583613cb3565b91506135df82614214565b604082019050919050565b60006135f7602283613cb3565b915061360282614263565b604082019050919050565b600061361a600783613cb3565b9150613625826142b2565b602082019050919050565b600061363d602c83613cb3565b9150613648826142db565b604082019050919050565b6000613660600683613cb3565b915061366b8261432a565b602082019050919050565b6000613683602183613cb3565b915061368e82614353565b604082019050919050565b60006136a6603283613cb3565b91506136b1826143a2565b604082019050919050565b60006136c9602483613cb3565b91506136d4826143f1565b604082019050919050565b60006136ec600e83613cb3565b91506136f782614440565b602082019050919050565b600061370f602683613cb3565b915061371a82614469565b604082019050919050565b6000613732601c83613cb3565b915061373d826144b8565b602082019050919050565b6000613755601983613cb3565b9150613760826144e1565b602082019050919050565b6000613778603883613cb3565b91506137838261450a565b604082019050919050565b61379781613df4565b82525050565b60006137a9828561347e565b91506137b5828461347e565b91508190509392505050565b60006020820190506137d66000830184613381565b92915050565b60006060820190506137f16000830186613381565b6137fe6020830185613381565b61380b604083018461378e565b949350505050565b60006080820190506138286000830187613381565b6138356020830186613381565b613842604083018561378e565b818103606083015261385481846133fd565b905095945050505050565b60006040820190506138746000830184613381565b8181036020830152613885816134d2565b905092915050565b60006040820190506138a26000830184613381565b81810360208301526138b3816134f5565b905092915050565b60006040820190506138d06000830184613381565b81810360208301526138e18161360d565b905092915050565b60006040820190506138fe6000830184613381565b818103602083015261390f81613653565b905092915050565b600060208201905081810360008301526139318184613390565b905092915050565b600060208201905061394e60008301846133ee565b92915050565b60006020820190506139696000830184613436565b92915050565b600060208201905081810360008301526139898184613445565b905092915050565b600060208201905081810360008301526139aa816134af565b9050919050565b600060208201905081810360008301526139ca81613518565b9050919050565b600060208201905081810360008301526139ea8161353b565b9050919050565b60006020820190508181036000830152613a0a8161355e565b9050919050565b60006020820190508181036000830152613a2a81613581565b9050919050565b60006020820190508181036000830152613a4a816135a4565b9050919050565b60006020820190508181036000830152613a6a816135c7565b9050919050565b60006020820190508181036000830152613a8a816135ea565b9050919050565b60006020820190508181036000830152613aaa81613630565b9050919050565b60006020820190508181036000830152613aca81613676565b9050919050565b60006020820190508181036000830152613aea81613699565b9050919050565b60006020820190508181036000830152613b0a816136bc565b9050919050565b60006020820190508181036000830152613b2a816136df565b9050919050565b60006020820190508181036000830152613b4a81613702565b9050919050565b60006020820190508181036000830152613b6a81613725565b9050919050565b60006020820190508181036000830152613b8a81613748565b9050919050565b60006020820190508181036000830152613baa8161376b565b9050919050565b6000602082019050613bc6600083018461378e565b92915050565b6000613bd6613be7565b9050613be28282613e96565b919050565b6000604051905090565b600067ffffffffffffffff821115613c0c57613c0b613fce565b5b613c1582613ffd565b9050602081019050919050565b600067ffffffffffffffff821115613c3d57613c3c613fce565b5b613c4682613ffd565b9050602081019050919050565b6000819050602082019050919050565b600081519050919050565b600081519050919050565b600081519050919050565b6000602082019050919050565b600082825260208201905092915050565b600082825260208201905092915050565b600082825260208201905092915050565b600081905092915050565b6000613cda82613df4565b9150613ce583613df4565b9250827fffffffffffffffffffffffffffffffffffffffffffffffffffffffffffffffff03821115613d1a57613d19613f41565b5b828201905092915050565b6000613d3082613df4565b9150613d3b83613df4565b925082613d4b57613d4a613f70565b5b828204905092915050565b6000613d6182613df4565b9150613d6c83613df4565b925082821015613d7f57613d7e613f41565b5b828203905092915050565b6000613d9582613dd4565b9050919050565b60008115159050919050565b60007fffffffff0000000000000000000000000000000000000000000000000000000082169050919050565b600073ffffffffffffffffffffffffffffffffffffffff82169050919050565b6000819050919050565b6000613e0982613e10565b9050919050565b6000613e1b82613dd4565b9050919050565b82818337600083830152505050565b60005b83811015613e4f578082015181840152602081019050613e34565b83811115613e5e576000848401525b50505050565b60006002820490506001821680613e7c57607f821691505b60208210811415613e9057613e8f613f9f565b5b50919050565b613e9f82613ffd565b810181811067ffffffffffffffff82111715613ebe57613ebd613fce565b5b80604052505050565b6000613ed282613df4565b91507fffffffffffffffffffffffffffffffffffffffffffffffffffffffffffffffff821415613f0557613f04613f41565b5b600182019050919050565b6000613f1b82613df4565b9150613f2683613df4565b925082613f3657613f35613f70565b5b828206905092915050565b7f4e487b7100000000000000000000000000000000000000000000000000000000600052601160045260246000fd5b7f4e487b7100000000000000000000000000000000000000000000000000000000600052601260045260246000fd5b7f4e487b7100000000000000000000000000000000000000000000000000000000600052602260045260246000fd5b7f4e487b7100000000000000000000000000000000000000000000000000000000600052604160045260246000fd5b6000601f19601f8301169050919050565b7f4245503732314d657461646174613a2055524920717565727920666f72206e6f60008201527f6e6578697374656e7420746f6b656e0000000000000000000000000000000000602082015250565b7f506c6174696e6d00000000000000000000000000000000000000000000000000600082015250565b7f53696c7665720000000000000000000000000000000000000000000000000000600082015250565b7f4245503732313a2062616c616e636520717565727920666f7220746865207a6560008201527f726f206164647265737300000000000000000000000000000000000000000000602082015250565b7f4245503732313a207472616e736665722063616c6c6572206973206e6f74206f60008201527f776e6572206e6f7220617070726f766564000000000000000000000000000000602082015250565b7f4245503732313a206d696e7420746f20746865207a65726f2061646472657373600082015250565b7f4245503732313a20617070726f76656420717565727920666f72206e6f6e657860008201527f697374656e7420746f6b656e0000000000000000000000000000000000000000602082015250565b7f4245503732313a206f776e657220717565727920666f72206e6f6e657869737460008201527f656e7420746f6b656e0000000000000000000000000000000000000000000000602082015250565b7f4245503732313a207472616e736665722066726f6d20696e636f72726563742060008201527f6f776e6572000000000000000000000000000000000000000000000000000000602082015250565b7f4f6e6c79206f776e65722063616e2072756e20746869732066756e6374696f6e60008201527f2120000000000000000000000000000000000000000000000000000000000000602082015250565b7f4469616d6f6e6400000000000000000000000000000000000000000000000000600082015250565b7f4245503732313a206f70657261746f7220717565727920666f72206e6f6e657860008201527f697374656e7420746f6b656e0000000000000000000000000000000000000000602082015250565b7f476f6c64656e0000000000000000000000000000000000000000000000000000600082015250565b7f4245503732313a20617070726f76616c20746f2063757272656e74206f776e6560008201527f7200000000000000000000000000000000000000000000000000000000000000602082015250565b7f4245503732313a207472616e7366657220746f206e6f6e20424550373231526560008201527f63656976657220696d706c656d656e7465720000000000000000000000000000602082015250565b7f4245503732313a207472616e7366657220746f20746865207a65726f2061646460008201527f7265737300000000000000000000000000000000000000000000000000000000602082015250565b7f696e76616c696420507269636520000000000000000000000000000000000000600082015250565b7f546f6b656e277320616765206d757374206265206f6c646572207468616e203160008201527f20796561722e0000000000000000000000000000000000000000000000000000602082015250565b7f4245503732313a20746f6b656e20616c7265616479206d696e74656400000000600082015250565b7f4245503732313a20617070726f766520746f2063616c6c657200000000000000600082015250565b7f4245503732313a20617070726f76652063616c6c6572206973206e6f74206f7760008201527f6e6572206e6f7220617070726f76656420666f7220616c6c0000000000000000602082015250565b61456281613d8a565b811461456d57600080fd5b50565b61457981613d9c565b811461458457600080fd5b50565b61459081613da8565b811461459b57600080fd5b50565b6145a781613df4565b81146145b257600080fd5b5056fea26469706673582212201671a753c4f803fafc582675d2f8888cbb3b5580a6af2f4fcbd4d53754d382c564736f6c63430008040033",
  "linkReferences": {},
  "deployedLinkReferences": {}
}