{
  "_format": "hh-sol-artifact-1",
  "contractName": "Hero",
  "sourceName": "contracts/Hero.sol",
  "abi": [
    {
      "inputs": [
        {
          "internalType": "address",
          "name": "_owner",
          "type": "address"
        },
        {
          "internalType": "contract IBEP20",
          "name": "_HBG",
          "type": "address"
        }
      ],
      "stateMutability": "nonpayable",
      "type": "constructor"
    },
    {
      "anonymous": false,
      "inputs": [
        {
          "indexed": true,
          "internalType": "address",
          "name": "owner",
          "type": "address"
        },
        {
          "indexed": true,
          "internalType": "address",
          "name": "approved",
          "type": "address"
        },
        {
          "indexed": true,
          "internalType": "uint256",
          "name": "tokenId",
          "type": "uint256"
        }
      ],
      "name": "Approval",
      "type": "event"
    },
    {
      "anonymous": false,
      "inputs": [
        {
          "indexed": true,
          "internalType": "address",
          "name": "owner",
          "type": "address"
        },
        {
          "indexed": true,
          "internalType": "address",
          "name": "operator",
          "type": "address"
        },
        {
          "indexed": false,
          "internalType": "bool",
          "name": "approved",
          "type": "bool"
        }
      ],
      "name": "ApprovalForAll",
      "type": "event"
    },
    {
      "anonymous": false,
      "inputs": [
        {
          "indexed": true,
          "internalType": "address",
          "name": "from",
          "type": "address"
        },
        {
          "indexed": true,
          "internalType": "address",
          "name": "to",
          "type": "address"
        },
        {
          "indexed": true,
          "internalType": "uint256",
          "name": "tokenId",
          "type": "uint256"
        }
      ],
      "name": "Transfer",
      "type": "event"
    },
    {
      "anonymous": false,
      "inputs": [
        {
          "indexed": false,
          "internalType": "address",
          "name": "user",
          "type": "address"
        },
        {
          "indexed": false,
          "internalType": "string",
          "name": "boxType",
          "type": "string"
        }
      ],
      "name": "buyNewBox",
      "type": "event"
    },
    {
      "inputs": [
        {
          "internalType": "uint256",
          "name": "token_No",
          "type": "uint256"
        }
      ],
      "name": "BurnNFT",
      "outputs": [],
      "stateMutability": "nonpayable",
      "type": "function"
    },
    {
      "inputs": [
        {
          "internalType": "address",
          "name": "_owner",
          "type": "address"
        }
      ],
      "name": "ChangeOwner",
      "outputs": [],
      "stateMutability": "nonpayable",
      "type": "function"
    },
    {
      "inputs": [],
      "name": "HBG",
      "outputs": [
        {
          "internalType": "contract IBEP20",
          "name": "",
          "type": "address"
        }
      ],
      "stateMutability": "view",
      "type": "function"
    },
    {
      "inputs": [
        {
          "internalType": "uint256",
          "name": "_silver",
          "type": "uint256"
        },
        {
          "internalType": "uint256",
          "name": "_gold",
          "type": "uint256"
        },
        {
          "internalType": "uint256",
          "name": "_platinum",
          "type": "uint256"
        },
        {
          "internalType": "uint256",
          "name": "_diamond",
          "type": "uint256"
        }
      ],
      "name": "SetPrice",
      "outputs": [],
      "stateMutability": "nonpayable",
      "type": "function"
    },
    {
      "inputs": [
        {
          "internalType": "address[]",
          "name": "addresses",
          "type": "address[]"
        }
      ],
      "name": "addAddressToWhiteList",
      "outputs": [],
      "stateMutability": "nonpayable",
      "type": "function"
    },
    {
      "inputs": [
        {
          "internalType": "address",
          "name": "to",
          "type": "address"
        },
        {
          "internalType": "uint256",
          "name": "tokenId",
          "type": "uint256"
        }
      ],
      "name": "approve",
      "outputs": [],
      "stateMutability": "nonpayable",
      "type": "function"
    },
    {
      "inputs": [
        {
          "internalType": "address",
          "name": "owner",
          "type": "address"
        }
      ],
      "name": "balanceOf",
      "outputs": [
        {
          "internalType": "uint256",
          "name": "",
          "type": "uint256"
        }
      ],
      "stateMutability": "view",
      "type": "function"
    },
    {
      "inputs": [],
      "name": "baseURI",
      "outputs": [
        {
          "internalType": "string",
          "name": "",
          "type": "string"
        }
      ],
      "stateMutability": "view",
      "type": "function"
    },
    {
      "inputs": [
        {
          "internalType": "address",
          "name": "_user",
          "type": "address"
        },
        {
          "internalType": "uint256",
          "name": "_type",
          "type": "uint256"
        },
        {
          "internalType": "uint256",
          "name": "_payment",
          "type": "uint256"
        }
      ],
      "name": "buyBox",
      "outputs": [],
      "stateMutability": "nonpayable",
      "type": "function"
    },
    {
      "inputs": [],
      "name": "checker",
      "outputs": [
        {
          "internalType": "address[]",
          "name": "",
          "type": "address[]"
        }
      ],
      "stateMutability": "view",
      "type": "function"
    },
    {
      "inputs": [],
      "name": "circulatingSupply",
      "outputs": [
        {
          "internalType": "uint256",
          "name": "",
          "type": "uint256"
        }
      ],
      "stateMutability": "view",
      "type": "function"
    },
    {
      "inputs": [],
      "name": "cleanWhiteList",
      "outputs": [],
      "stateMutability": "nonpayable",
      "type": "function"
    },
    {
      "inputs": [],
      "name": "diamondBox",
      "outputs": [
        {
          "internalType": "uint256",
          "name": "",
          "type": "uint256"
        }
      ],
      "stateMutability": "view",
      "type": "function"
    },
    {
      "inputs": [],
      "name": "diamondPrice",
      "outputs": [
        {
          "internalType": "uint256",
          "name": "",
          "type": "uint256"
        }
      ],
      "stateMutability": "view",
      "type": "function"
    },
    {
      "inputs": [],
      "name": "endClaimHero",
      "outputs": [],
      "stateMutability": "nonpayable",
      "type": "function"
    },
    {
      "inputs": [
        {
          "internalType": "uint256",
          "name": "tokenId",
          "type": "uint256"
        }
      ],
      "name": "getApproved",
      "outputs": [
        {
          "internalType": "address",
          "name": "",
          "type": "address"
        }
      ],
      "stateMutability": "view",
      "type": "function"
    },
    {
      "inputs": [],
      "name": "goldPrice",
      "outputs": [
        {
          "internalType": "uint256",
          "name": "",
          "type": "uint256"
        }
      ],
      "stateMutability": "view",
      "type": "function"
    },
    {
      "inputs": [],
      "name": "goldenBox",
      "outputs": [
        {
          "internalType": "uint256",
          "name": "",
          "type": "uint256"
        }
      ],
      "stateMutability": "view",
      "type": "function"
    },
    {
      "inputs": [
        {
          "internalType": "address",
          "name": "owner",
          "type": "address"
        },
        {
          "internalType": "address",
          "name": "operator",
          "type": "address"
        }
      ],
      "name": "isApprovedForAll",
      "outputs": [
        {
          "internalType": "bool",
          "name": "",
          "type": "bool"
        }
      ],
      "stateMutability": "view",
      "type": "function"
    },
    {
      "inputs": [],
      "name": "name",
      "outputs": [
        {
          "internalType": "string",
          "name": "",
          "type": "string"
        }
      ],
      "stateMutability": "view",
      "type": "function"
    },
    {
      "inputs": [],
      "name": "owner",
      "outputs": [
        {
          "internalType": "address",
          "name": "",
          "type": "address"
        }
      ],
      "stateMutability": "view",
      "type": "function"
    },
    {
      "inputs": [
        {
          "internalType": "uint256",
          "name": "tokenId",
          "type": "uint256"
        }
      ],
      "name": "ownerOf",
      "outputs": [
        {
          "internalType": "address",
          "name": "",
          "type": "address"
        }
      ],
      "stateMutability": "view",
      "type": "function"
    },
    {
      "inputs": [
        {
          "internalType": "uint256",
          "name": "",
          "type": "uint256"
        }
      ],
      "name": "ownerOfDiamondBox",
      "outputs": [
        {
          "internalType": "address",
          "name": "",
          "type": "address"
        }
      ],
      "stateMutability": "view",
      "type": "function"
    },
    {
      "inputs": [
        {
          "internalType": "uint256",
          "name": "",
          "type": "uint256"
        }
      ],
      "name": "ownerOfGoldenBox",
      "outputs": [
        {
          "internalType": "address",
          "name": "",
          "type": "address"
        }
      ],
      "stateMutability": "view",
      "type": "function"
    },
    {
      "inputs": [
        {
          "internalType": "uint256",
          "name": "",
          "type": "uint256"
        }
      ],
      "name": "ownerOfPlatinumBox",
      "outputs": [
        {
          "internalType": "address",
          "name": "",
          "type": "address"
        }
      ],
      "stateMutability": "view",
      "type": "function"
    },
    {
      "inputs": [
        {
          "internalType": "uint256",
          "name": "",
          "type": "uint256"
        }
      ],
      "name": "ownerOfSilverBox",
      "outputs": [
        {
          "internalType": "address",
          "name": "",
          "type": "address"
        }
      ],
      "stateMutability": "view",
      "type": "function"
    },
    {
      "inputs": [],
      "name": "platinumBox",
      "outputs": [
        {
          "internalType": "uint256",
          "name": "",
          "type": "uint256"
        }
      ],
      "stateMutability": "view",
      "type": "function"
    },
    {
      "inputs": [],
      "name": "platinumPrice",
      "outputs": [
        {
          "internalType": "uint256",
          "name": "",
          "type": "uint256"
        }
      ],
      "stateMutability": "view",
      "type": "function"
    },
    {
      "inputs": [
        {
          "internalType": "address",
          "name": "from",
          "type": "address"
        },
        {
          "internalType": "address",
          "name": "to",
          "type": "address"
        },
        {
          "internalType": "uint256",
          "name": "tokenId",
          "type": "uint256"
        }
      ],
      "name": "safeTransferFrom",
      "outputs": [],
      "stateMutability": "nonpayable",
      "type": "function"
    },
    {
      "inputs": [
        {
          "internalType": "address",
          "name": "from",
          "type": "address"
        },
        {
          "internalType": "address",
          "name": "to",
          "type": "address"
        },
        {
          "internalType": "uint256",
          "name": "tokenId",
          "type": "uint256"
        },
        {
          "internalType": "bytes",
          "name": "_data",
          "type": "bytes"
        }
      ],
      "name": "safeTransferFrom",
      "outputs": [],
      "stateMutability": "nonpayable",
      "type": "function"
    },
    {
      "inputs": [
        {
          "internalType": "address",
          "name": "operator",
          "type": "address"
        },
        {
          "internalType": "bool",
          "name": "approved",
          "type": "bool"
        }
      ],
      "name": "setApprovalForAll",
      "outputs": [],
      "stateMutability": "nonpayable",
      "type": "function"
    },
    {
      "inputs": [
        {
          "internalType": "string",
          "name": "__baseURI",
          "type": "string"
        }
      ],
      "name": "setBaseURI",
      "outputs": [],
      "stateMutability": "nonpayable",
      "type": "function"
    },
    {
      "inputs": [],
      "name": "silverBox",
      "outputs": [
        {
          "internalType": "uint256",
          "name": "",
          "type": "uint256"
        }
      ],
      "stateMutability": "view",
      "type": "function"
    },
    {
      "inputs": [],
      "name": "silverPrice",
      "outputs": [
        {
          "internalType": "uint256",
          "name": "",
          "type": "uint256"
        }
      ],
      "stateMutability": "view",
      "type": "function"
    },
    {
      "inputs": [
        {
          "internalType": "uint256",
          "name": "",
          "type": "uint256"
        }
      ],
      "name": "start",
      "outputs": [
        {
          "internalType": "uint256",
          "name": "",
          "type": "uint256"
        }
      ],
      "stateMutability": "view",
      "type": "function"
    },
    {
      "inputs": [
        {
          "internalType": "bytes4",
          "name": "interfaceId",
          "type": "bytes4"
        }
      ],
      "name": "supportsInterface",
      "outputs": [
        {
          "internalType": "bool",
          "name": "",
          "type": "bool"
        }
      ],
      "stateMutability": "view",
      "type": "function"
    },
    {
      "inputs": [],
      "name": "symbol",
      "outputs": [
        {
          "internalType": "string",
          "name": "",
          "type": "string"
        }
      ],
      "stateMutability": "view",
      "type": "function"
    },
    {
      "inputs": [
        {
          "internalType": "uint256",
          "name": "tokenId",
          "type": "uint256"
        }
      ],
      "name": "tokenURI",
      "outputs": [
        {
          "internalType": "string",
          "name": "",
          "type": "string"
        }
      ],
      "stateMutability": "view",
      "type": "function"
    },
    {
      "inputs": [
        {
          "internalType": "address",
          "name": "from",
          "type": "address"
        },
        {
          "internalType": "address",
          "name": "to",
          "type": "address"
        },
        {
          "internalType": "uint256",
          "name": "tokenId",
          "type": "uint256"
        }
      ],
      "name": "transferFrom",
      "outputs": [],
      "stateMutability": "nonpayable",
      "type": "function"
    },
    {
      "inputs": [
        {
          "internalType": "uint256",
          "name": "",
          "type": "uint256"
        }
      ],
      "name": "whitelistedPeople",
      "outputs": [
        {
          "internalType": "address",
          "name": "",
          "type": "address"
        }
      ],
      "stateMutability": "view",
      "type": "function"
    }
  ],
  "bytecode": "0x60806040526001600a556001600b556001600c556001600d553480156200002557600080fd5b50604051620026e6380380620026e683398101604081905262000048916200018b565b604080518082018252600a8152692422a927902a37b5b2b760b11b6020808301918252835180850190945260048452634845524f60e01b9084015281519192916200009691600091620000e5565b508051620000ac906001906020840190620000e5565b5050600680546001600160a01b039485166001600160a01b031991821617909155600e805493909416921691909117909155506200021f565b828054620000f390620001c9565b90600052602060002090601f01602090048101928262000117576000855562000162565b82601f106200013257805160ff191683800117855562000162565b8280016001018555821562000162579182015b828111156200016257825182559160200191906001019062000145565b506200017092915062000174565b5090565b5b8082111562000170576000815560010162000175565b600080604083850312156200019e578182fd5b8251620001ab8162000206565b6020840151909250620001be8162000206565b809150509250929050565b600181811c90821680620001de57607f821691505b602082108114156200020057634e487b7160e01b600052602260045260246000fd5b50919050565b6001600160a01b03811681146200021c57600080fd5b50565b6124b7806200022f6000396000f3fe608060405234801561001057600080fd5b50600436106101d85760003560e01c806301ffc9a7146101dd57806306fdde0314610205578063081812fc1461021a57806308be750d14610245578063095ea7b3146102585780630a8798c31461026d578063167dc8a01461028057806323b872dd14610293578063266a21f1146102a65780632d258ea4146102b957806342842e0e146102c157806344501404146102d457806355f804b3146102eb5780636352211e146102fe578063678dff9d1461031157806369b59da5146103195780636c0360eb1461034257806370a082311461034a5780637d89cd591461035d5780637dd4d04e146103665780638168803d1461036f578063856e2af4146103785780638da5cb5b146103815780638e1ad9da146103945780639358928b1461039d57806395805dad146103a657806395d89b41146103c65780639e49ec8d146103ce578063a22cb465146103f7578063a787eb571461040a578063b6fc11d914610433578063b88d4fde14610446578063c87b56dd14610459578063cf5303cf1461046c578063dfa9b44014610481578063e985e9c514610494578063f2853292146104a7578063f5063d51146104ba578063fef508c9146104c3578063ff391c06146104ec575b600080fd5b6101f06101eb366004612019565b6104f5565b60405190151581526020015b60405180910390f35b61020d610547565b6040516101fc91906121e8565b61022d610228366004612096565b6105d9565b6040516001600160a01b0390911681526020016101fc565b61022d610253366004612096565b610666565b61026b610266366004611f33565b610690565b005b61026b61027b366004611f5c565b6107a1565b61026b61028e366004612096565b610d95565b61026b6102a1366004611e4a565b610e70565b600e5461022d906001600160a01b031681565b61026b610ea1565b61026b6102cf366004611e4a565b610ed9565b6102dd60105481565b6040519081526020016101fc565b61026b6102f9366004612051565b610ef4565b61022d61030c366004612096565b610f35565b61026b610fac565b61022d610327366004612096565b6015602052600090815260409020546001600160a01b031681565b61020d611068565b6102dd610358366004611dfe565b6110f6565b6102dd600a5481565b6102dd600c5481565b6102dd60115481565b6102dd600b5481565b60065461022d906001600160a01b031681565b6102dd60125481565b6102dd60085481565b6102dd6103b4366004612096565b60176020526000908152604090205481565b61020d61117d565b61022d6103dc366004612096565b6014602052600090815260409020546001600160a01b031681565b61026b610405366004611efd565b61118c565b61022d610418366004612096565b6016602052600090815260409020546001600160a01b031681565b61026b6104413660046120ae565b611197565b61026b610454366004611e85565b6111d5565b61020d610467366004612096565b61120d565b6104746112d8565b6040516101fc919061219b565b61026b61048f366004611f8e565b6113ce565b6101f06104a2366004611e18565b61147e565b61026b6104b5366004611dfe565b6114ac565b6102dd600d5481565b61022d6104d1366004612096565b6013602052600090815260409020546001600160a01b031681565b6102dd600f5481565b60006001600160e01b031982166380ac58cd60e01b148061052657506001600160e01b03198216635b5e139f60e01b145b8061054157506301ffc9a760e01b6001600160e01b03198316145b92915050565b60606000805461055690612377565b80601f016020809104026020016040519081016040528092919081815260200182805461058290612377565b80156105cf5780601f106105a4576101008083540402835291602001916105cf565b820191906000526020600020905b8154815290600101906020018083116105b257829003601f168201915b5050505050905090565b60006105e4826114f8565b61064a5760405162461bcd60e51b815260206004820152602c60248201527f4245503732313a20617070726f76656420717565727920666f72206e6f6e657860448201526b34b9ba32b73a103a37b5b2b760a11b60648201526084015b60405180910390fd5b506000908152600460205260409020546001600160a01b031690565b6009818154811061067657600080fd5b6000918252602090912001546001600160a01b0316905081565b600061069b82610f35565b9050806001600160a01b0316836001600160a01b031614156107095760405162461bcd60e51b815260206004820152602160248201527f4245503732313a20617070726f76616c20746f2063757272656e74206f776e656044820152603960f91b6064820152608401610641565b336001600160a01b03821614806107255750610725813361147e565b6107925760405162461bcd60e51b815260206004820152603860248201527f4245503732313a20617070726f76652063616c6c6572206973206e6f74206f776044820152771b995c881b9bdc88185c1c1c9bdd995908199bdc88185b1b60421b6064820152608401610641565b61079c8383611515565b505050565b816001141561092557600f548110156107cc5760405162461bcd60e51b8152600401610641906122e0565b600a8054600090815260136020526040812080546001600160a01b0319166001600160a01b03871617905581546001929190610809908490612308565b9091555050600e546006546040516323b872dd60e01b81526001600160a01b03928316926323b872dd9261084792889290911690869060040161213a565b602060405180830381600087803b15801561086157600080fd5b505af1158015610875573d6000803e3d6000fd5b505050506040513d601f19601f820116820180604052508101906108999190611ffd565b506001600860008282546108ad9190612308565b925050819055506108c083600854611583565b60085460009081526017602090815260409182902042905581516001600160a01b03861681529081018290526006918101919091526529b4b63b32b960d11b6060820152600080516020612442833981519152906080015b60405180910390a1505050565b8160021415610a9f57601054811461094f5760405162461bcd60e51b8152600401610641906122e0565b600b8054600090815260146020526040812080546001600160a01b0319166001600160a01b0387161790558154600192919061098c908490612308565b9091555050600e546006546040516323b872dd60e01b81526001600160a01b03928316926323b872dd926109ca92889290911690869060040161213a565b602060405180830381600087803b1580156109e457600080fd5b505af11580156109f8573d6000803e3d6000fd5b505050506040513d601f19601f82011682018060405250810190610a1c9190611ffd565b50600160086000828254610a309190612308565b92505081905550610a4383600854611583565b60085460009081526017602090815260409182902042905581516001600160a01b03861681529081018290526006918101919091526523b7b63232b760d11b606082015260008051602061244283398151915290608001610918565b8160031415610c1a576011548114610ac95760405162461bcd60e51b8152600401610641906122e0565b600c8054600090815260156020526040812080546001600160a01b0319166001600160a01b03871617905581546001929190610b06908490612308565b9091555050600e546006546040516323b872dd60e01b81526001600160a01b03928316926323b872dd92610b4492889290911690869060040161213a565b602060405180830381600087803b158015610b5e57600080fd5b505af1158015610b72573d6000803e3d6000fd5b505050506040513d601f19601f82011682018060405250810190610b969190611ffd565b50600160086000828254610baa9190612308565b92505081905550610bbd83600854611583565b60085460009081526017602090815260409182902042905581516001600160a01b038616815290810182905260079181019190915266506c6174696e6d60c81b606082015260008051602061244283398151915290608001610918565b816004141561079c576012548114610c445760405162461bcd60e51b8152600401610641906122e0565b600d8054600090815260166020526040812080546001600160a01b0319166001600160a01b03871617905581546001929190610c81908490612308565b9091555050600e546006546040516323b872dd60e01b81526001600160a01b03928316926323b872dd92610cbf92889290911690869060040161213a565b602060405180830381600087803b158015610cd957600080fd5b505af1158015610ced573d6000803e3d6000fd5b505050506040513d601f19601f82011682018060405250810190610d119190611ffd565b50600160086000828254610d259190612308565b92505081905550610d3883600854611583565b60085460009081526017602090815260409182902042905581516001600160a01b038616815290810182905260079181019190915266111a585b5bdb9960ca1b606082015260008051602061244283398151915290608001610918565b6006546001600160a01b03163314610dbf5760405162461bcd60e51b81526004016106419061224c565b600081815260176020526040902054610ddc906301e13380612308565b4211610e395760405162461bcd60e51b815260206004820152602660248201527f546f6b656e277320616765206d757374206265206f6c646572207468616e2031604482015265103cb2b0b91760d11b6064820152608401610641565b610e42816116a3565b600060176000600860008154610e57906123ac565b9182905550815260208101919091526040016000205550565b610e7a338261172c565b610e965760405162461bcd60e51b8152600401610641906121fb565b61079c8383836117f6565b6006546001600160a01b03163314610ecb5760405162461bcd60e51b81526004016106419061224c565b610ed760096000611cb3565b565b61079c838383604051806020016040528060008152506111d5565b6006546001600160a01b03163314610f1e5760405162461bcd60e51b81526004016106419061224c565b8051610f31906007906020840190611cd4565b5050565b6000818152600260205260408120546001600160a01b0316806105415760405162461bcd60e51b815260206004820152602960248201527f4245503732313a206f776e657220717565727920666f72206e6f6e657869737460448201526832b73a103a37b5b2b760b91b6064820152608401610641565b6006546001600160a01b03163314610fd65760405162461bcd60e51b81526004016106419061224c565b4260005b600954811015610f3157600160086000828254610ff79190612308565b925050819055506110426009828154811061102257634e487b7160e01b600052603260045260246000fd5b6000918252602090912001546008546001600160a01b0390911690611583565b600854600090815260176020526040902082905580611060816123ac565b915050610fda565b6007805461107590612377565b80601f01602080910402602001604051908101604052809291908181526020018280546110a190612377565b80156110ee5780601f106110c3576101008083540402835291602001916110ee565b820191906000526020600020905b8154815290600101906020018083116110d157829003601f168201915b505050505081565b60006001600160a01b0382166111615760405162461bcd60e51b815260206004820152602a60248201527f4245503732313a2062616c616e636520717565727920666f7220746865207a65604482015269726f206164647265737360b01b6064820152608401610641565b506001600160a01b031660009081526003602052604090205490565b60606001805461055690612377565b610f31338383611980565b6006546001600160a01b031633146111c15760405162461bcd60e51b81526004016106419061224c565b600f93909355601091909155601155601255565b6111df338361172c565b6111fb5760405162461bcd60e51b8152600401610641906121fb565b61120784848484611a4b565b50505050565b6060611218826114f8565b61127c5760405162461bcd60e51b815260206004820152602f60248201527f4245503732314d657461646174613a2055524920717565727920666f72206e6f60448201526e3732bc34b9ba32b73a103a37b5b2b760891b6064820152608401610641565b6000611286611a7e565b905060008151116112a657604051806020016040528060008152506112d1565b806112b084611a8d565b6040516020016112c192919061210b565b6040516020818303038152906040525b9392505050565b6009546060906000906001600160401b0381111561130657634e487b7160e01b600052604160045260246000fd5b60405190808252806020026020018201604052801561132f578160200160208202803683370190505b50905060005b6009548110156113c8576009818154811061136057634e487b7160e01b600052603260045260246000fd5b9060005260206000200160009054906101000a90046001600160a01b031682828151811061139e57634e487b7160e01b600052603260045260246000fd5b6001600160a01b0390921660209283029190910190910152806113c0816123ac565b915050611335565b50919050565b6006546001600160a01b031633146113f85760405162461bcd60e51b81526004016106419061224c565b60005b8181101561079c57600983838381811061142557634e487b7160e01b600052603260045260246000fd5b905060200201602081019061143a9190611dfe565b81546001810183556000928352602090922090910180546001600160a01b0319166001600160a01b0390921691909117905580611476816123ac565b9150506113fb565b6001600160a01b03918216600090815260056020908152604080832093909416825291909152205460ff1690565b6006546001600160a01b031633146114d65760405162461bcd60e51b81526004016106419061224c565b600680546001600160a01b0319166001600160a01b0392909216919091179055565b6000908152600260205260409020546001600160a01b0316151590565b600081815260046020526040902080546001600160a01b0319166001600160a01b038416908117909155819061154a82610f35565b6001600160a01b03167f8c5be1e5ebec7d5bd14f71427d1e84f3dd0314c0f7b2291e5b200ac8c7c3b92560405160405180910390a45050565b6001600160a01b0382166115d95760405162461bcd60e51b815260206004820181905260248201527f4245503732313a206d696e7420746f20746865207a65726f20616464726573736044820152606401610641565b6115e2816114f8565b1561162e5760405162461bcd60e51b815260206004820152601c60248201527b1091540dcc8c4e881d1bdad95b88185b1c9958591e481b5a5b9d195960221b6044820152606401610641565b6001600160a01b0382166000908152600360205260408120805460019290611657908490612308565b909155505060008181526002602052604080822080546001600160a01b0319166001600160a01b0386169081179091559051839290600080516020612462833981519152908290a45050565b60006116ae82610f35565b90506116bb600083611515565b6001600160a01b03811660009081526003602052604081208054600192906116e4908490612334565b909155505060008281526002602052604080822080546001600160a01b0319169055518391906001600160a01b03841690600080516020612462833981519152908390a45050565b6000611737826114f8565b6117985760405162461bcd60e51b815260206004820152602c60248201527f4245503732313a206f70657261746f7220717565727920666f72206e6f6e657860448201526b34b9ba32b73a103a37b5b2b760a11b6064820152608401610641565b60006117a383610f35565b9050806001600160a01b0316846001600160a01b031614806117de5750836001600160a01b03166117d3846105d9565b6001600160a01b0316145b806117ee57506117ee818561147e565b949350505050565b826001600160a01b031661180982610f35565b6001600160a01b03161461186d5760405162461bcd60e51b815260206004820152602560248201527f4245503732313a207472616e736665722066726f6d20696e636f72726563742060448201526437bbb732b960d91b6064820152608401610641565b6001600160a01b0382166118cf5760405162461bcd60e51b8152602060048201526024808201527f4245503732313a207472616e7366657220746f20746865207a65726f206164646044820152637265737360e01b6064820152608401610641565b6118da600082611515565b6001600160a01b0383166000908152600360205260408120805460019290611903908490612334565b90915550506001600160a01b0382166000908152600360205260408120805460019290611931908490612308565b909155505060008181526002602052604080822080546001600160a01b0319166001600160a01b03868116918217909255915184939187169160008051602061246283398151915291a4505050565b816001600160a01b0316836001600160a01b031614156119de5760405162461bcd60e51b81526020600482015260196024820152782122a81b99189d1030b8383937bb32903a379031b0b63632b960391b6044820152606401610641565b6001600160a01b03838116600081815260056020908152604080832094871680845294825291829020805460ff191686151590811790915591519182527f17307eab39ab6107e8899845ad3d59bd9653f200f220920489ca2b5937696c31910160405180910390a3505050565b611a568484846117f6565b611a6284848484611ba6565b6112075760405162461bcd60e51b81526004016106419061228e565b60606007805461055690612377565b606081611ab15750506040805180820190915260018152600360fc1b602082015290565b8160005b8115611adb5780611ac5816123ac565b9150611ad49050600a83612320565b9150611ab5565b6000816001600160401b03811115611b0357634e487b7160e01b600052604160045260246000fd5b6040519080825280601f01601f191660200182016040528015611b2d576020820181803683370190505b5090505b84156117ee57611b42600183612334565b9150611b4f600a866123c7565b611b5a906030612308565b60f81b818381518110611b7d57634e487b7160e01b600052603260045260246000fd5b60200101906001600160f81b031916908160001a905350611b9f600a86612320565b9450611b31565b60006001600160a01b0384163b15611ca85760405163083305f960e31b81526001600160a01b038516906341982fc890611bea90339089908890889060040161215e565b602060405180830381600087803b158015611c0457600080fd5b505af1925050508015611c34575060408051601f3d908101601f19168201909252611c3191810190612035565b60015b611c8e573d808015611c62576040519150601f19603f3d011682016040523d82523d6000602084013e611c67565b606091505b508051611c865760405162461bcd60e51b81526004016106419061228e565b805181602001fd5b6001600160e01b03191663083305f960e31b1490506117ee565b506001949350505050565b5080546000825590600052602060002090810190611cd19190611d58565b50565b828054611ce090612377565b90600052602060002090601f016020900481019282611d025760008555611d48565b82601f10611d1b57805160ff1916838001178555611d48565b82800160010185558215611d48579182015b82811115611d48578251825591602001919060010190611d2d565b50611d54929150611d58565b5090565b5b80821115611d545760008155600101611d59565b60006001600160401b0380841115611d8757611d87612407565b604051601f8501601f19908116603f01168101908282118183101715611daf57611daf612407565b81604052809350858152868686011115611dc857600080fd5b858560208301376000602087830101525050509392505050565b80356001600160a01b0381168114611df957600080fd5b919050565b600060208284031215611e0f578081fd5b6112d182611de2565b60008060408385031215611e2a578081fd5b611e3383611de2565b9150611e4160208401611de2565b90509250929050565b600080600060608486031215611e5e578081fd5b611e6784611de2565b9250611e7560208501611de2565b9150604084013590509250925092565b60008060008060808587031215611e9a578081fd5b611ea385611de2565b9350611eb160208601611de2565b92506040850135915060608501356001600160401b03811115611ed2578182fd5b8501601f81018713611ee2578182fd5b611ef187823560208401611d6d565b91505092959194509250565b60008060408385031215611f0f578182fd5b611f1883611de2565b91506020830135611f288161241d565b809150509250929050565b60008060408385031215611f45578182fd5b611f4e83611de2565b946020939093013593505050565b600080600060608486031215611f70578283fd5b611f7984611de2565b95602085013595506040909401359392505050565b60008060208385031215611fa0578182fd5b82356001600160401b0380821115611fb6578384fd5b818501915085601f830112611fc9578384fd5b813581811115611fd7578485fd5b8660208260051b8501011115611feb578485fd5b60209290920196919550909350505050565b60006020828403121561200e578081fd5b81516112d18161241d565b60006020828403121561202a578081fd5b81356112d18161242b565b600060208284031215612046578081fd5b81516112d18161242b565b600060208284031215612062578081fd5b81356001600160401b03811115612077578182fd5b8201601f81018413612087578182fd5b6117ee84823560208401611d6d565b6000602082840312156120a7578081fd5b5035919050565b600080600080608085870312156120c3578182fd5b5050823594602084013594506040840135936060013592509050565b600081518084526120f781602086016020860161234b565b601f01601f19169290920160200192915050565b6000835161211d81846020880161234b565b83519083019061213181836020880161234b565b01949350505050565b6001600160a01b039384168152919092166020820152604081019190915260600190565b6001600160a01b0385811682528416602082015260408101839052608060608201819052600090612191908301846120df565b9695505050505050565b6020808252825182820181905260009190848201906040850190845b818110156121dc5783516001600160a01b0316835292840192918401916001016121b7565b50909695505050505050565b6020815260006112d160208301846120df565b60208082526031908201527f4245503732313a207472616e736665722063616c6c6572206973206e6f74206f6040820152701ddb995c881b9bdc88185c1c1c9bdd9959607a1b606082015260800190565b60208082526022908201527f4f6e6c79206f776e65722063616e2072756e20746869732066756e6374696f6e604082015261010960f51b606082015260800190565b60208082526032908201527f4245503732313a207472616e7366657220746f206e6f6e20424550373231526560408201527131b2b4bb32b91034b6b83632b6b2b73a32b960711b606082015260800190565b6020808252600e908201526d034b73b30b634b210283934b1b2960951b604082015260600190565b6000821982111561231b5761231b6123db565b500190565b60008261232f5761232f6123f1565b500490565b600082821015612346576123466123db565b500390565b60005b8381101561236657818101518382015260200161234e565b838111156112075750506000910152565b600181811c9082168061238b57607f821691505b602082108114156113c857634e487b7160e01b600052602260045260246000fd5b60006000198214156123c0576123c06123db565b5060010190565b6000826123d6576123d66123f1565b500690565b634e487b7160e01b600052601160045260246000fd5b634e487b7160e01b600052601260045260246000fd5b634e487b7160e01b600052604160045260246000fd5b8015158114611cd157600080fd5b6001600160e01b031981168114611cd157600080fdfe367f3b3e9f0b4141d6ae3cacac8084da13be4a6b423710ff564c4285f5ccba58ddf252ad1be2c89b69c2b068fc378daa952ba7f163c4a11628f55a4df523b3efa2646970667358221220d24351cef50f0258014c9d00bef856bee6bd0db6c27402b57ce5c497d8e9eaf664736f6c63430008040033",
  "linkReferences": {},
  "deployedLinkReferences": {}
}