{
  "_format": "hh-sol-artifact-1",
  "contractName": "HBG",
  "sourceName": "contracts/HBG.sol",
  "abi": [
    {
      "inputs": [
        {
          "internalType": "address",
          "name": "_owner",
          "type": "address"
        }
      ],
      "stateMutability": "nonpayable",
      "type": "constructor"
    },
    {
      "anonymous": false,
      "inputs": [
        {
          "indexed": true,
          "internalType": "address",
          "name": "owner",
          "type": "address"
        },
        {
          "indexed": true,
          "internalType": "address",
          "name": "spender",
          "type": "address"
        },
        {
          "indexed": false,
          "internalType": "uint256",
          "name": "value",
          "type": "uint256"
        }
      ],
      "name": "Approval",
      "type": "event"
    },
    {
      "anonymous": false,
      "inputs": [
        {
          "indexed": true,
          "internalType": "address",
          "name": "from",
          "type": "address"
        },
        {
          "indexed": true,
          "internalType": "address",
          "name": "to",
          "type": "address"
        },
        {
          "indexed": false,
          "internalType": "uint256",
          "name": "value",
          "type": "uint256"
        }
      ],
      "name": "Transfer",
      "type": "event"
    },
    {
      "inputs": [],
      "name": "Mint",
      "outputs": [],
      "stateMutability": "nonpayable",
      "type": "function"
    },
    {
      "inputs": [
        {
          "internalType": "address",
          "name": "owner",
          "type": "address"
        },
        {
          "internalType": "address",
          "name": "spender",
          "type": "address"
        }
      ],
      "name": "allowance",
      "outputs": [
        {
          "internalType": "uint256",
          "name": "",
          "type": "uint256"
        }
      ],
      "stateMutability": "view",
      "type": "function"
    },
    {
      "inputs": [
        {
          "internalType": "address",
          "name": "spender",
          "type": "address"
        },
        {
          "internalType": "uint256",
          "name": "amount",
          "type": "uint256"
        }
      ],
      "name": "approve",
      "outputs": [
        {
          "internalType": "bool",
          "name": "",
          "type": "bool"
        }
      ],
      "stateMutability": "nonpayable",
      "type": "function"
    },
    {
      "inputs": [
        {
          "internalType": "address",
          "name": "account",
          "type": "address"
        }
      ],
      "name": "balanceOf",
      "outputs": [
        {
          "internalType": "uint256",
          "name": "",
          "type": "uint256"
        }
      ],
      "stateMutability": "view",
      "type": "function"
    },
    {
      "inputs": [],
      "name": "decimals",
      "outputs": [
        {
          "internalType": "uint8",
          "name": "",
          "type": "uint8"
        }
      ],
      "stateMutability": "view",
      "type": "function"
    },
    {
      "inputs": [
        {
          "internalType": "address",
          "name": "spender",
          "type": "address"
        },
        {
          "internalType": "uint256",
          "name": "subtractedValue",
          "type": "uint256"
        }
      ],
      "name": "decreaseAllowance",
      "outputs": [
        {
          "internalType": "bool",
          "name": "",
          "type": "bool"
        }
      ],
      "stateMutability": "nonpayable",
      "type": "function"
    },
    {
      "inputs": [
        {
          "internalType": "address",
          "name": "spender",
          "type": "address"
        },
        {
          "internalType": "uint256",
          "name": "addedValue",
          "type": "uint256"
        }
      ],
      "name": "increaseAllowance",
      "outputs": [
        {
          "internalType": "bool",
          "name": "",
          "type": "bool"
        }
      ],
      "stateMutability": "nonpayable",
      "type": "function"
    },
    {
      "inputs": [],
      "name": "name",
      "outputs": [
        {
          "internalType": "string",
          "name": "",
          "type": "string"
        }
      ],
      "stateMutability": "view",
      "type": "function"
    },
    {
      "inputs": [],
      "name": "symbol",
      "outputs": [
        {
          "internalType": "string",
          "name": "",
          "type": "string"
        }
      ],
      "stateMutability": "view",
      "type": "function"
    },
    {
      "inputs": [],
      "name": "totalSupply",
      "outputs": [
        {
          "internalType": "uint256",
          "name": "",
          "type": "uint256"
        }
      ],
      "stateMutability": "view",
      "type": "function"
    },
    {
      "inputs": [
        {
          "internalType": "address",
          "name": "to",
          "type": "address"
        },
        {
          "internalType": "uint256",
          "name": "amount",
          "type": "uint256"
        }
      ],
      "name": "transfer",
      "outputs": [
        {
          "internalType": "bool",
          "name": "",
          "type": "bool"
        }
      ],
      "stateMutability": "nonpayable",
      "type": "function"
    },
    {
      "inputs": [
        {
          "internalType": "address",
          "name": "from",
          "type": "address"
        },
        {
          "internalType": "address",
          "name": "to",
          "type": "address"
        },
        {
          "internalType": "uint256",
          "name": "amount",
          "type": "uint256"
        }
      ],
      "name": "transferFrom",
      "outputs": [
        {
          "internalType": "bool",
          "name": "",
          "type": "bool"
        }
      ],
      "stateMutability": "nonpayable",
      "type": "function"
    }
  ],
  "bytecode": "0x60806040523480156200001157600080fd5b5060405162000cb638038062000cb683398101604081905262000034916200026a565b6040518060400160405280601481526020017f4865726f20426f6f6b2047616d6520546f6b656e0000000000000000000000008152506040518060400160405280600381526020016248424760e81b81525081600390805190602001906200009e929190620001c4565b508051620000b4906004906020840190620001c4565b505050620000d5816b033b2e3c9fd0803ce8000000620000dc60201b60201c565b50620002fc565b6001600160a01b038216620001375760405162461bcd60e51b815260206004820152601f60248201527f45524332303a206d696e7420746f20746865207a65726f206164647265737300604482015260640160405180910390fd5b80600260008282546200014b91906200029a565b90915550506001600160a01b038216600090815260208190526040812080548392906200017a9084906200029a565b90915550506040518181526001600160a01b038316906000907fddf252ad1be2c89b69c2b068fc378daa952ba7f163c4a11628f55a4df523b3ef9060200160405180910390a35050565b828054620001d290620002bf565b90600052602060002090601f016020900481019282620001f6576000855562000241565b82601f106200021157805160ff191683800117855562000241565b8280016001018555821562000241579182015b828111156200024157825182559160200191906001019062000224565b506200024f92915062000253565b5090565b5b808211156200024f576000815560010162000254565b6000602082840312156200027c578081fd5b81516001600160a01b038116811462000293578182fd5b9392505050565b60008219821115620002ba57634e487b7160e01b81526011600452602481fd5b500190565b600181811c90821680620002d457607f821691505b60208210811415620002f657634e487b7160e01b600052602260045260246000fd5b50919050565b6109aa806200030c6000396000f3fe608060405234801561001057600080fd5b50600436106100a45760003560e01c806306fdde03146100a9578063095ea7b3146100c757806318160ddd146100ea57806323b872dd146100fc578063313ce5671461010f57806334c738841461011e578063395093511461012857806370a082311461013b57806395d89b4114610164578063a457c2d71461016c578063a9059cbb1461017f578063dd62ed3e14610192575b600080fd5b6100b16101a5565b6040516100be91906108a2565b60405180910390f35b6100da6100d5366004610879565b610237565b60405190151581526020016100be565b6002545b6040519081526020016100be565b6100da61010a36600461083e565b61024f565b604051601281526020016100be565b610126610273565b005b6100da610136366004610879565b61028a565b6100ee6101493660046107eb565b6001600160a01b031660009081526020819052604090205490565b6100b16102c9565b6100da61017a366004610879565b6102d8565b6100da61018d366004610879565b61036f565b6100ee6101a036600461080c565b61037d565b6060600380546101b490610919565b80601f01602080910402602001604051908101604052809291908181526020018280546101e090610919565b801561022d5780601f106102025761010080835404028352916020019161022d565b820191906000526020600020905b81548152906001019060200180831161021057829003601f168201915b5050505050905090565b6000336102458185856103a8565b5060019392505050565b60003361025d8582856104cc565b610268858585610546565b506001949350505050565b61028833676765c793fa10079d601b1b610702565b565b3360008181526001602090815260408083206001600160a01b038716845290915281205490919061024590829086906102c49087906108f5565b6103a8565b6060600480546101b490610919565b3360008181526001602090815260408083206001600160a01b0387168452909152812054909190838110156103625760405162461bcd60e51b815260206004820152602560248201527f45524332303a2064656372656173656420616c6c6f77616e63652062656c6f77604482015264207a65726f60d81b60648201526084015b60405180910390fd5b61026882868684036103a8565b600033610245818585610546565b6001600160a01b03918216600090815260016020908152604080832093909416825291909152205490565b6001600160a01b03831661040a5760405162461bcd60e51b8152602060048201526024808201527f45524332303a20617070726f76652066726f6d20746865207a65726f206164646044820152637265737360e01b6064820152608401610359565b6001600160a01b03821661046b5760405162461bcd60e51b815260206004820152602260248201527f45524332303a20617070726f766520746f20746865207a65726f206164647265604482015261737360f01b6064820152608401610359565b6001600160a01b0383811660008181526001602090815260408083209487168084529482529182902085905590518481527f8c5be1e5ebec7d5bd14f71427d1e84f3dd0314c0f7b2291e5b200ac8c7c3b925910160405180910390a3505050565b60006104d8848461037d565b9050600019811461054057818110156105335760405162461bcd60e51b815260206004820152601d60248201527f45524332303a20696e73756666696369656e7420616c6c6f77616e63650000006044820152606401610359565b61054084848484036103a8565b50505050565b6001600160a01b0383166105aa5760405162461bcd60e51b815260206004820152602560248201527f45524332303a207472616e736665722066726f6d20746865207a65726f206164604482015264647265737360d81b6064820152608401610359565b6001600160a01b03821661060c5760405162461bcd60e51b815260206004820152602360248201527f45524332303a207472616e7366657220746f20746865207a65726f206164647260448201526265737360e81b6064820152608401610359565b6001600160a01b038316600090815260208190526040902054818110156106845760405162461bcd60e51b815260206004820152602660248201527f45524332303a207472616e7366657220616d6f756e7420657863656564732062604482015265616c616e636560d01b6064820152608401610359565b6001600160a01b038085166000908152602081905260408082208585039055918516815290812080548492906106bb9084906108f5565b92505081905550826001600160a01b0316846001600160a01b0316600080516020610955833981519152846040516106f591815260200190565b60405180910390a3610540565b6001600160a01b0382166107585760405162461bcd60e51b815260206004820152601f60248201527f45524332303a206d696e7420746f20746865207a65726f2061646472657373006044820152606401610359565b806002600082825461076a91906108f5565b90915550506001600160a01b038216600090815260208190526040812080548392906107979084906108f5565b90915550506040518181526001600160a01b038316906000906000805160206109558339815191529060200160405180910390a35050565b80356001600160a01b03811681146107e657600080fd5b919050565b6000602082840312156107fc578081fd5b610805826107cf565b9392505050565b6000806040838503121561081e578081fd5b610827836107cf565b9150610835602084016107cf565b90509250929050565b600080600060608486031215610852578081fd5b61085b846107cf565b9250610869602085016107cf565b9150604084013590509250925092565b6000806040838503121561088b578182fd5b610894836107cf565b946020939093013593505050565b6000602080835283518082850152825b818110156108ce578581018301518582016040015282016108b2565b818111156108df5783604083870101525b50601f01601f1916929092016040019392505050565b6000821982111561091457634e487b7160e01b81526011600452602481fd5b500190565b600181811c9082168061092d57607f821691505b6020821081141561094e57634e487b7160e01b600052602260045260246000fd5b5091905056feddf252ad1be2c89b69c2b068fc378daa952ba7f163c4a11628f55a4df523b3efa26469706673582212207d7153f835f5ad1262890c0ee62b9634cbec09a99e58e31dffd89c19a9c97e3264736f6c63430008040033",
  "linkReferences": {},
  "deployedLinkReferences": {}
}